{
	"Exchange.sol": {
		"Exchange": {
			"abi": [
				{
					"inputs": [
						{
							"internalType": "address",
							"name": "adr",
							"type": "address"
						}
					],
					"stateMutability": "nonpayable",
					"type": "constructor"
				},
				{
					"anonymous": false,
					"inputs": [
						{
							"indexed": false,
							"internalType": "uint256",
							"name": "amountERC20TokenDeposited",
							"type": "uint256"
						},
						{
							"indexed": false,
							"internalType": "uint256",
							"name": "amountEthDeposited",
							"type": "uint256"
						},
						{
							"indexed": false,
							"internalType": "uint256",
							"name": "liquidityPositionsIssued",
							"type": "uint256"
						}
					],
					"name": "LiquidityProvided",
					"type": "event"
				},
				{
					"anonymous": false,
					"inputs": [
						{
							"indexed": false,
							"internalType": "uint256",
							"name": "amountERC20TokenWithdrew",
							"type": "uint256"
						},
						{
							"indexed": false,
							"internalType": "uint256",
							"name": "amountEthWithdrew",
							"type": "uint256"
						},
						{
							"indexed": false,
							"internalType": "uint256",
							"name": "liquidityPositionsBurned",
							"type": "uint256"
						}
					],
					"name": "LiquidityWithdrew",
					"type": "event"
				},
				{
					"anonymous": false,
					"inputs": [
						{
							"indexed": false,
							"internalType": "uint256",
							"name": "amountERC20TokenWithdrew",
							"type": "uint256"
						},
						{
							"indexed": false,
							"internalType": "uint256",
							"name": "amountEthDeposited",
							"type": "uint256"
						}
					],
					"name": "SwapForERC20Token",
					"type": "event"
				},
				{
					"anonymous": false,
					"inputs": [
						{
							"indexed": false,
							"internalType": "uint256",
							"name": "amountERC20TokenDeposited",
							"type": "uint256"
						},
						{
							"indexed": false,
							"internalType": "uint256",
							"name": "amountEthWithdrew",
							"type": "uint256"
						}
					],
					"name": "SwapForEth",
					"type": "event"
				},
				{
					"inputs": [],
					"name": "K",
					"outputs": [
						{
							"internalType": "uint256",
							"name": "",
							"type": "uint256"
						}
					],
					"stateMutability": "view",
					"type": "function"
				},
				{
					"inputs": [],
					"name": "_ERC20TokenBalance",
					"outputs": [
						{
							"internalType": "uint256",
							"name": "",
							"type": "uint256"
						}
					],
					"stateMutability": "view",
					"type": "function"
				},
				{
					"inputs": [],
					"name": "contractEthBalance",
					"outputs": [
						{
							"internalType": "uint256",
							"name": "",
							"type": "uint256"
						}
					],
					"stateMutability": "view",
					"type": "function"
				},
				{
					"inputs": [
						{
							"internalType": "uint256",
							"name": "_amountEth",
							"type": "uint256"
						}
					],
					"name": "estimateERC20TokenToProvide",
					"outputs": [
						{
							"internalType": "uint256",
							"name": "_amountERC20",
							"type": "uint256"
						}
					],
					"stateMutability": "view",
					"type": "function"
				},
				{
					"inputs": [
						{
							"internalType": "uint256",
							"name": "_amountERC20Token",
							"type": "uint256"
						}
					],
					"name": "estimateEthToProvide",
					"outputs": [
						{
							"internalType": "uint256",
							"name": "_amountEth",
							"type": "uint256"
						}
					],
					"stateMutability": "view",
					"type": "function"
				},
				{
					"inputs": [
						{
							"internalType": "uint256",
							"name": "_amountEth",
							"type": "uint256"
						}
					],
					"name": "estimateSwapForERC20Token",
					"outputs": [
						{
							"internalType": "uint256",
							"name": "ERC20TokenToSend",
							"type": "uint256"
						}
					],
					"stateMutability": "view",
					"type": "function"
				},
				{
					"inputs": [
						{
							"internalType": "uint256",
							"name": "_amountERC20Token",
							"type": "uint256"
						}
					],
					"name": "estimateSwapForEth",
					"outputs": [
						{
							"internalType": "uint256",
							"name": "ethToSend",
							"type": "uint256"
						}
					],
					"stateMutability": "view",
					"type": "function"
				},
				{
					"inputs": [],
					"name": "getMyLiquidityPositions",
					"outputs": [
						{
							"internalType": "uint256",
							"name": "_liquidity",
							"type": "uint256"
						}
					],
					"stateMutability": "view",
					"type": "function"
				},
				{
					"inputs": [
						{
							"internalType": "uint256",
							"name": "_amountERC20Token",
							"type": "uint256"
						}
					],
					"name": "provideLiquidity",
					"outputs": [
						{
							"internalType": "uint256",
							"name": "_liquidity",
							"type": "uint256"
						}
					],
					"stateMutability": "payable",
					"type": "function"
				},
				{
					"inputs": [],
					"name": "swapForERC20Token",
					"outputs": [
						{
							"internalType": "uint256",
							"name": "ERC20TokenToSend",
							"type": "uint256"
						}
					],
					"stateMutability": "payable",
					"type": "function"
				},
				{
					"inputs": [
						{
							"internalType": "uint256",
							"name": "_amountERC20Token",
							"type": "uint256"
						}
					],
					"name": "swapForEth",
					"outputs": [
						{
							"internalType": "uint256",
							"name": "ethToSend",
							"type": "uint256"
						}
					],
					"stateMutability": "payable",
					"type": "function"
				},
				{
					"inputs": [
						{
							"internalType": "uint256",
							"name": "_liquidityPositionsToBurn",
							"type": "uint256"
						}
					],
					"name": "withdrawLiquidity",
					"outputs": [
						{
							"internalType": "uint256",
							"name": "amountEthToSend",
							"type": "uint256"
						},
						{
							"internalType": "uint256",
							"name": "amountERC20ToSend",
							"type": "uint256"
						}
					],
					"stateMutability": "payable",
					"type": "function"
				}
			],
			"devdoc": {
				"kind": "dev",
				"methods": {},
				"version": 1
			},
			"evm": {
				"assembly": "    /* \"Exchange.sol\":331:10613  contract Exchange{... */\n  mstore(0x40, 0x80)\n    /* \"Exchange.sol\":448:449  0 */\n  0x00\n    /* \"Exchange.sol\":415:449  uint contractERC20TokenBalance = 0 */\n  0x01\n  sstore\n    /* \"Exchange.sol\":541:542  0 */\n  0x00\n    /* \"Exchange.sol\":508:542  uint public contractEthBalance = 0 */\n  0x02\n  sstore\n    /* \"Exchange.sol\":578:579  0 */\n  0x00\n    /* \"Exchange.sol\":547:579  uint totalLiquidityPositions = 0 */\n  0x03\n  sstore\n    /* \"Exchange.sol\":600:601  0 */\n  0x00\n    /* \"Exchange.sol\":584:601  uint public K = 0 */\n  0x04\n  sstore\n    /* \"Exchange.sol\":1070:1075  false */\n  0x00\n    /* \"Exchange.sol\":1056:1075  bool locked = false */\n  0x06\n  exp(0x0100, 0x00)\n  dup2\n  sload\n  dup2\n  0xff\n  mul\n  not\n  and\n  swap1\n  dup4\n  iszero\n  iszero\n  mul\n  or\n  swap1\n  sstore\n  pop\n    /* \"Exchange.sol\":747:871  constructor(address adr){... */\n  callvalue\n  dup1\n  iszero\n  tag_1\n  jumpi\n  0x00\n  dup1\n  revert\ntag_1:\n  pop\n  mload(0x40)\n  sub(codesize, bytecodeSize)\n  dup1\n  bytecodeSize\n  dup4\n  codecopy\n  dup2\n  dup2\n  add\n  0x40\n  mstore\n  dup2\n  add\n  swap1\n  tag_2\n  swap2\n  swap1\n  tag_3\n  jump\t// in\ntag_2:\n    /* \"Exchange.sol\":780:808  address tokenContractAddress */\n  0x00\n    /* \"Exchange.sol\":811:814  adr */\n  dup2\n    /* \"Exchange.sol\":780:814  address tokenContractAddress = adr */\n  swap1\n  pop\n    /* \"Exchange.sol\":844:864  tokenContractAddress */\n  dup1\n    /* \"Exchange.sol\":823:834  ierc20Token */\n  0x00\n  dup1\n    /* \"Exchange.sol\":823:865  ierc20Token = IERC20(tokenContractAddress) */\n  0x0100\n  exp\n  dup2\n  sload\n  dup2\n  0xffffffffffffffffffffffffffffffffffffffff\n  mul\n  not\n  and\n  swap1\n  dup4\n  0xffffffffffffffffffffffffffffffffffffffff\n  and\n  mul\n  or\n  swap1\n  sstore\n  pop\n    /* \"Exchange.sol\":771:871  {... */\n  pop\n    /* \"Exchange.sol\":747:871  constructor(address adr){... */\n  pop\n    /* \"Exchange.sol\":331:10613  contract Exchange{... */\n  jump(tag_6)\n    /* \"#utility.yul\":7:150   */\ntag_8:\n    /* \"#utility.yul\":64:69   */\n  0x00\n    /* \"#utility.yul\":95:101   */\n  dup2\n    /* \"#utility.yul\":89:102   */\n  mload\n    /* \"#utility.yul\":80:102   */\n  swap1\n  pop\n    /* \"#utility.yul\":111:144   */\n  tag_10\n    /* \"#utility.yul\":138:143   */\n  dup2\n    /* \"#utility.yul\":111:144   */\n  tag_11\n  jump\t// in\ntag_10:\n    /* \"#utility.yul\":7:150   */\n  swap3\n  swap2\n  pop\n  pop\n  jump\t// out\n    /* \"#utility.yul\":156:507   */\ntag_3:\n    /* \"#utility.yul\":226:232   */\n  0x00\n    /* \"#utility.yul\":275:277   */\n  0x20\n    /* \"#utility.yul\":263:272   */\n  dup3\n    /* \"#utility.yul\":254:261   */\n  dup5\n    /* \"#utility.yul\":250:273   */\n  sub\n    /* \"#utility.yul\":246:278   */\n  slt\n    /* \"#utility.yul\":243:362   */\n  iszero\n  tag_13\n  jumpi\n    /* \"#utility.yul\":281:360   */\n  tag_14\n  tag_15\n  jump\t// in\ntag_14:\n    /* \"#utility.yul\":243:362   */\ntag_13:\n    /* \"#utility.yul\":401:402   */\n  0x00\n    /* \"#utility.yul\":426:490   */\n  tag_16\n    /* \"#utility.yul\":482:489   */\n  dup5\n    /* \"#utility.yul\":473:479   */\n  dup3\n    /* \"#utility.yul\":462:471   */\n  dup6\n    /* \"#utility.yul\":458:480   */\n  add\n    /* \"#utility.yul\":426:490   */\n  tag_8\n  jump\t// in\ntag_16:\n    /* \"#utility.yul\":416:490   */\n  swap2\n  pop\n    /* \"#utility.yul\":372:500   */\n  pop\n    /* \"#utility.yul\":156:507   */\n  swap3\n  swap2\n  pop\n  pop\n  jump\t// out\n    /* \"#utility.yul\":594:690   */\ntag_19:\n    /* \"#utility.yul\":631:638   */\n  0x00\n    /* \"#utility.yul\":660:684   */\n  tag_21\n    /* \"#utility.yul\":678:683   */\n  dup3\n    /* \"#utility.yul\":660:684   */\n  tag_22\n  jump\t// in\ntag_21:\n    /* \"#utility.yul\":649:684   */\n  swap1\n  pop\n    /* \"#utility.yul\":594:690   */\n  swap2\n  swap1\n  pop\n  jump\t// out\n    /* \"#utility.yul\":696:822   */\ntag_22:\n    /* \"#utility.yul\":733:740   */\n  0x00\n    /* \"#utility.yul\":773:815   */\n  0xffffffffffffffffffffffffffffffffffffffff\n    /* \"#utility.yul\":766:771   */\n  dup3\n    /* \"#utility.yul\":762:816   */\n  and\n    /* \"#utility.yul\":751:816   */\n  swap1\n  pop\n    /* \"#utility.yul\":696:822   */\n  swap2\n  swap1\n  pop\n  jump\t// out\n    /* \"#utility.yul\":951:1068   */\ntag_15:\n    /* \"#utility.yul\":1060:1061   */\n  0x00\n    /* \"#utility.yul\":1057:1058   */\n  dup1\n    /* \"#utility.yul\":1050:1062   */\n  revert\n    /* \"#utility.yul\":1074:1196   */\ntag_11:\n    /* \"#utility.yul\":1147:1171   */\n  tag_28\n    /* \"#utility.yul\":1165:1170   */\n  dup2\n    /* \"#utility.yul\":1147:1171   */\n  tag_19\n  jump\t// in\ntag_28:\n    /* \"#utility.yul\":1140:1145   */\n  dup2\n    /* \"#utility.yul\":1137:1172   */\n  eq\n    /* \"#utility.yul\":1127:1190   */\n  tag_29\n  jumpi\n    /* \"#utility.yul\":1186:1187   */\n  0x00\n    /* \"#utility.yul\":1183:1184   */\n  dup1\n    /* \"#utility.yul\":1176:1188   */\n  revert\n    /* \"#utility.yul\":1127:1190   */\ntag_29:\n    /* \"#utility.yul\":1074:1196   */\n  pop\n  jump\t// out\n    /* \"Exchange.sol\":331:10613  contract Exchange{... */\ntag_6:\n  dataSize(sub_0)\n  dup1\n  dataOffset(sub_0)\n  0x00\n  codecopy\n  0x00\n  return\nstop\n\nsub_0: assembly {\n        /* \"Exchange.sol\":331:10613  contract Exchange{... */\n      mstore(0x40, 0x80)\n      jumpi(tag_1, lt(calldatasize, 0x04))\n      shr(0xe0, calldataload(0x00))\n      dup1\n      0xa932492f\n      gt\n      tag_14\n      jumpi\n      dup1\n      0xa932492f\n      eq\n      tag_8\n      jumpi\n      dup1\n      0xbc23ae5e\n      eq\n      tag_9\n      jumpi\n      dup1\n      0xc8ab8325\n      eq\n      tag_10\n      jumpi\n      dup1\n      0xe0ba2000\n      eq\n      tag_11\n      jumpi\n      dup1\n      0xeb521a4c\n      eq\n      tag_12\n      jumpi\n      dup1\n      0xed7bf868\n      eq\n      tag_13\n      jumpi\n      jump(tag_1)\n    tag_14:\n      dup1\n      0x0a861f2a\n      eq\n      tag_2\n      jumpi\n      dup1\n      0x240f3dea\n      eq\n      tag_3\n      jumpi\n      dup1\n      0x29cbab3e\n      eq\n      tag_4\n      jumpi\n      dup1\n      0x5d58ce36\n      eq\n      tag_5\n      jumpi\n      dup1\n      0x79ed3562\n      eq\n      tag_6\n      jumpi\n      dup1\n      0x903875f7\n      eq\n      tag_7\n      jumpi\n    tag_1:\n      0x00\n      dup1\n      revert\n        /* \"Exchange.sol\":5302:6593  function withdrawLiquidity(uint _liquidityPositionsToBurn) public nonReentrancy payable returns (uint amountEthToSend, uint amountERC20ToSend){... */\n    tag_2:\n      tag_15\n      0x04\n      dup1\n      calldatasize\n      sub\n      dup2\n      add\n      swap1\n      tag_16\n      swap2\n      swap1\n      tag_17\n      jump\t// in\n    tag_16:\n      tag_18\n      jump\t// in\n    tag_15:\n      mload(0x40)\n      tag_19\n      swap3\n      swap2\n      swap1\n      tag_20\n      jump\t// in\n    tag_19:\n      mload(0x40)\n      dup1\n      swap2\n      sub\n      swap1\n      return\n        /* \"Exchange.sol\":3500:3840  function estimateEthToProvide(uint _amountERC20Token) external view returns (uint _amountEth) {... */\n    tag_3:\n      callvalue\n      dup1\n      iszero\n      tag_21\n      jumpi\n      0x00\n      dup1\n      revert\n    tag_21:\n      pop\n      tag_22\n      0x04\n      dup1\n      calldatasize\n      sub\n      dup2\n      add\n      swap1\n      tag_23\n      swap2\n      swap1\n      tag_17\n      jump\t// in\n    tag_23:\n      tag_24\n      jump\t// in\n    tag_22:\n      mload(0x40)\n      tag_25\n      swap2\n      swap1\n      tag_26\n      jump\t// in\n    tag_25:\n      mload(0x40)\n      dup1\n      swap2\n      sub\n      swap1\n      return\n        /* \"Exchange.sol\":8934:9588  function swapForERC20Token() external nonReentrancy payable returns (uint ERC20TokenToSend){... */\n    tag_4:\n      tag_27\n      tag_28\n      jump\t// in\n    tag_27:\n      mload(0x40)\n      tag_29\n      swap2\n      swap1\n      tag_26\n      jump\t// in\n    tag_29:\n      mload(0x40)\n      dup1\n      swap2\n      sub\n      swap1\n      return\n        /* \"Exchange.sol\":508:542  uint public contractEthBalance = 0 */\n    tag_5:\n      callvalue\n      dup1\n      iszero\n      tag_30\n      jumpi\n      0x00\n      dup1\n      revert\n    tag_30:\n      pop\n      tag_31\n      tag_32\n      jump\t// in\n    tag_31:\n      mload(0x40)\n      tag_33\n      swap2\n      swap1\n      tag_26\n      jump\t// in\n    tag_33:\n      mload(0x40)\n      dup1\n      swap2\n      sub\n      swap1\n      return\n        /* \"Exchange.sol\":9908:10297  function estimateSwapForERC20Token(uint _amountEth) external view returns (uint ERC20TokenToSend){... */\n    tag_6:\n      callvalue\n      dup1\n      iszero\n      tag_34\n      jumpi\n      0x00\n      dup1\n      revert\n    tag_34:\n      pop\n      tag_35\n      0x04\n      dup1\n      calldatasize\n      sub\n      dup2\n      add\n      swap1\n      tag_36\n      swap2\n      swap1\n      tag_17\n      jump\t// in\n    tag_36:\n      tag_37\n      jump\t// in\n    tag_35:\n      mload(0x40)\n      tag_38\n      swap2\n      swap1\n      tag_26\n      jump\t// in\n    tag_38:\n      mload(0x40)\n      dup1\n      swap2\n      sub\n      swap1\n      return\n        /* \"Exchange.sol\":8018:8509  function estimateSwapForEth(uint _amountERC20Token) external view returns (uint ethToSend){... */\n    tag_7:\n      callvalue\n      dup1\n      iszero\n      tag_39\n      jumpi\n      0x00\n      dup1\n      revert\n    tag_39:\n      pop\n      tag_40\n      0x04\n      dup1\n      calldatasize\n      sub\n      dup2\n      add\n      swap1\n      tag_41\n      swap2\n      swap1\n      tag_17\n      jump\t// in\n    tag_41:\n      tag_42\n      jump\t// in\n    tag_40:\n      mload(0x40)\n      tag_43\n      swap2\n      swap1\n      tag_26\n      jump\t// in\n    tag_43:\n      mload(0x40)\n      dup1\n      swap2\n      sub\n      swap1\n      return\n        /* \"Exchange.sol\":584:601  uint public K = 0 */\n    tag_8:\n      callvalue\n      dup1\n      iszero\n      tag_44\n      jumpi\n      0x00\n      dup1\n      revert\n    tag_44:\n      pop\n      tag_45\n      tag_46\n      jump\t// in\n    tag_45:\n      mload(0x40)\n      tag_47\n      swap2\n      swap1\n      tag_26\n      jump\t// in\n    tag_47:\n      mload(0x40)\n      dup1\n      swap2\n      sub\n      swap1\n      return\n        /* \"Exchange.sol\":10487:10611  function _ERC20TokenBalance() external view returns (uint) {... */\n    tag_9:\n      callvalue\n      dup1\n      iszero\n      tag_48\n      jumpi\n      0x00\n      dup1\n      revert\n    tag_48:\n      pop\n      tag_49\n      tag_50\n      jump\t// in\n    tag_49:\n      mload(0x40)\n      tag_51\n      swap2\n      swap1\n      tag_26\n      jump\t// in\n    tag_51:\n      mload(0x40)\n      dup1\n      swap2\n      sub\n      swap1\n      return\n        /* \"Exchange.sol\":6973:7690  function swapForEth(uint _amountERC20Token) public nonReentrancy payable returns (uint ethToSend) {... */\n    tag_10:\n      tag_52\n      0x04\n      dup1\n      calldatasize\n      sub\n      dup2\n      add\n      swap1\n      tag_53\n      swap2\n      swap1\n      tag_17\n      jump\t// in\n    tag_53:\n      tag_54\n      jump\t// in\n    tag_52:\n      mload(0x40)\n      tag_55\n      swap2\n      swap1\n      tag_26\n      jump\t// in\n    tag_55:\n      mload(0x40)\n      dup1\n      swap2\n      sub\n      swap1\n      return\n        /* \"Exchange.sol\":4588:4714  function getMyLiquidityPositions() external view returns(uint _liquidity) {... */\n    tag_11:\n      callvalue\n      dup1\n      iszero\n      tag_56\n      jumpi\n      0x00\n      dup1\n      revert\n    tag_56:\n      pop\n      tag_57\n      tag_58\n      jump\t// in\n    tag_57:\n      mload(0x40)\n      tag_59\n      swap2\n      swap1\n      tag_26\n      jump\t// in\n    tag_59:\n      mload(0x40)\n      dup1\n      swap2\n      sub\n      swap1\n      return\n        /* \"Exchange.sol\":1801:3154  function provideLiquidity(uint _amountERC20Token) external nonReentrancy payable returns(uint _liquidity){... */\n    tag_12:\n      tag_60\n      0x04\n      dup1\n      calldatasize\n      sub\n      dup2\n      add\n      swap1\n      tag_61\n      swap2\n      swap1\n      tag_17\n      jump\t// in\n    tag_61:\n      tag_62\n      jump\t// in\n    tag_60:\n      mload(0x40)\n      tag_63\n      swap2\n      swap1\n      tag_26\n      jump\t// in\n    tag_63:\n      mload(0x40)\n      dup1\n      swap2\n      sub\n      swap1\n      return\n        /* \"Exchange.sol\":4179:4395  function estimateERC20TokenToProvide(uint _amountEth) external view returns(uint _amountERC20){... */\n    tag_13:\n      callvalue\n      dup1\n      iszero\n      tag_64\n      jumpi\n      0x00\n      dup1\n      revert\n    tag_64:\n      pop\n      tag_65\n      0x04\n      dup1\n      calldatasize\n      sub\n      dup2\n      add\n      swap1\n      tag_66\n      swap2\n      swap1\n      tag_17\n      jump\t// in\n    tag_66:\n      tag_67\n      jump\t// in\n    tag_65:\n      mload(0x40)\n      tag_68\n      swap2\n      swap1\n      tag_26\n      jump\t// in\n    tag_68:\n      mload(0x40)\n      dup1\n      swap2\n      sub\n      swap1\n      return\n        /* \"Exchange.sol\":5302:6593  function withdrawLiquidity(uint _liquidityPositionsToBurn) public nonReentrancy payable returns (uint amountEthToSend, uint amountERC20ToSend){... */\n    tag_18:\n        /* \"Exchange.sol\":5399:5419  uint amountEthToSend */\n      0x00\n        /* \"Exchange.sol\":5421:5443  uint amountERC20ToSend */\n      dup1\n        /* \"Exchange.sol\":1121:1127  locked */\n      0x06\n      0x00\n      swap1\n      sload\n      swap1\n      0x0100\n      exp\n      swap1\n      div\n      0xff\n      and\n        /* \"Exchange.sol\":1120:1127  !locked */\n      iszero\n        /* \"Exchange.sol\":1111:1143  require (!locked, \"No re-entry\") */\n      tag_70\n      jumpi\n      mload(0x40)\n      0x08c379a000000000000000000000000000000000000000000000000000000000\n      dup2\n      mstore\n      0x04\n      add\n      tag_71\n      swap1\n      tag_72\n      jump\t// in\n    tag_71:\n      mload(0x40)\n      dup1\n      swap2\n      sub\n      swap1\n      revert\n    tag_70:\n        /* \"Exchange.sol\":1161:1165  true */\n      0x01\n        /* \"Exchange.sol\":1152:1158  locked */\n      0x06\n      0x00\n        /* \"Exchange.sol\":1152:1165  locked = true */\n      0x0100\n      exp\n      dup2\n      sload\n      dup2\n      0xff\n      mul\n      not\n      and\n      swap1\n      dup4\n      iszero\n      iszero\n      mul\n      or\n      swap1\n      sstore\n      pop\n        /* \"Exchange.sol\":5486:5504  liquidityPositions */\n      0x05\n        /* \"Exchange.sol\":5486:5516  liquidityPositions[msg.sender] */\n      0x00\n        /* \"Exchange.sol\":5505:5515  msg.sender */\n      caller\n        /* \"Exchange.sol\":5486:5516  liquidityPositions[msg.sender] */\n      0xffffffffffffffffffffffffffffffffffffffff\n      and\n      0xffffffffffffffffffffffffffffffffffffffff\n      and\n      dup2\n      mstore\n      0x20\n      add\n      swap1\n      dup2\n      mstore\n      0x20\n      add\n      0x00\n      keccak256\n      sload\n        /* \"Exchange.sol\":5457:5482  _liquidityPositionsToBurn */\n      dup4\n        /* \"Exchange.sol\":5457:5516  _liquidityPositionsToBurn <= liquidityPositions[msg.sender] */\n      gt\n      iszero\n        /* \"Exchange.sol\":5457:5577  _liquidityPositionsToBurn <= liquidityPositions[msg.sender] &&  totalLiquidityPositions - _liquidityPositionsToBurn >= 0 */\n      dup1\n      iszero\n      tag_74\n      jumpi\n      pop\n        /* \"Exchange.sol\":5576:5577  0 */\n      0x00\n        /* \"Exchange.sol\":5547:5572  _liquidityPositionsToBurn */\n      dup4\n        /* \"Exchange.sol\":5521:5544  totalLiquidityPositions */\n      sload(0x03)\n        /* \"Exchange.sol\":5521:5572  totalLiquidityPositions - _liquidityPositionsToBurn */\n      tag_75\n      swap2\n      swap1\n      tag_76\n      jump\t// in\n    tag_75:\n        /* \"Exchange.sol\":5521:5577  totalLiquidityPositions - _liquidityPositionsToBurn >= 0 */\n      lt\n      iszero\n        /* \"Exchange.sol\":5457:5577  _liquidityPositionsToBurn <= liquidityPositions[msg.sender] &&  totalLiquidityPositions - _liquidityPositionsToBurn >= 0 */\n    tag_74:\n        /* \"Exchange.sol\":5453:6383  if (_liquidityPositionsToBurn <= liquidityPositions[msg.sender] &&  totalLiquidityPositions - _liquidityPositionsToBurn >= 0 ){... */\n      iszero\n      tag_77\n      jumpi\n        /* \"Exchange.sol\":5659:5682  totalLiquidityPositions */\n      sload(0x03)\n        /* \"Exchange.sol\":5638:5656  contractEthBalance */\n      sload(0x02)\n        /* \"Exchange.sol\":5610:5635  _liquidityPositionsToBurn */\n      dup5\n        /* \"Exchange.sol\":5610:5656  _liquidityPositionsToBurn * contractEthBalance */\n      tag_78\n      swap2\n      swap1\n      tag_79\n      jump\t// in\n    tag_78:\n        /* \"Exchange.sol\":5610:5682  _liquidityPositionsToBurn * contractEthBalance / totalLiquidityPositions */\n      tag_80\n      swap2\n      swap1\n      tag_81\n      jump\t// in\n    tag_80:\n        /* \"Exchange.sol\":5592:5682  amountEthToSend = _liquidityPositionsToBurn * contractEthBalance / totalLiquidityPositions */\n      swap2\n      pop\n        /* \"Exchange.sol\":5771:5794  totalLiquidityPositions */\n      sload(0x03)\n        /* \"Exchange.sol\":5743:5768  contractERC20TokenBalance */\n      sload(0x01)\n        /* \"Exchange.sol\":5715:5740  _liquidityPositionsToBurn */\n      dup5\n        /* \"Exchange.sol\":5715:5768  _liquidityPositionsToBurn * contractERC20TokenBalance */\n      tag_82\n      swap2\n      swap1\n      tag_79\n      jump\t// in\n    tag_82:\n        /* \"Exchange.sol\":5715:5794  _liquidityPositionsToBurn * contractERC20TokenBalance / totalLiquidityPositions */\n      tag_83\n      swap2\n      swap1\n      tag_81\n      jump\t// in\n    tag_83:\n        /* \"Exchange.sol\":5695:5794  amountERC20ToSend = _liquidityPositionsToBurn * contractERC20TokenBalance / totalLiquidityPositions */\n      swap1\n      pop\n        /* \"Exchange.sol\":5841:5866  _liquidityPositionsToBurn */\n      dup3\n        /* \"Exchange.sol\":5807:5825  liquidityPositions */\n      0x05\n        /* \"Exchange.sol\":5807:5837  liquidityPositions[msg.sender] */\n      0x00\n        /* \"Exchange.sol\":5826:5836  msg.sender */\n      caller\n        /* \"Exchange.sol\":5807:5837  liquidityPositions[msg.sender] */\n      0xffffffffffffffffffffffffffffffffffffffff\n      and\n      0xffffffffffffffffffffffffffffffffffffffff\n      and\n      dup2\n      mstore\n      0x20\n      add\n      swap1\n      dup2\n      mstore\n      0x20\n      add\n      0x00\n      keccak256\n      0x00\n        /* \"Exchange.sol\":5807:5866  liquidityPositions[msg.sender] -= _liquidityPositionsToBurn */\n      dup3\n      dup3\n      sload\n      tag_84\n      swap2\n      swap1\n      tag_76\n      jump\t// in\n    tag_84:\n      swap3\n      pop\n      pop\n      dup2\n      swap1\n      sstore\n      pop\n        /* \"Exchange.sol\":5906:5931  _liquidityPositionsToBurn */\n      dup3\n        /* \"Exchange.sol\":5879:5902  totalLiquidityPositions */\n      0x03\n      0x00\n        /* \"Exchange.sol\":5879:5931  totalLiquidityPositions -= _liquidityPositionsToBurn */\n      dup3\n      dup3\n      sload\n      tag_85\n      swap2\n      swap1\n      tag_76\n      jump\t// in\n    tag_85:\n      swap3\n      pop\n      pop\n      dup2\n      swap1\n      sstore\n      pop\n        /* \"Exchange.sol\":5944:5968  address payable reciever */\n      0x00\n        /* \"Exchange.sol\":5979:5989  msg.sender */\n      caller\n        /* \"Exchange.sol\":5944:5990  address payable reciever = payable(msg.sender) */\n      swap1\n      pop\n        /* \"Exchange.sol\":6003:6011  reciever */\n      dup1\n        /* \"Exchange.sol\":6003:6020  reciever.transfer */\n      0xffffffffffffffffffffffffffffffffffffffff\n      and\n        /* \"Exchange.sol\":6003:6037  reciever.transfer(amountEthToSend) */\n      0x08fc\n        /* \"Exchange.sol\":6021:6036  amountEthToSend */\n      dup5\n        /* \"Exchange.sol\":6003:6037  reciever.transfer(amountEthToSend) */\n      swap1\n      dup2\n      iszero\n      mul\n      swap1\n      mload(0x40)\n      0x00\n      mload(0x40)\n      dup1\n      dup4\n      sub\n      dup2\n      dup6\n      dup9\n      dup9\n      call\n      swap4\n      pop\n      pop\n      pop\n      pop\n      iszero\n      dup1\n      iszero\n      tag_87\n      jumpi\n      returndatasize\n      0x00\n      dup1\n      returndatacopy\n      revert(0x00, returndatasize)\n    tag_87:\n      pop\n        /* \"Exchange.sol\":6072:6087  amountEthToSend */\n      dup3\n        /* \"Exchange.sol\":6050:6068  contractEthBalance */\n      0x02\n      0x00\n        /* \"Exchange.sol\":6050:6087  contractEthBalance -= amountEthToSend */\n      dup3\n      dup3\n      sload\n      tag_88\n      swap2\n      swap1\n      tag_76\n      jump\t// in\n    tag_88:\n      swap3\n      pop\n      pop\n      dup2\n      swap1\n      sstore\n      pop\n        /* \"Exchange.sol\":6100:6111  ierc20Token */\n      0x00\n      dup1\n      sload\n      swap1\n      0x0100\n      exp\n      swap1\n      div\n      0xffffffffffffffffffffffffffffffffffffffff\n      and\n        /* \"Exchange.sol\":6100:6119  ierc20Token.approve */\n      0xffffffffffffffffffffffffffffffffffffffff\n      and\n      0x095ea7b3\n        /* \"Exchange.sol\":6128:6132  this */\n      address\n        /* \"Exchange.sol\":6135:6152  amountERC20ToSend */\n      dup5\n        /* \"Exchange.sol\":6100:6153  ierc20Token.approve(address(this), amountERC20ToSend) */\n      mload(0x40)\n      dup4\n      0xffffffff\n      and\n      0xe0\n      shl\n      dup2\n      mstore\n      0x04\n      add\n      tag_89\n      swap3\n      swap2\n      swap1\n      tag_90\n      jump\t// in\n    tag_89:\n      0x20\n      mload(0x40)\n      dup1\n      dup4\n      sub\n      dup2\n      0x00\n      dup8\n      dup1\n      extcodesize\n      iszero\n      dup1\n      iszero\n      tag_91\n      jumpi\n      0x00\n      dup1\n      revert\n    tag_91:\n      pop\n      gas\n      call\n      iszero\n      dup1\n      iszero\n      tag_93\n      jumpi\n      returndatasize\n      0x00\n      dup1\n      returndatacopy\n      revert(0x00, returndatasize)\n    tag_93:\n      pop\n      pop\n      pop\n      pop\n      mload(0x40)\n      returndatasize\n      not(0x1f)\n      0x1f\n      dup3\n      add\n      and\n      dup3\n      add\n      dup1\n      0x40\n      mstore\n      pop\n      dup2\n      add\n      swap1\n      tag_94\n      swap2\n      swap1\n      tag_95\n      jump\t// in\n    tag_94:\n      pop\n        /* \"Exchange.sol\":6166:6177  ierc20Token */\n      0x00\n      dup1\n      sload\n      swap1\n      0x0100\n      exp\n      swap1\n      div\n      0xffffffffffffffffffffffffffffffffffffffff\n      and\n        /* \"Exchange.sol\":6166:6190  ierc20Token.transferFrom */\n      0xffffffffffffffffffffffffffffffffffffffff\n      and\n      0x23b872dd\n        /* \"Exchange.sol\":6199:6203  this */\n      address\n        /* \"Exchange.sol\":6206:6214  reciever */\n      dup4\n        /* \"Exchange.sol\":6216:6233  amountERC20ToSend */\n      dup6\n        /* \"Exchange.sol\":6166:6234  ierc20Token.transferFrom(address(this), reciever, amountERC20ToSend) */\n      mload(0x40)\n      dup5\n      0xffffffff\n      and\n      0xe0\n      shl\n      dup2\n      mstore\n      0x04\n      add\n      tag_96\n      swap4\n      swap3\n      swap2\n      swap1\n      tag_97\n      jump\t// in\n    tag_96:\n      0x20\n      mload(0x40)\n      dup1\n      dup4\n      sub\n      dup2\n      0x00\n      dup8\n      dup1\n      extcodesize\n      iszero\n      dup1\n      iszero\n      tag_98\n      jumpi\n      0x00\n      dup1\n      revert\n    tag_98:\n      pop\n      gas\n      call\n      iszero\n      dup1\n      iszero\n      tag_100\n      jumpi\n      returndatasize\n      0x00\n      dup1\n      returndatacopy\n      revert(0x00, returndatasize)\n    tag_100:\n      pop\n      pop\n      pop\n      pop\n      mload(0x40)\n      returndatasize\n      not(0x1f)\n      0x1f\n      dup3\n      add\n      and\n      dup3\n      add\n      dup1\n      0x40\n      mstore\n      pop\n      dup2\n      add\n      swap1\n      tag_101\n      swap2\n      swap1\n      tag_95\n      jump\t// in\n    tag_101:\n      pop\n        /* \"Exchange.sol\":6276:6293  amountERC20ToSend */\n      dup2\n        /* \"Exchange.sol\":6247:6272  contractERC20TokenBalance */\n      0x01\n      0x00\n        /* \"Exchange.sol\":6247:6293  contractERC20TokenBalance -= amountERC20ToSend */\n      dup3\n      dup3\n      sload\n      tag_102\n      swap2\n      swap1\n      tag_76\n      jump\t// in\n    tag_102:\n      swap3\n      pop\n      pop\n      dup2\n      swap1\n      sstore\n      pop\n        /* \"Exchange.sol\":5579:6303  {... */\n      pop\n        /* \"Exchange.sol\":5453:6383  if (_liquidityPositionsToBurn <= liquidityPositions[msg.sender] &&  totalLiquidityPositions - _liquidityPositionsToBurn >= 0 ){... */\n      jump(tag_103)\n    tag_77:\n        /* \"Exchange.sol\":6338:6339  0 */\n      0x00\n        /* \"Exchange.sol\":6320:6339  amountEthToSend = 0 */\n      swap2\n      pop\n        /* \"Exchange.sol\":6372:6373  0 */\n      0x00\n        /* \"Exchange.sol\":6352:6373  amountERC20ToSend = 0 */\n      swap1\n      pop\n        /* \"Exchange.sol\":5453:6383  if (_liquidityPositionsToBurn <= liquidityPositions[msg.sender] &&  totalLiquidityPositions - _liquidityPositionsToBurn >= 0 ){... */\n    tag_103:\n        /* \"Exchange.sol\":6416:6441  contractERC20TokenBalance */\n      sload(0x01)\n        /* \"Exchange.sol\":6395:6413  contractEthBalance */\n      sload(0x02)\n        /* \"Exchange.sol\":6395:6441  contractEthBalance * contractERC20TokenBalance */\n      tag_104\n      swap2\n      swap1\n      tag_79\n      jump\t// in\n    tag_104:\n        /* \"Exchange.sol\":6391:6392  K */\n      0x04\n        /* \"Exchange.sol\":6391:6441  K = contractEthBalance * contractERC20TokenBalance */\n      dup2\n      swap1\n      sstore\n      pop\n        /* \"Exchange.sol\":6455:6535  LiquidityWithdrew(amountERC20ToSend, amountEthToSend, _liquidityPositionsToBurn) */\n      0xb14f451e613015c13a17c78777f1d87fcb448d7330d67299a09b8f2db38aab10\n        /* \"Exchange.sol\":6473:6490  amountERC20ToSend */\n      dup2\n        /* \"Exchange.sol\":6492:6507  amountEthToSend */\n      dup4\n        /* \"Exchange.sol\":6509:6534  _liquidityPositionsToBurn */\n      dup6\n        /* \"Exchange.sol\":6455:6535  LiquidityWithdrew(amountERC20ToSend, amountEthToSend, _liquidityPositionsToBurn) */\n      mload(0x40)\n      tag_105\n      swap4\n      swap3\n      swap2\n      swap1\n      tag_106\n      jump\t// in\n    tag_105:\n      mload(0x40)\n      dup1\n      swap2\n      sub\n      swap1\n      log1\n        /* \"Exchange.sol\":1193:1198  false */\n      0x00\n        /* \"Exchange.sol\":1184:1190  locked */\n      0x06\n      0x00\n        /* \"Exchange.sol\":1184:1198  locked = false */\n      0x0100\n      exp\n      dup2\n      sload\n      dup2\n      0xff\n      mul\n      not\n      and\n      swap1\n      dup4\n      iszero\n      iszero\n      mul\n      or\n      swap1\n      sstore\n      pop\n        /* \"Exchange.sol\":5302:6593  function withdrawLiquidity(uint _liquidityPositionsToBurn) public nonReentrancy payable returns (uint amountEthToSend, uint amountERC20ToSend){... */\n      swap2\n      pop\n      swap2\n      jump\t// out\n        /* \"Exchange.sol\":3500:3840  function estimateEthToProvide(uint _amountERC20Token) external view returns (uint _amountEth) {... */\n    tag_24:\n        /* \"Exchange.sol\":3577:3592  uint _amountEth */\n      0x00\n        /* \"Exchange.sol\":3715:3719  1e18 */\n      0x0de0b6b3a7640000\n        /* \"Exchange.sol\":3695:3712  _amountERC20Token */\n      dup3\n        /* \"Exchange.sol\":3695:3719  _amountERC20Token * 1e18 */\n      tag_108\n      swap2\n      swap1\n      tag_79\n      jump\t// in\n    tag_108:\n        /* \"Exchange.sol\":3675:3719  _amountERC20Token = _amountERC20Token * 1e18 */\n      swap2\n      pop\n        /* \"Exchange.sol\":3783:3808  contractERC20TokenBalance */\n      sload(0x01)\n        /* \"Exchange.sol\":3763:3780  _amountERC20Token */\n      dup3\n        /* \"Exchange.sol\":3742:3760  contractEthBalance */\n      sload(0x02)\n        /* \"Exchange.sol\":3742:3780  contractEthBalance * _amountERC20Token */\n      tag_109\n      swap2\n      swap1\n      tag_79\n      jump\t// in\n    tag_109:\n        /* \"Exchange.sol\":3742:3808  contractEthBalance * _amountERC20Token / contractERC20TokenBalance */\n      tag_110\n      swap2\n      swap1\n      tag_81\n      jump\t// in\n    tag_110:\n        /* \"Exchange.sol\":3729:3808  _amountEth = contractEthBalance * _amountERC20Token / contractERC20TokenBalance */\n      swap1\n      pop\n        /* \"Exchange.sol\":3500:3840  function estimateEthToProvide(uint _amountERC20Token) external view returns (uint _amountEth) {... */\n      swap2\n      swap1\n      pop\n      jump\t// out\n        /* \"Exchange.sol\":8934:9588  function swapForERC20Token() external nonReentrancy payable returns (uint ERC20TokenToSend){... */\n    tag_28:\n        /* \"Exchange.sol\":9003:9024  uint ERC20TokenToSend */\n      0x00\n        /* \"Exchange.sol\":1121:1127  locked */\n      0x06\n      0x00\n      swap1\n      sload\n      swap1\n      0x0100\n      exp\n      swap1\n      div\n      0xff\n      and\n        /* \"Exchange.sol\":1120:1127  !locked */\n      iszero\n        /* \"Exchange.sol\":1111:1143  require (!locked, \"No re-entry\") */\n      tag_112\n      jumpi\n      mload(0x40)\n      0x08c379a000000000000000000000000000000000000000000000000000000000\n      dup2\n      mstore\n      0x04\n      add\n      tag_113\n      swap1\n      tag_72\n      jump\t// in\n    tag_113:\n      mload(0x40)\n      dup1\n      swap2\n      sub\n      swap1\n      revert\n    tag_112:\n        /* \"Exchange.sol\":1161:1165  true */\n      0x01\n        /* \"Exchange.sol\":1152:1158  locked */\n      0x06\n      0x00\n        /* \"Exchange.sol\":1152:1165  locked = true */\n      0x0100\n      exp\n      dup2\n      sload\n      dup2\n      0xff\n      mul\n      not\n      and\n      swap1\n      dup4\n      iszero\n      iszero\n      mul\n      or\n      swap1\n      sstore\n      pop\n        /* \"Exchange.sol\":9056:9065  msg.value */\n      callvalue\n        /* \"Exchange.sol\":9034:9052  contractEthBalance */\n      0x02\n      0x00\n        /* \"Exchange.sol\":9034:9065  contractEthBalance += msg.value */\n      dup3\n      dup3\n      sload\n      tag_115\n      swap2\n      swap1\n      tag_116\n      jump\t// in\n    tag_115:\n      swap3\n      pop\n      pop\n      dup2\n      swap1\n      sstore\n      pop\n        /* \"Exchange.sol\":9074:9113  uint contractERC20TokenBalanceAfterSwap */\n      0x00\n        /* \"Exchange.sol\":9120:9138  contractEthBalance */\n      sload(0x02)\n        /* \"Exchange.sol\":9116:9117  K */\n      sload(0x04)\n        /* \"Exchange.sol\":9116:9138  K / contractEthBalance */\n      tag_117\n      swap2\n      swap1\n      tag_81\n      jump\t// in\n    tag_117:\n        /* \"Exchange.sol\":9074:9138  uint contractERC20TokenBalanceAfterSwap = K / contractEthBalance */\n      swap1\n      pop\n        /* \"Exchange.sol\":9194:9228  contractERC20TokenBalanceAfterSwap */\n      dup1\n        /* \"Exchange.sol\":9166:9191  contractERC20TokenBalance */\n      sload(0x01)\n        /* \"Exchange.sol\":9166:9228  contractERC20TokenBalance - contractERC20TokenBalanceAfterSwap */\n      tag_118\n      swap2\n      swap1\n      tag_76\n      jump\t// in\n    tag_118:\n        /* \"Exchange.sol\":9147:9228  ERC20TokenToSend = contractERC20TokenBalance - contractERC20TokenBalanceAfterSwap */\n      swap2\n      pop\n        /* \"Exchange.sol\":9237:9261  address payable reciever */\n      0x00\n        /* \"Exchange.sol\":9272:9282  msg.sender */\n      caller\n        /* \"Exchange.sol\":9237:9283  address payable reciever = payable(msg.sender) */\n      swap1\n      pop\n        /* \"Exchange.sol\":9292:9303  ierc20Token */\n      0x00\n      dup1\n      sload\n      swap1\n      0x0100\n      exp\n      swap1\n      div\n      0xffffffffffffffffffffffffffffffffffffffff\n      and\n        /* \"Exchange.sol\":9292:9311  ierc20Token.approve */\n      0xffffffffffffffffffffffffffffffffffffffff\n      and\n      0x095ea7b3\n        /* \"Exchange.sol\":9320:9324  this */\n      address\n        /* \"Exchange.sol\":9327:9343  ERC20TokenToSend */\n      dup6\n        /* \"Exchange.sol\":9292:9344  ierc20Token.approve(address(this), ERC20TokenToSend) */\n      mload(0x40)\n      dup4\n      0xffffffff\n      and\n      0xe0\n      shl\n      dup2\n      mstore\n      0x04\n      add\n      tag_119\n      swap3\n      swap2\n      swap1\n      tag_90\n      jump\t// in\n    tag_119:\n      0x20\n      mload(0x40)\n      dup1\n      dup4\n      sub\n      dup2\n      0x00\n      dup8\n      dup1\n      extcodesize\n      iszero\n      dup1\n      iszero\n      tag_120\n      jumpi\n      0x00\n      dup1\n      revert\n    tag_120:\n      pop\n      gas\n      call\n      iszero\n      dup1\n      iszero\n      tag_122\n      jumpi\n      returndatasize\n      0x00\n      dup1\n      returndatacopy\n      revert(0x00, returndatasize)\n    tag_122:\n      pop\n      pop\n      pop\n      pop\n      mload(0x40)\n      returndatasize\n      not(0x1f)\n      0x1f\n      dup3\n      add\n      and\n      dup3\n      add\n      dup1\n      0x40\n      mstore\n      pop\n      dup2\n      add\n      swap1\n      tag_123\n      swap2\n      swap1\n      tag_95\n      jump\t// in\n    tag_123:\n      pop\n        /* \"Exchange.sol\":9353:9364  ierc20Token */\n      0x00\n      dup1\n      sload\n      swap1\n      0x0100\n      exp\n      swap1\n      div\n      0xffffffffffffffffffffffffffffffffffffffff\n      and\n        /* \"Exchange.sol\":9353:9377  ierc20Token.transferFrom */\n      0xffffffffffffffffffffffffffffffffffffffff\n      and\n      0x23b872dd\n        /* \"Exchange.sol\":9386:9390  this */\n      address\n        /* \"Exchange.sol\":9393:9401  reciever */\n      dup4\n        /* \"Exchange.sol\":9403:9419  ERC20TokenToSend */\n      dup7\n        /* \"Exchange.sol\":9353:9420  ierc20Token.transferFrom(address(this), reciever, ERC20TokenToSend) */\n      mload(0x40)\n      dup5\n      0xffffffff\n      and\n      0xe0\n      shl\n      dup2\n      mstore\n      0x04\n      add\n      tag_124\n      swap4\n      swap3\n      swap2\n      swap1\n      tag_97\n      jump\t// in\n    tag_124:\n      0x20\n      mload(0x40)\n      dup1\n      dup4\n      sub\n      dup2\n      0x00\n      dup8\n      dup1\n      extcodesize\n      iszero\n      dup1\n      iszero\n      tag_125\n      jumpi\n      0x00\n      dup1\n      revert\n    tag_125:\n      pop\n      gas\n      call\n      iszero\n      dup1\n      iszero\n      tag_127\n      jumpi\n      returndatasize\n      0x00\n      dup1\n      returndatacopy\n      revert(0x00, returndatasize)\n    tag_127:\n      pop\n      pop\n      pop\n      pop\n      mload(0x40)\n      returndatasize\n      not(0x1f)\n      0x1f\n      dup3\n      add\n      and\n      dup3\n      add\n      dup1\n      0x40\n      mstore\n      pop\n      dup2\n      add\n      swap1\n      tag_128\n      swap2\n      swap1\n      tag_95\n      jump\t// in\n    tag_128:\n      pop\n        /* \"Exchange.sol\":9457:9491  contractERC20TokenBalanceAfterSwap */\n      dup2\n        /* \"Exchange.sol\":9429:9454  contractERC20TokenBalance */\n      0x01\n        /* \"Exchange.sol\":9429:9491  contractERC20TokenBalance = contractERC20TokenBalanceAfterSwap */\n      dup2\n      swap1\n      sstore\n      pop\n        /* \"Exchange.sol\":9505:9550  SwapForERC20Token(ERC20TokenToSend,msg.value) */\n      0xcdfc57b3d0cdc24b23cea1f480aabea287321f5bee23ad76c2b52fa7982f5ea5\n        /* \"Exchange.sol\":9523:9539  ERC20TokenToSend */\n      dup4\n        /* \"Exchange.sol\":9540:9549  msg.value */\n      callvalue\n        /* \"Exchange.sol\":9505:9550  SwapForERC20Token(ERC20TokenToSend,msg.value) */\n      mload(0x40)\n      tag_129\n      swap3\n      swap2\n      swap1\n      tag_20\n      jump\t// in\n    tag_129:\n      mload(0x40)\n      dup1\n      swap2\n      sub\n      swap1\n      log1\n        /* \"Exchange.sol\":9559:9582  return ERC20TokenToSend */\n      pop\n      pop\n        /* \"Exchange.sol\":1193:1198  false */\n      0x00\n        /* \"Exchange.sol\":1184:1190  locked */\n      0x06\n      0x00\n        /* \"Exchange.sol\":1184:1198  locked = false */\n      0x0100\n      exp\n      dup2\n      sload\n      dup2\n      0xff\n      mul\n      not\n      and\n      swap1\n      dup4\n      iszero\n      iszero\n      mul\n      or\n      swap1\n      sstore\n      pop\n        /* \"Exchange.sol\":8934:9588  function swapForERC20Token() external nonReentrancy payable returns (uint ERC20TokenToSend){... */\n      swap1\n      jump\t// out\n        /* \"Exchange.sol\":508:542  uint public contractEthBalance = 0 */\n    tag_32:\n      sload(0x02)\n      dup2\n      jump\t// out\n        /* \"Exchange.sol\":9908:10297  function estimateSwapForERC20Token(uint _amountEth) external view returns (uint ERC20TokenToSend){... */\n    tag_37:\n        /* \"Exchange.sol\":9983:10004  uint ERC20TokenToSend */\n      0x00\n        /* \"Exchange.sol\":10014:10046  uint estimatedContractEthBalance */\n      dup1\n        /* \"Exchange.sol\":10070:10080  _amountEth */\n      dup3\n        /* \"Exchange.sol\":10049:10067  contractEthBalance */\n      sload(0x02)\n        /* \"Exchange.sol\":10049:10080  contractEthBalance + _amountEth */\n      tag_131\n      swap2\n      swap1\n      tag_116\n      jump\t// in\n    tag_131:\n        /* \"Exchange.sol\":10014:10080  uint estimatedContractEthBalance = contractEthBalance + _amountEth */\n      swap1\n      pop\n        /* \"Exchange.sol\":10089:10128  uint contractERC20TokenBalanceAfterSwap */\n      0x00\n        /* \"Exchange.sol\":10135:10162  estimatedContractEthBalance */\n      dup2\n        /* \"Exchange.sol\":10131:10132  K */\n      sload(0x04)\n        /* \"Exchange.sol\":10131:10162  K / estimatedContractEthBalance */\n      tag_132\n      swap2\n      swap1\n      tag_81\n      jump\t// in\n    tag_132:\n        /* \"Exchange.sol\":10089:10162  uint contractERC20TokenBalanceAfterSwap = K / estimatedContractEthBalance */\n      swap1\n      pop\n        /* \"Exchange.sol\":10218:10252  contractERC20TokenBalanceAfterSwap */\n      dup1\n        /* \"Exchange.sol\":10190:10215  contractERC20TokenBalance */\n      sload(0x01)\n        /* \"Exchange.sol\":10190:10252  contractERC20TokenBalance - contractERC20TokenBalanceAfterSwap */\n      tag_133\n      swap2\n      swap1\n      tag_76\n      jump\t// in\n    tag_133:\n        /* \"Exchange.sol\":10171:10252  ERC20TokenToSend = contractERC20TokenBalance - contractERC20TokenBalanceAfterSwap */\n      swap3\n      pop\n        /* \"Exchange.sol\":10286:10290  1e19 */\n      0x8ac7230489e80000\n        /* \"Exchange.sol\":10269:10285  ERC20TokenToSend */\n      dup4\n        /* \"Exchange.sol\":10269:10290  ERC20TokenToSend/1e19 */\n      tag_134\n      swap2\n      swap1\n      tag_81\n      jump\t// in\n    tag_134:\n        /* \"Exchange.sol\":10261:10291  return (ERC20TokenToSend/1e19) */\n      swap3\n      pop\n      pop\n      pop\n        /* \"Exchange.sol\":9908:10297  function estimateSwapForERC20Token(uint _amountEth) external view returns (uint ERC20TokenToSend){... */\n      swap2\n      swap1\n      pop\n      jump\t// out\n        /* \"Exchange.sol\":8018:8509  function estimateSwapForEth(uint _amountERC20Token) external view returns (uint ethToSend){... */\n    tag_42:\n        /* \"Exchange.sol\":8093:8107  uint ethToSend */\n      0x00\n        /* \"Exchange.sol\":8229:8233  1e18 */\n      0x0de0b6b3a7640000\n        /* \"Exchange.sol\":8209:8226  _amountERC20Token */\n      dup3\n        /* \"Exchange.sol\":8209:8233  _amountERC20Token * 1e18 */\n      tag_136\n      swap2\n      swap1\n      tag_79\n      jump\t// in\n    tag_136:\n        /* \"Exchange.sol\":8189:8233  _amountERC20Token = _amountERC20Token * 1e18 */\n      swap2\n      pop\n        /* \"Exchange.sol\":8250:8284  uint estimatedContractERC20Balance */\n      0x00\n        /* \"Exchange.sol\":8315:8332  _amountERC20Token */\n      dup3\n        /* \"Exchange.sol\":8287:8312  contractERC20TokenBalance */\n      sload(0x01)\n        /* \"Exchange.sol\":8287:8332  contractERC20TokenBalance + _amountERC20Token */\n      tag_137\n      swap2\n      swap1\n      tag_116\n      jump\t// in\n    tag_137:\n        /* \"Exchange.sol\":8250:8332  uint estimatedContractERC20Balance = contractERC20TokenBalance + _amountERC20Token */\n      swap1\n      pop\n        /* \"Exchange.sol\":8341:8373  uint contractETHBalanceAfterSwap */\n      0x00\n        /* \"Exchange.sol\":8380:8409  estimatedContractERC20Balance */\n      dup2\n        /* \"Exchange.sol\":8376:8377  K */\n      sload(0x04)\n        /* \"Exchange.sol\":8376:8409  K / estimatedContractERC20Balance */\n      tag_138\n      swap2\n      swap1\n      tag_81\n      jump\t// in\n    tag_138:\n        /* \"Exchange.sol\":8341:8409  uint contractETHBalanceAfterSwap = K / estimatedContractERC20Balance */\n      swap1\n      pop\n        /* \"Exchange.sol\":8451:8478  contractETHBalanceAfterSwap */\n      dup1\n        /* \"Exchange.sol\":8430:8448  contractEthBalance */\n      sload(0x02)\n        /* \"Exchange.sol\":8430:8478  contractEthBalance - contractETHBalanceAfterSwap */\n      tag_139\n      swap2\n      swap1\n      tag_76\n      jump\t// in\n    tag_139:\n        /* \"Exchange.sol\":8418:8478  ethToSend = contractEthBalance - contractETHBalanceAfterSwap */\n      swap3\n      pop\n        /* \"Exchange.sol\":8487:8503  return ethToSend */\n      pop\n      pop\n        /* \"Exchange.sol\":8018:8509  function estimateSwapForEth(uint _amountERC20Token) external view returns (uint ethToSend){... */\n      swap2\n      swap1\n      pop\n      jump\t// out\n        /* \"Exchange.sol\":584:601  uint public K = 0 */\n    tag_46:\n      sload(0x04)\n      dup2\n      jump\t// out\n        /* \"Exchange.sol\":10487:10611  function _ERC20TokenBalance() external view returns (uint) {... */\n    tag_50:\n        /* \"Exchange.sol\":10540:10544  uint */\n      0x00\n        /* \"Exchange.sol\":10600:10604  1e18 */\n      0x0de0b6b3a7640000\n        /* \"Exchange.sol\":10563:10574  ierc20Token */\n      0x00\n      dup1\n      sload\n      swap1\n      0x0100\n      exp\n      swap1\n      div\n      0xffffffffffffffffffffffffffffffffffffffff\n      and\n        /* \"Exchange.sol\":10563:10584  ierc20Token.balanceOf */\n      0xffffffffffffffffffffffffffffffffffffffff\n      and\n      0x70a08231\n        /* \"Exchange.sol\":10593:10597  this */\n      address\n        /* \"Exchange.sol\":10563:10599  ierc20Token.balanceOf(address(this)) */\n      mload(0x40)\n      dup3\n      0xffffffff\n      and\n      0xe0\n      shl\n      dup2\n      mstore\n      0x04\n      add\n      tag_141\n      swap2\n      swap1\n      tag_142\n      jump\t// in\n    tag_141:\n      0x20\n      mload(0x40)\n      dup1\n      dup4\n      sub\n      dup2\n      dup7\n      dup1\n      extcodesize\n      iszero\n      dup1\n      iszero\n      tag_143\n      jumpi\n      0x00\n      dup1\n      revert\n    tag_143:\n      pop\n      gas\n      staticcall\n      iszero\n      dup1\n      iszero\n      tag_145\n      jumpi\n      returndatasize\n      0x00\n      dup1\n      returndatacopy\n      revert(0x00, returndatasize)\n    tag_145:\n      pop\n      pop\n      pop\n      pop\n      mload(0x40)\n      returndatasize\n      not(0x1f)\n      0x1f\n      dup3\n      add\n      and\n      dup3\n      add\n      dup1\n      0x40\n      mstore\n      pop\n      dup2\n      add\n      swap1\n      tag_146\n      swap2\n      swap1\n      tag_147\n      jump\t// in\n    tag_146:\n        /* \"Exchange.sol\":10563:10604  ierc20Token.balanceOf(address(this))/1e18 */\n      tag_148\n      swap2\n      swap1\n      tag_81\n      jump\t// in\n    tag_148:\n        /* \"Exchange.sol\":10555:10605  return (ierc20Token.balanceOf(address(this))/1e18) */\n      swap1\n      pop\n        /* \"Exchange.sol\":10487:10611  function _ERC20TokenBalance() external view returns (uint) {... */\n      swap1\n      jump\t// out\n        /* \"Exchange.sol\":6973:7690  function swapForEth(uint _amountERC20Token) public nonReentrancy payable returns (uint ethToSend) {... */\n    tag_54:\n        /* \"Exchange.sol\":7055:7069  uint ethToSend */\n      0x00\n        /* \"Exchange.sol\":1121:1127  locked */\n      0x06\n      0x00\n      swap1\n      sload\n      swap1\n      0x0100\n      exp\n      swap1\n      div\n      0xff\n      and\n        /* \"Exchange.sol\":1120:1127  !locked */\n      iszero\n        /* \"Exchange.sol\":1111:1143  require (!locked, \"No re-entry\") */\n      tag_150\n      jumpi\n      mload(0x40)\n      0x08c379a000000000000000000000000000000000000000000000000000000000\n      dup2\n      mstore\n      0x04\n      add\n      tag_151\n      swap1\n      tag_72\n      jump\t// in\n    tag_151:\n      mload(0x40)\n      dup1\n      swap2\n      sub\n      swap1\n      revert\n    tag_150:\n        /* \"Exchange.sol\":1161:1165  true */\n      0x01\n        /* \"Exchange.sol\":1152:1158  locked */\n      0x06\n      0x00\n        /* \"Exchange.sol\":1152:1165  locked = true */\n      0x0100\n      exp\n      dup2\n      sload\n      dup2\n      0xff\n      mul\n      not\n      and\n      swap1\n      dup4\n      iszero\n      iszero\n      mul\n      or\n      swap1\n      sstore\n      pop\n        /* \"Exchange.sol\":7192:7196  1e18 */\n      0x0de0b6b3a7640000\n        /* \"Exchange.sol\":7172:7189  _amountERC20Token */\n      dup3\n        /* \"Exchange.sol\":7172:7196  _amountERC20Token * 1e18 */\n      tag_153\n      swap2\n      swap1\n      tag_79\n      jump\t// in\n    tag_153:\n        /* \"Exchange.sol\":7152:7196  _amountERC20Token = _amountERC20Token * 1e18 */\n      swap2\n      pop\n        /* \"Exchange.sol\":7206:7217  ierc20Token */\n      0x00\n      dup1\n      sload\n      swap1\n      0x0100\n      exp\n      swap1\n      div\n      0xffffffffffffffffffffffffffffffffffffffff\n      and\n        /* \"Exchange.sol\":7206:7230  ierc20Token.transferFrom */\n      0xffffffffffffffffffffffffffffffffffffffff\n      and\n      0x23b872dd\n        /* \"Exchange.sol\":7231:7241  msg.sender */\n      caller\n        /* \"Exchange.sol\":7251:7255  this */\n      address\n        /* \"Exchange.sol\":7258:7275  _amountERC20Token */\n      dup6\n        /* \"Exchange.sol\":7206:7276  ierc20Token.transferFrom(msg.sender, address(this), _amountERC20Token) */\n      mload(0x40)\n      dup5\n      0xffffffff\n      and\n      0xe0\n      shl\n      dup2\n      mstore\n      0x04\n      add\n      tag_154\n      swap4\n      swap3\n      swap2\n      swap1\n      tag_155\n      jump\t// in\n    tag_154:\n      0x20\n      mload(0x40)\n      dup1\n      dup4\n      sub\n      dup2\n      0x00\n      dup8\n      dup1\n      extcodesize\n      iszero\n      dup1\n      iszero\n      tag_156\n      jumpi\n      0x00\n      dup1\n      revert\n    tag_156:\n      pop\n      gas\n      call\n      iszero\n      dup1\n      iszero\n      tag_158\n      jumpi\n      returndatasize\n      0x00\n      dup1\n      returndatacopy\n      revert(0x00, returndatasize)\n    tag_158:\n      pop\n      pop\n      pop\n      pop\n      mload(0x40)\n      returndatasize\n      not(0x1f)\n      0x1f\n      dup3\n      add\n      and\n      dup3\n      add\n      dup1\n      0x40\n      mstore\n      pop\n      dup2\n      add\n      swap1\n      tag_159\n      swap2\n      swap1\n      tag_95\n      jump\t// in\n    tag_159:\n      pop\n        /* \"Exchange.sol\":7314:7331  _amountERC20Token */\n      dup2\n        /* \"Exchange.sol\":7285:7310  contractERC20TokenBalance */\n      0x01\n      0x00\n        /* \"Exchange.sol\":7285:7331  contractERC20TokenBalance += _amountERC20Token */\n      dup3\n      dup3\n      sload\n      tag_160\n      swap2\n      swap1\n      tag_116\n      jump\t// in\n    tag_160:\n      swap3\n      pop\n      pop\n      dup2\n      swap1\n      sstore\n      pop\n        /* \"Exchange.sol\":7340:7372  uint contractEthBalanceAfterSwap */\n      0x00\n        /* \"Exchange.sol\":7379:7404  contractERC20TokenBalance */\n      sload(0x01)\n        /* \"Exchange.sol\":7375:7376  K */\n      sload(0x04)\n        /* \"Exchange.sol\":7375:7404  K / contractERC20TokenBalance */\n      tag_161\n      swap2\n      swap1\n      tag_81\n      jump\t// in\n    tag_161:\n        /* \"Exchange.sol\":7340:7404  uint contractEthBalanceAfterSwap = K / contractERC20TokenBalance */\n      swap1\n      pop\n        /* \"Exchange.sol\":7446:7473  contractEthBalanceAfterSwap */\n      dup1\n        /* \"Exchange.sol\":7425:7443  contractEthBalance */\n      sload(0x02)\n        /* \"Exchange.sol\":7425:7473  contractEthBalance - contractEthBalanceAfterSwap */\n      tag_162\n      swap2\n      swap1\n      tag_76\n      jump\t// in\n    tag_162:\n        /* \"Exchange.sol\":7413:7473  ethToSend = contractEthBalance - contractEthBalanceAfterSwap */\n      swap2\n      pop\n        /* \"Exchange.sol\":7482:7506  address payable reciever */\n      0x00\n        /* \"Exchange.sol\":7517:7527  msg.sender */\n      caller\n        /* \"Exchange.sol\":7482:7528  address payable reciever = payable(msg.sender) */\n      swap1\n      pop\n        /* \"Exchange.sol\":7537:7545  reciever */\n      dup1\n        /* \"Exchange.sol\":7537:7554  reciever.transfer */\n      0xffffffffffffffffffffffffffffffffffffffff\n      and\n        /* \"Exchange.sol\":7537:7565  reciever.transfer(ethToSend) */\n      0x08fc\n        /* \"Exchange.sol\":7555:7564  ethToSend */\n      dup5\n        /* \"Exchange.sol\":7537:7565  reciever.transfer(ethToSend) */\n      swap1\n      dup2\n      iszero\n      mul\n      swap1\n      mload(0x40)\n      0x00\n      mload(0x40)\n      dup1\n      dup4\n      sub\n      dup2\n      dup6\n      dup9\n      dup9\n      call\n      swap4\n      pop\n      pop\n      pop\n      pop\n      iszero\n      dup1\n      iszero\n      tag_164\n      jumpi\n      returndatasize\n      0x00\n      dup1\n      returndatacopy\n      revert(0x00, returndatasize)\n    tag_164:\n      pop\n        /* \"Exchange.sol\":7596:7605  ethToSend */\n      dup3\n        /* \"Exchange.sol\":7574:7592  contractEthBalance */\n      0x02\n      0x00\n        /* \"Exchange.sol\":7574:7605  contractEthBalance -= ethToSend */\n      dup3\n      dup3\n      sload\n      tag_165\n      swap2\n      swap1\n      tag_76\n      jump\t// in\n    tag_165:\n      swap3\n      pop\n      pop\n      dup2\n      swap1\n      sstore\n      pop\n        /* \"Exchange.sol\":7619:7659  SwapForEth(_amountERC20Token, ethToSend) */\n      0x3297a389bb586920e62a196af529d5f42651b17a1013d6bfe77f22372a0b2112\n        /* \"Exchange.sol\":7630:7647  _amountERC20Token */\n      dup5\n        /* \"Exchange.sol\":7649:7658  ethToSend */\n      dup5\n        /* \"Exchange.sol\":7619:7659  SwapForEth(_amountERC20Token, ethToSend) */\n      mload(0x40)\n      tag_166\n      swap3\n      swap2\n      swap1\n      tag_20\n      jump\t// in\n    tag_166:\n      mload(0x40)\n      dup1\n      swap2\n      sub\n      swap1\n      log1\n        /* \"Exchange.sol\":7668:7684  return ethToSend */\n      pop\n      pop\n        /* \"Exchange.sol\":1193:1198  false */\n      0x00\n        /* \"Exchange.sol\":1184:1190  locked */\n      0x06\n      0x00\n        /* \"Exchange.sol\":1184:1198  locked = false */\n      0x0100\n      exp\n      dup2\n      sload\n      dup2\n      0xff\n      mul\n      not\n      and\n      swap1\n      dup4\n      iszero\n      iszero\n      mul\n      or\n      swap1\n      sstore\n      pop\n        /* \"Exchange.sol\":6973:7690  function swapForEth(uint _amountERC20Token) public nonReentrancy payable returns (uint ethToSend) {... */\n      swap2\n      swap1\n      pop\n      jump\t// out\n        /* \"Exchange.sol\":4588:4714  function getMyLiquidityPositions() external view returns(uint _liquidity) {... */\n    tag_58:\n        /* \"Exchange.sol\":4645:4660  uint _liquidity */\n      0x00\n        /* \"Exchange.sol\":4678:4696  liquidityPositions */\n      0x05\n        /* \"Exchange.sol\":4678:4708  liquidityPositions[msg.sender] */\n      0x00\n        /* \"Exchange.sol\":4697:4707  msg.sender */\n      caller\n        /* \"Exchange.sol\":4678:4708  liquidityPositions[msg.sender] */\n      0xffffffffffffffffffffffffffffffffffffffff\n      and\n      0xffffffffffffffffffffffffffffffffffffffff\n      and\n      dup2\n      mstore\n      0x20\n      add\n      swap1\n      dup2\n      mstore\n      0x20\n      add\n      0x00\n      keccak256\n      sload\n        /* \"Exchange.sol\":4671:4708  return liquidityPositions[msg.sender] */\n      swap1\n      pop\n        /* \"Exchange.sol\":4588:4714  function getMyLiquidityPositions() external view returns(uint _liquidity) {... */\n      swap1\n      jump\t// out\n        /* \"Exchange.sol\":1801:3154  function provideLiquidity(uint _amountERC20Token) external nonReentrancy payable returns(uint _liquidity){... */\n    tag_62:\n        /* \"Exchange.sol\":1890:1905  uint _liquidity */\n      0x00\n        /* \"Exchange.sol\":1121:1127  locked */\n      0x06\n      0x00\n      swap1\n      sload\n      swap1\n      0x0100\n      exp\n      swap1\n      div\n      0xff\n      and\n        /* \"Exchange.sol\":1120:1127  !locked */\n      iszero\n        /* \"Exchange.sol\":1111:1143  require (!locked, \"No re-entry\") */\n      tag_169\n      jumpi\n      mload(0x40)\n      0x08c379a000000000000000000000000000000000000000000000000000000000\n      dup2\n      mstore\n      0x04\n      add\n      tag_170\n      swap1\n      tag_72\n      jump\t// in\n    tag_170:\n      mload(0x40)\n      dup1\n      swap2\n      sub\n      swap1\n      revert\n    tag_169:\n        /* \"Exchange.sol\":1161:1165  true */\n      0x01\n        /* \"Exchange.sol\":1152:1158  locked */\n      0x06\n      0x00\n        /* \"Exchange.sol\":1152:1165  locked = true */\n      0x0100\n      exp\n      dup2\n      sload\n      dup2\n      0xff\n      mul\n      not\n      and\n      swap1\n      dup4\n      iszero\n      iszero\n      mul\n      or\n      swap1\n      sstore\n      pop\n        /* \"Exchange.sol\":1916:1931  uint _amountEth */\n      0x00\n        /* \"Exchange.sol\":1934:1943  msg.value */\n      callvalue\n        /* \"Exchange.sol\":1916:1943  uint _amountEth = msg.value */\n      swap1\n      pop\n        /* \"Exchange.sol\":1974:1984  _amountEth */\n      dup1\n        /* \"Exchange.sol\":1952:1970  contractEthBalance */\n      0x02\n      0x00\n        /* \"Exchange.sol\":1952:1984  contractEthBalance += _amountEth */\n      dup3\n      dup3\n      sload\n      tag_172\n      swap2\n      swap1\n      tag_116\n      jump\t// in\n    tag_172:\n      swap3\n      pop\n      pop\n      dup2\n      swap1\n      sstore\n      pop\n        /* \"Exchange.sol\":2070:2074  1e18 */\n      0x0de0b6b3a7640000\n        /* \"Exchange.sol\":2050:2067  _amountERC20Token */\n      dup4\n        /* \"Exchange.sol\":2050:2074  _amountERC20Token * 1e18 */\n      tag_173\n      swap2\n      swap1\n      tag_79\n      jump\t// in\n    tag_173:\n        /* \"Exchange.sol\":2030:2074  _amountERC20Token = _amountERC20Token * 1e18 */\n      swap3\n      pop\n        /* \"Exchange.sol\":2083:2094  ierc20Token */\n      0x00\n      dup1\n      sload\n      swap1\n      0x0100\n      exp\n      swap1\n      div\n      0xffffffffffffffffffffffffffffffffffffffff\n      and\n        /* \"Exchange.sol\":2083:2102  ierc20Token.approve */\n      0xffffffffffffffffffffffffffffffffffffffff\n      and\n      0x095ea7b3\n        /* \"Exchange.sol\":2111:2115  this */\n      address\n        /* \"Exchange.sol\":2118:2135  _amountERC20Token */\n      dup6\n        /* \"Exchange.sol\":2083:2136  ierc20Token.approve(address(this), _amountERC20Token) */\n      mload(0x40)\n      dup4\n      0xffffffff\n      and\n      0xe0\n      shl\n      dup2\n      mstore\n      0x04\n      add\n      tag_174\n      swap3\n      swap2\n      swap1\n      tag_90\n      jump\t// in\n    tag_174:\n      0x20\n      mload(0x40)\n      dup1\n      dup4\n      sub\n      dup2\n      0x00\n      dup8\n      dup1\n      extcodesize\n      iszero\n      dup1\n      iszero\n      tag_175\n      jumpi\n      0x00\n      dup1\n      revert\n    tag_175:\n      pop\n      gas\n      call\n      iszero\n      dup1\n      iszero\n      tag_177\n      jumpi\n      returndatasize\n      0x00\n      dup1\n      returndatacopy\n      revert(0x00, returndatasize)\n    tag_177:\n      pop\n      pop\n      pop\n      pop\n      mload(0x40)\n      returndatasize\n      not(0x1f)\n      0x1f\n      dup3\n      add\n      and\n      dup3\n      add\n      dup1\n      0x40\n      mstore\n      pop\n      dup2\n      add\n      swap1\n      tag_178\n      swap2\n      swap1\n      tag_95\n      jump\t// in\n    tag_178:\n      pop\n        /* \"Exchange.sol\":2145:2157  bool success */\n      0x00\n        /* \"Exchange.sol\":2160:2171  ierc20Token */\n      dup1\n      0x00\n      swap1\n      sload\n      swap1\n      0x0100\n      exp\n      swap1\n      div\n      0xffffffffffffffffffffffffffffffffffffffff\n      and\n        /* \"Exchange.sol\":2160:2184  ierc20Token.transferFrom */\n      0xffffffffffffffffffffffffffffffffffffffff\n      and\n      0x23b872dd\n        /* \"Exchange.sol\":2185:2195  msg.sender */\n      caller\n        /* \"Exchange.sol\":2205:2209  this */\n      address\n        /* \"Exchange.sol\":2212:2229  _amountERC20Token */\n      dup8\n        /* \"Exchange.sol\":2160:2230  ierc20Token.transferFrom(msg.sender, address(this), _amountERC20Token) */\n      mload(0x40)\n      dup5\n      0xffffffff\n      and\n      0xe0\n      shl\n      dup2\n      mstore\n      0x04\n      add\n      tag_179\n      swap4\n      swap3\n      swap2\n      swap1\n      tag_155\n      jump\t// in\n    tag_179:\n      0x20\n      mload(0x40)\n      dup1\n      dup4\n      sub\n      dup2\n      0x00\n      dup8\n      dup1\n      extcodesize\n      iszero\n      dup1\n      iszero\n      tag_180\n      jumpi\n      0x00\n      dup1\n      revert\n    tag_180:\n      pop\n      gas\n      call\n      iszero\n      dup1\n      iszero\n      tag_182\n      jumpi\n      returndatasize\n      0x00\n      dup1\n      returndatacopy\n      revert(0x00, returndatasize)\n    tag_182:\n      pop\n      pop\n      pop\n      pop\n      mload(0x40)\n      returndatasize\n      not(0x1f)\n      0x1f\n      dup3\n      add\n      and\n      dup3\n      add\n      dup1\n      0x40\n      mstore\n      pop\n      dup2\n      add\n      swap1\n      tag_183\n      swap2\n      swap1\n      tag_95\n      jump\t// in\n    tag_183:\n        /* \"Exchange.sol\":2145:2230  bool success = ierc20Token.transferFrom(msg.sender, address(this), _amountERC20Token) */\n      swap1\n      pop\n        /* \"Exchange.sol\":2247:2254  success */\n      dup1\n        /* \"Exchange.sol\":2239:2278  require(success, \"transfer failed. :(\") */\n      tag_184\n      jumpi\n      mload(0x40)\n      0x08c379a000000000000000000000000000000000000000000000000000000000\n      dup2\n      mstore\n      0x04\n      add\n      tag_185\n      swap1\n      tag_186\n      jump\t// in\n    tag_185:\n      mload(0x40)\n      dup1\n      swap2\n      sub\n      swap1\n      revert\n    tag_184:\n        /* \"Exchange.sol\":2316:2333  _amountERC20Token */\n      dup4\n        /* \"Exchange.sol\":2287:2312  contractERC20TokenBalance */\n      0x01\n      0x00\n        /* \"Exchange.sol\":2287:2333  contractERC20TokenBalance += _amountERC20Token */\n      dup3\n      dup3\n      sload\n      tag_187\n      swap2\n      swap1\n      tag_116\n      jump\t// in\n    tag_187:\n      swap3\n      pop\n      pop\n      dup2\n      swap1\n      sstore\n      pop\n        /* \"Exchange.sol\":2463:2481  contractEthBalance */\n      sload(0x02)\n        /* \"Exchange.sol\":2452:2462  _amountEth */\n      dup3\n        /* \"Exchange.sol\":2426:2449  totalLiquidityPositions */\n      sload(0x03)\n        /* \"Exchange.sol\":2426:2462  totalLiquidityPositions * _amountEth */\n      tag_188\n      swap2\n      swap1\n      tag_79\n      jump\t// in\n    tag_188:\n        /* \"Exchange.sol\":2426:2481  totalLiquidityPositions * _amountEth/contractEthBalance */\n      tag_189\n      swap2\n      swap1\n      tag_81\n      jump\t// in\n    tag_189:\n        /* \"Exchange.sol\":2395:2420  contractERC20TokenBalance */\n      sload(0x01)\n        /* \"Exchange.sol\":2377:2394  _amountERC20Token */\n      dup6\n        /* \"Exchange.sol\":2351:2374  totalLiquidityPositions */\n      sload(0x03)\n        /* \"Exchange.sol\":2351:2394  totalLiquidityPositions * _amountERC20Token */\n      tag_190\n      swap2\n      swap1\n      tag_79\n      jump\t// in\n    tag_190:\n        /* \"Exchange.sol\":2351:2420  totalLiquidityPositions * _amountERC20Token/contractERC20TokenBalance */\n      tag_191\n      swap2\n      swap1\n      tag_81\n      jump\t// in\n    tag_191:\n        /* \"Exchange.sol\":2350:2482  (totalLiquidityPositions * _amountERC20Token/contractERC20TokenBalance) == (totalLiquidityPositions * _amountEth/contractEthBalance) */\n      eq\n        /* \"Exchange.sol\":2342:2506  require((totalLiquidityPositions * _amountERC20Token/contractERC20TokenBalance) == (totalLiquidityPositions * _amountEth/contractEthBalance), \"liquidity inbalance\") */\n      tag_192\n      jumpi\n      mload(0x40)\n      0x08c379a000000000000000000000000000000000000000000000000000000000\n      dup2\n      mstore\n      0x04\n      add\n      tag_193\n      swap1\n      tag_194\n      jump\t// in\n    tag_193:\n      mload(0x40)\n      dup1\n      swap2\n      sub\n      swap1\n      revert\n    tag_192:\n        /* \"Exchange.sol\":2549:2550  0 */\n      0x00\n        /* \"Exchange.sol\":2522:2545  totalLiquidityPositions */\n      sload(0x03)\n        /* \"Exchange.sol\":2522:2550  totalLiquidityPositions == 0 */\n      eq\n        /* \"Exchange.sol\":2519:2949  if(totalLiquidityPositions == 0){... */\n      iszero\n      tag_195\n      jumpi\n        /* \"Exchange.sol\":2601:2604  100 */\n      0x64\n        /* \"Exchange.sol\":2568:2586  liquidityPositions */\n      0x05\n        /* \"Exchange.sol\":2568:2598  liquidityPositions[msg.sender] */\n      0x00\n        /* \"Exchange.sol\":2587:2597  msg.sender */\n      caller\n        /* \"Exchange.sol\":2568:2598  liquidityPositions[msg.sender] */\n      0xffffffffffffffffffffffffffffffffffffffff\n      and\n      0xffffffffffffffffffffffffffffffffffffffff\n      and\n      dup2\n      mstore\n      0x20\n      add\n      swap1\n      dup2\n      mstore\n      0x20\n      add\n      0x00\n      keccak256\n        /* \"Exchange.sol\":2568:2604  liquidityPositions[msg.sender] = 100 */\n      dup2\n      swap1\n      sstore\n      pop\n        /* \"Exchange.sol\":2648:2666  liquidityPositions */\n      0x05\n        /* \"Exchange.sol\":2648:2678  liquidityPositions[msg.sender] */\n      0x00\n        /* \"Exchange.sol\":2667:2677  msg.sender */\n      caller\n        /* \"Exchange.sol\":2648:2678  liquidityPositions[msg.sender] */\n      0xffffffffffffffffffffffffffffffffffffffff\n      and\n      0xffffffffffffffffffffffffffffffffffffffff\n      and\n      dup2\n      mstore\n      0x20\n      add\n      swap1\n      dup2\n      mstore\n      0x20\n      add\n      0x00\n      keccak256\n      sload\n        /* \"Exchange.sol\":2621:2644  totalLiquidityPositions */\n      0x03\n      0x00\n        /* \"Exchange.sol\":2621:2678  totalLiquidityPositions += liquidityPositions[msg.sender] */\n      dup3\n      dup3\n      sload\n      tag_196\n      swap2\n      swap1\n      tag_116\n      jump\t// in\n    tag_196:\n      swap3\n      pop\n      pop\n      dup2\n      swap1\n      sstore\n      pop\n        /* \"Exchange.sol\":2519:2949  if(totalLiquidityPositions == 0){... */\n      jump(tag_197)\n    tag_195:\n        /* \"Exchange.sol\":2793:2818  contractERC20TokenBalance */\n      sload(0x01)\n        /* \"Exchange.sol\":2773:2790  _amountERC20Token */\n      dup5\n        /* \"Exchange.sol\":2747:2770  totalLiquidityPositions */\n      sload(0x03)\n        /* \"Exchange.sol\":2747:2790  totalLiquidityPositions * _amountERC20Token */\n      tag_198\n      swap2\n      swap1\n      tag_79\n      jump\t// in\n    tag_198:\n        /* \"Exchange.sol\":2747:2818  totalLiquidityPositions * _amountERC20Token / contractERC20TokenBalance */\n      tag_199\n      swap2\n      swap1\n      tag_81\n      jump\t// in\n    tag_199:\n        /* \"Exchange.sol\":2713:2731  liquidityPositions */\n      0x05\n        /* \"Exchange.sol\":2713:2743  liquidityPositions[msg.sender] */\n      0x00\n        /* \"Exchange.sol\":2732:2742  msg.sender */\n      caller\n        /* \"Exchange.sol\":2713:2743  liquidityPositions[msg.sender] */\n      0xffffffffffffffffffffffffffffffffffffffff\n      and\n      0xffffffffffffffffffffffffffffffffffffffff\n      and\n      dup2\n      mstore\n      0x20\n      add\n      swap1\n      dup2\n      mstore\n      0x20\n      add\n      0x00\n      keccak256\n      0x00\n        /* \"Exchange.sol\":2713:2818  liquidityPositions[msg.sender] += totalLiquidityPositions * _amountERC20Token / contractERC20TokenBalance */\n      dup3\n      dup3\n      sload\n      tag_200\n      swap2\n      swap1\n      tag_116\n      jump\t// in\n    tag_200:\n      swap3\n      pop\n      pop\n      dup2\n      swap1\n      sstore\n      pop\n        /* \"Exchange.sol\":2909:2934  contractERC20TokenBalance */\n      sload(0x01)\n        /* \"Exchange.sol\":2889:2906  _amountERC20Token */\n      dup5\n        /* \"Exchange.sol\":2863:2886  totalLiquidityPositions */\n      sload(0x03)\n        /* \"Exchange.sol\":2863:2906  totalLiquidityPositions * _amountERC20Token */\n      tag_201\n      swap2\n      swap1\n      tag_79\n      jump\t// in\n    tag_201:\n        /* \"Exchange.sol\":2863:2934  totalLiquidityPositions * _amountERC20Token / contractERC20TokenBalance */\n      tag_202\n      swap2\n      swap1\n      tag_81\n      jump\t// in\n    tag_202:\n        /* \"Exchange.sol\":2835:2858  totalLiquidityPositions */\n      0x03\n      0x00\n        /* \"Exchange.sol\":2835:2935  totalLiquidityPositions += (totalLiquidityPositions * _amountERC20Token / contractERC20TokenBalance) */\n      dup3\n      dup3\n      sload\n      tag_203\n      swap2\n      swap1\n      tag_116\n      jump\t// in\n    tag_203:\n      swap3\n      pop\n      pop\n      dup2\n      swap1\n      sstore\n      pop\n        /* \"Exchange.sol\":2519:2949  if(totalLiquidityPositions == 0){... */\n    tag_197:\n        /* \"Exchange.sol\":2982:3007  contractERC20TokenBalance */\n      sload(0x01)\n        /* \"Exchange.sol\":2961:2979  contractEthBalance */\n      sload(0x02)\n        /* \"Exchange.sol\":2961:3007  contractEthBalance * contractERC20TokenBalance */\n      tag_204\n      swap2\n      swap1\n      tag_79\n      jump\t// in\n    tag_204:\n        /* \"Exchange.sol\":2957:2958  K */\n      0x04\n        /* \"Exchange.sol\":2957:3007  K = contractEthBalance * contractERC20TokenBalance */\n      dup2\n      swap1\n      sstore\n      pop\n        /* \"Exchange.sol\":3021:3102  LiquidityProvided(_amountERC20Token, _amountEth, liquidityPositions[msg.sender] ) */\n      0xaa58f006cc244b2af6662862508bd39465f57169ff8386d1d1f7b0b903150abc\n        /* \"Exchange.sol\":3039:3056  _amountERC20Token */\n      dup5\n        /* \"Exchange.sol\":3058:3068  _amountEth */\n      dup4\n        /* \"Exchange.sol\":3070:3088  liquidityPositions */\n      0x05\n        /* \"Exchange.sol\":3070:3100  liquidityPositions[msg.sender] */\n      0x00\n        /* \"Exchange.sol\":3089:3099  msg.sender */\n      caller\n        /* \"Exchange.sol\":3070:3100  liquidityPositions[msg.sender] */\n      0xffffffffffffffffffffffffffffffffffffffff\n      and\n      0xffffffffffffffffffffffffffffffffffffffff\n      and\n      dup2\n      mstore\n      0x20\n      add\n      swap1\n      dup2\n      mstore\n      0x20\n      add\n      0x00\n      keccak256\n      sload\n        /* \"Exchange.sol\":3021:3102  LiquidityProvided(_amountERC20Token, _amountEth, liquidityPositions[msg.sender] ) */\n      mload(0x40)\n      tag_205\n      swap4\n      swap3\n      swap2\n      swap1\n      tag_106\n      jump\t// in\n    tag_205:\n      mload(0x40)\n      dup1\n      swap2\n      sub\n      swap1\n      log1\n        /* \"Exchange.sol\":3118:3136  liquidityPositions */\n      0x05\n        /* \"Exchange.sol\":3118:3148  liquidityPositions[msg.sender] */\n      0x00\n        /* \"Exchange.sol\":3137:3147  msg.sender */\n      caller\n        /* \"Exchange.sol\":3118:3148  liquidityPositions[msg.sender] */\n      0xffffffffffffffffffffffffffffffffffffffff\n      and\n      0xffffffffffffffffffffffffffffffffffffffff\n      and\n      dup2\n      mstore\n      0x20\n      add\n      swap1\n      dup2\n      mstore\n      0x20\n      add\n      0x00\n      keccak256\n      sload\n        /* \"Exchange.sol\":3111:3148  return liquidityPositions[msg.sender] */\n      swap3\n      pop\n      pop\n      pop\n        /* \"Exchange.sol\":1193:1198  false */\n      0x00\n        /* \"Exchange.sol\":1184:1190  locked */\n      0x06\n      0x00\n        /* \"Exchange.sol\":1184:1198  locked = false */\n      0x0100\n      exp\n      dup2\n      sload\n      dup2\n      0xff\n      mul\n      not\n      and\n      swap1\n      dup4\n      iszero\n      iszero\n      mul\n      or\n      swap1\n      sstore\n      pop\n        /* \"Exchange.sol\":1801:3154  function provideLiquidity(uint _amountERC20Token) external nonReentrancy payable returns(uint _liquidity){... */\n      swap2\n      swap1\n      pop\n      jump\t// out\n        /* \"Exchange.sol\":4179:4395  function estimateERC20TokenToProvide(uint _amountEth) external view returns(uint _amountERC20){... */\n    tag_67:\n        /* \"Exchange.sol\":4255:4272  uint _amountERC20 */\n      0x00\n        /* \"Exchange.sol\":4336:4354  contractEthBalance */\n      sload(0x02)\n        /* \"Exchange.sol\":4325:4335  _amountEth */\n      dup3\n        /* \"Exchange.sol\":4297:4322  contractERC20TokenBalance */\n      sload(0x01)\n        /* \"Exchange.sol\":4297:4335  contractERC20TokenBalance * _amountEth */\n      tag_207\n      swap2\n      swap1\n      tag_79\n      jump\t// in\n    tag_207:\n        /* \"Exchange.sol\":4297:4354  contractERC20TokenBalance * _amountEth/contractEthBalance */\n      tag_208\n      swap2\n      swap1\n      tag_81\n      jump\t// in\n    tag_208:\n        /* \"Exchange.sol\":4282:4354  _amountERC20 = contractERC20TokenBalance * _amountEth/contractEthBalance */\n      swap1\n      pop\n        /* \"Exchange.sol\":4384:4388  1e18 */\n      0x0de0b6b3a7640000\n        /* \"Exchange.sol\":4371:4383  _amountERC20 */\n      dup2\n        /* \"Exchange.sol\":4371:4388  _amountERC20/1e18 */\n      tag_209\n      swap2\n      swap1\n      tag_81\n      jump\t// in\n    tag_209:\n        /* \"Exchange.sol\":4363:4389  return (_amountERC20/1e18) */\n      swap1\n      pop\n        /* \"Exchange.sol\":4179:4395  function estimateERC20TokenToProvide(uint _amountEth) external view returns(uint _amountERC20){... */\n      swap2\n      swap1\n      pop\n      jump\t// out\n        /* \"#utility.yul\":7:144   */\n    tag_211:\n        /* \"#utility.yul\":61:66   */\n      0x00\n        /* \"#utility.yul\":92:98   */\n      dup2\n        /* \"#utility.yul\":86:99   */\n      mload\n        /* \"#utility.yul\":77:99   */\n      swap1\n      pop\n        /* \"#utility.yul\":108:138   */\n      tag_213\n        /* \"#utility.yul\":132:137   */\n      dup2\n        /* \"#utility.yul\":108:138   */\n      tag_214\n      jump\t// in\n    tag_213:\n        /* \"#utility.yul\":7:144   */\n      swap3\n      swap2\n      pop\n      pop\n      jump\t// out\n        /* \"#utility.yul\":150:289   */\n    tag_215:\n        /* \"#utility.yul\":196:201   */\n      0x00\n        /* \"#utility.yul\":234:240   */\n      dup2\n        /* \"#utility.yul\":221:241   */\n      calldataload\n        /* \"#utility.yul\":212:241   */\n      swap1\n      pop\n        /* \"#utility.yul\":250:283   */\n      tag_217\n        /* \"#utility.yul\":277:282   */\n      dup2\n        /* \"#utility.yul\":250:283   */\n      tag_218\n      jump\t// in\n    tag_217:\n        /* \"#utility.yul\":150:289   */\n      swap3\n      swap2\n      pop\n      pop\n      jump\t// out\n        /* \"#utility.yul\":295:438   */\n    tag_219:\n        /* \"#utility.yul\":352:357   */\n      0x00\n        /* \"#utility.yul\":383:389   */\n      dup2\n        /* \"#utility.yul\":377:390   */\n      mload\n        /* \"#utility.yul\":368:390   */\n      swap1\n      pop\n        /* \"#utility.yul\":399:432   */\n      tag_221\n        /* \"#utility.yul\":426:431   */\n      dup2\n        /* \"#utility.yul\":399:432   */\n      tag_218\n      jump\t// in\n    tag_221:\n        /* \"#utility.yul\":295:438   */\n      swap3\n      swap2\n      pop\n      pop\n      jump\t// out\n        /* \"#utility.yul\":444:789   */\n    tag_95:\n        /* \"#utility.yul\":511:517   */\n      0x00\n        /* \"#utility.yul\":560:562   */\n      0x20\n        /* \"#utility.yul\":548:557   */\n      dup3\n        /* \"#utility.yul\":539:546   */\n      dup5\n        /* \"#utility.yul\":535:558   */\n      sub\n        /* \"#utility.yul\":531:563   */\n      slt\n        /* \"#utility.yul\":528:647   */\n      iszero\n      tag_223\n      jumpi\n        /* \"#utility.yul\":566:645   */\n      tag_224\n      tag_225\n      jump\t// in\n    tag_224:\n        /* \"#utility.yul\":528:647   */\n    tag_223:\n        /* \"#utility.yul\":686:687   */\n      0x00\n        /* \"#utility.yul\":711:772   */\n      tag_226\n        /* \"#utility.yul\":764:771   */\n      dup5\n        /* \"#utility.yul\":755:761   */\n      dup3\n        /* \"#utility.yul\":744:753   */\n      dup6\n        /* \"#utility.yul\":740:762   */\n      add\n        /* \"#utility.yul\":711:772   */\n      tag_211\n      jump\t// in\n    tag_226:\n        /* \"#utility.yul\":701:772   */\n      swap2\n      pop\n        /* \"#utility.yul\":657:782   */\n      pop\n        /* \"#utility.yul\":444:789   */\n      swap3\n      swap2\n      pop\n      pop\n      jump\t// out\n        /* \"#utility.yul\":795:1124   */\n    tag_17:\n        /* \"#utility.yul\":854:860   */\n      0x00\n        /* \"#utility.yul\":903:905   */\n      0x20\n        /* \"#utility.yul\":891:900   */\n      dup3\n        /* \"#utility.yul\":882:889   */\n      dup5\n        /* \"#utility.yul\":878:901   */\n      sub\n        /* \"#utility.yul\":874:906   */\n      slt\n        /* \"#utility.yul\":871:990   */\n      iszero\n      tag_228\n      jumpi\n        /* \"#utility.yul\":909:988   */\n      tag_229\n      tag_225\n      jump\t// in\n    tag_229:\n        /* \"#utility.yul\":871:990   */\n    tag_228:\n        /* \"#utility.yul\":1029:1030   */\n      0x00\n        /* \"#utility.yul\":1054:1107   */\n      tag_230\n        /* \"#utility.yul\":1099:1106   */\n      dup5\n        /* \"#utility.yul\":1090:1096   */\n      dup3\n        /* \"#utility.yul\":1079:1088   */\n      dup6\n        /* \"#utility.yul\":1075:1097   */\n      add\n        /* \"#utility.yul\":1054:1107   */\n      tag_215\n      jump\t// in\n    tag_230:\n        /* \"#utility.yul\":1044:1107   */\n      swap2\n      pop\n        /* \"#utility.yul\":1000:1117   */\n      pop\n        /* \"#utility.yul\":795:1124   */\n      swap3\n      swap2\n      pop\n      pop\n      jump\t// out\n        /* \"#utility.yul\":1130:1481   */\n    tag_147:\n        /* \"#utility.yul\":1200:1206   */\n      0x00\n        /* \"#utility.yul\":1249:1251   */\n      0x20\n        /* \"#utility.yul\":1237:1246   */\n      dup3\n        /* \"#utility.yul\":1228:1235   */\n      dup5\n        /* \"#utility.yul\":1224:1247   */\n      sub\n        /* \"#utility.yul\":1220:1252   */\n      slt\n        /* \"#utility.yul\":1217:1336   */\n      iszero\n      tag_232\n      jumpi\n        /* \"#utility.yul\":1255:1334   */\n      tag_233\n      tag_225\n      jump\t// in\n    tag_233:\n        /* \"#utility.yul\":1217:1336   */\n    tag_232:\n        /* \"#utility.yul\":1375:1376   */\n      0x00\n        /* \"#utility.yul\":1400:1464   */\n      tag_234\n        /* \"#utility.yul\":1456:1463   */\n      dup5\n        /* \"#utility.yul\":1447:1453   */\n      dup3\n        /* \"#utility.yul\":1436:1445   */\n      dup6\n        /* \"#utility.yul\":1432:1454   */\n      add\n        /* \"#utility.yul\":1400:1464   */\n      tag_219\n      jump\t// in\n    tag_234:\n        /* \"#utility.yul\":1390:1464   */\n      swap2\n      pop\n        /* \"#utility.yul\":1346:1474   */\n      pop\n        /* \"#utility.yul\":1130:1481   */\n      swap3\n      swap2\n      pop\n      pop\n      jump\t// out\n        /* \"#utility.yul\":1487:1634   */\n    tag_235:\n        /* \"#utility.yul\":1582:1627   */\n      tag_237\n        /* \"#utility.yul\":1621:1626   */\n      dup2\n        /* \"#utility.yul\":1582:1627   */\n      tag_238\n      jump\t// in\n    tag_237:\n        /* \"#utility.yul\":1577:1580   */\n      dup3\n        /* \"#utility.yul\":1570:1628   */\n      mstore\n        /* \"#utility.yul\":1487:1634   */\n      pop\n      pop\n      jump\t// out\n        /* \"#utility.yul\":1640:1758   */\n    tag_239:\n        /* \"#utility.yul\":1727:1751   */\n      tag_241\n        /* \"#utility.yul\":1745:1750   */\n      dup2\n        /* \"#utility.yul\":1727:1751   */\n      tag_242\n      jump\t// in\n    tag_241:\n        /* \"#utility.yul\":1722:1725   */\n      dup3\n        /* \"#utility.yul\":1715:1752   */\n      mstore\n        /* \"#utility.yul\":1640:1758   */\n      pop\n      pop\n      jump\t// out\n        /* \"#utility.yul\":1764:2130   */\n    tag_243:\n        /* \"#utility.yul\":1906:1909   */\n      0x00\n        /* \"#utility.yul\":1927:1994   */\n      tag_245\n        /* \"#utility.yul\":1991:1993   */\n      0x13\n        /* \"#utility.yul\":1986:1989   */\n      dup4\n        /* \"#utility.yul\":1927:1994   */\n      tag_246\n      jump\t// in\n    tag_245:\n        /* \"#utility.yul\":1920:1994   */\n      swap2\n      pop\n        /* \"#utility.yul\":2003:2096   */\n      tag_247\n        /* \"#utility.yul\":2092:2095   */\n      dup3\n        /* \"#utility.yul\":2003:2096   */\n      tag_248\n      jump\t// in\n    tag_247:\n        /* \"#utility.yul\":2121:2123   */\n      0x20\n        /* \"#utility.yul\":2116:2119   */\n      dup3\n        /* \"#utility.yul\":2112:2124   */\n      add\n        /* \"#utility.yul\":2105:2124   */\n      swap1\n      pop\n        /* \"#utility.yul\":1764:2130   */\n      swap2\n      swap1\n      pop\n      jump\t// out\n        /* \"#utility.yul\":2136:2502   */\n    tag_249:\n        /* \"#utility.yul\":2278:2281   */\n      0x00\n        /* \"#utility.yul\":2299:2366   */\n      tag_251\n        /* \"#utility.yul\":2363:2365   */\n      0x0b\n        /* \"#utility.yul\":2358:2361   */\n      dup4\n        /* \"#utility.yul\":2299:2366   */\n      tag_246\n      jump\t// in\n    tag_251:\n        /* \"#utility.yul\":2292:2366   */\n      swap2\n      pop\n        /* \"#utility.yul\":2375:2468   */\n      tag_252\n        /* \"#utility.yul\":2464:2467   */\n      dup3\n        /* \"#utility.yul\":2375:2468   */\n      tag_253\n      jump\t// in\n    tag_252:\n        /* \"#utility.yul\":2493:2495   */\n      0x20\n        /* \"#utility.yul\":2488:2491   */\n      dup3\n        /* \"#utility.yul\":2484:2496   */\n      add\n        /* \"#utility.yul\":2477:2496   */\n      swap1\n      pop\n        /* \"#utility.yul\":2136:2502   */\n      swap2\n      swap1\n      pop\n      jump\t// out\n        /* \"#utility.yul\":2508:2874   */\n    tag_254:\n        /* \"#utility.yul\":2650:2653   */\n      0x00\n        /* \"#utility.yul\":2671:2738   */\n      tag_256\n        /* \"#utility.yul\":2735:2737   */\n      0x13\n        /* \"#utility.yul\":2730:2733   */\n      dup4\n        /* \"#utility.yul\":2671:2738   */\n      tag_246\n      jump\t// in\n    tag_256:\n        /* \"#utility.yul\":2664:2738   */\n      swap2\n      pop\n        /* \"#utility.yul\":2747:2840   */\n      tag_257\n        /* \"#utility.yul\":2836:2839   */\n      dup3\n        /* \"#utility.yul\":2747:2840   */\n      tag_258\n      jump\t// in\n    tag_257:\n        /* \"#utility.yul\":2865:2867   */\n      0x20\n        /* \"#utility.yul\":2860:2863   */\n      dup3\n        /* \"#utility.yul\":2856:2868   */\n      add\n        /* \"#utility.yul\":2849:2868   */\n      swap1\n      pop\n        /* \"#utility.yul\":2508:2874   */\n      swap2\n      swap1\n      pop\n      jump\t// out\n        /* \"#utility.yul\":2880:2998   */\n    tag_259:\n        /* \"#utility.yul\":2967:2991   */\n      tag_261\n        /* \"#utility.yul\":2985:2990   */\n      dup2\n        /* \"#utility.yul\":2967:2991   */\n      tag_262\n      jump\t// in\n    tag_261:\n        /* \"#utility.yul\":2962:2965   */\n      dup3\n        /* \"#utility.yul\":2955:2992   */\n      mstore\n        /* \"#utility.yul\":2880:2998   */\n      pop\n      pop\n      jump\t// out\n        /* \"#utility.yul\":3004:3226   */\n    tag_142:\n        /* \"#utility.yul\":3097:3101   */\n      0x00\n        /* \"#utility.yul\":3135:3137   */\n      0x20\n        /* \"#utility.yul\":3124:3133   */\n      dup3\n        /* \"#utility.yul\":3120:3138   */\n      add\n        /* \"#utility.yul\":3112:3138   */\n      swap1\n      pop\n        /* \"#utility.yul\":3148:3219   */\n      tag_264\n        /* \"#utility.yul\":3216:3217   */\n      0x00\n        /* \"#utility.yul\":3205:3214   */\n      dup4\n        /* \"#utility.yul\":3201:3218   */\n      add\n        /* \"#utility.yul\":3192:3198   */\n      dup5\n        /* \"#utility.yul\":3148:3219   */\n      tag_239\n      jump\t// in\n    tag_264:\n        /* \"#utility.yul\":3004:3226   */\n      swap3\n      swap2\n      pop\n      pop\n      jump\t// out\n        /* \"#utility.yul\":3232:3690   */\n    tag_97:\n        /* \"#utility.yul\":3389:3393   */\n      0x00\n        /* \"#utility.yul\":3427:3429   */\n      0x60\n        /* \"#utility.yul\":3416:3425   */\n      dup3\n        /* \"#utility.yul\":3412:3430   */\n      add\n        /* \"#utility.yul\":3404:3430   */\n      swap1\n      pop\n        /* \"#utility.yul\":3440:3511   */\n      tag_266\n        /* \"#utility.yul\":3508:3509   */\n      0x00\n        /* \"#utility.yul\":3497:3506   */\n      dup4\n        /* \"#utility.yul\":3493:3510   */\n      add\n        /* \"#utility.yul\":3484:3490   */\n      dup7\n        /* \"#utility.yul\":3440:3511   */\n      tag_239\n      jump\t// in\n    tag_266:\n        /* \"#utility.yul\":3521:3601   */\n      tag_267\n        /* \"#utility.yul\":3597:3599   */\n      0x20\n        /* \"#utility.yul\":3586:3595   */\n      dup4\n        /* \"#utility.yul\":3582:3600   */\n      add\n        /* \"#utility.yul\":3573:3579   */\n      dup6\n        /* \"#utility.yul\":3521:3601   */\n      tag_235\n      jump\t// in\n    tag_267:\n        /* \"#utility.yul\":3611:3683   */\n      tag_268\n        /* \"#utility.yul\":3679:3681   */\n      0x40\n        /* \"#utility.yul\":3668:3677   */\n      dup4\n        /* \"#utility.yul\":3664:3682   */\n      add\n        /* \"#utility.yul\":3655:3661   */\n      dup5\n        /* \"#utility.yul\":3611:3683   */\n      tag_259\n      jump\t// in\n    tag_268:\n        /* \"#utility.yul\":3232:3690   */\n      swap5\n      swap4\n      pop\n      pop\n      pop\n      pop\n      jump\t// out\n        /* \"#utility.yul\":3696:4138   */\n    tag_155:\n        /* \"#utility.yul\":3845:3849   */\n      0x00\n        /* \"#utility.yul\":3883:3885   */\n      0x60\n        /* \"#utility.yul\":3872:3881   */\n      dup3\n        /* \"#utility.yul\":3868:3886   */\n      add\n        /* \"#utility.yul\":3860:3886   */\n      swap1\n      pop\n        /* \"#utility.yul\":3896:3967   */\n      tag_270\n        /* \"#utility.yul\":3964:3965   */\n      0x00\n        /* \"#utility.yul\":3953:3962   */\n      dup4\n        /* \"#utility.yul\":3949:3966   */\n      add\n        /* \"#utility.yul\":3940:3946   */\n      dup7\n        /* \"#utility.yul\":3896:3967   */\n      tag_239\n      jump\t// in\n    tag_270:\n        /* \"#utility.yul\":3977:4049   */\n      tag_271\n        /* \"#utility.yul\":4045:4047   */\n      0x20\n        /* \"#utility.yul\":4034:4043   */\n      dup4\n        /* \"#utility.yul\":4030:4048   */\n      add\n        /* \"#utility.yul\":4021:4027   */\n      dup6\n        /* \"#utility.yul\":3977:4049   */\n      tag_239\n      jump\t// in\n    tag_271:\n        /* \"#utility.yul\":4059:4131   */\n      tag_272\n        /* \"#utility.yul\":4127:4129   */\n      0x40\n        /* \"#utility.yul\":4116:4125   */\n      dup4\n        /* \"#utility.yul\":4112:4130   */\n      add\n        /* \"#utility.yul\":4103:4109   */\n      dup5\n        /* \"#utility.yul\":4059:4131   */\n      tag_259\n      jump\t// in\n    tag_272:\n        /* \"#utility.yul\":3696:4138   */\n      swap5\n      swap4\n      pop\n      pop\n      pop\n      pop\n      jump\t// out\n        /* \"#utility.yul\":4144:4476   */\n    tag_90:\n        /* \"#utility.yul\":4265:4269   */\n      0x00\n        /* \"#utility.yul\":4303:4305   */\n      0x40\n        /* \"#utility.yul\":4292:4301   */\n      dup3\n        /* \"#utility.yul\":4288:4306   */\n      add\n        /* \"#utility.yul\":4280:4306   */\n      swap1\n      pop\n        /* \"#utility.yul\":4316:4387   */\n      tag_274\n        /* \"#utility.yul\":4384:4385   */\n      0x00\n        /* \"#utility.yul\":4373:4382   */\n      dup4\n        /* \"#utility.yul\":4369:4386   */\n      add\n        /* \"#utility.yul\":4360:4366   */\n      dup6\n        /* \"#utility.yul\":4316:4387   */\n      tag_239\n      jump\t// in\n    tag_274:\n        /* \"#utility.yul\":4397:4469   */\n      tag_275\n        /* \"#utility.yul\":4465:4467   */\n      0x20\n        /* \"#utility.yul\":4454:4463   */\n      dup4\n        /* \"#utility.yul\":4450:4468   */\n      add\n        /* \"#utility.yul\":4441:4447   */\n      dup5\n        /* \"#utility.yul\":4397:4469   */\n      tag_259\n      jump\t// in\n    tag_275:\n        /* \"#utility.yul\":4144:4476   */\n      swap4\n      swap3\n      pop\n      pop\n      pop\n      jump\t// out\n        /* \"#utility.yul\":4482:4901   */\n    tag_194:\n        /* \"#utility.yul\":4648:4652   */\n      0x00\n        /* \"#utility.yul\":4686:4688   */\n      0x20\n        /* \"#utility.yul\":4675:4684   */\n      dup3\n        /* \"#utility.yul\":4671:4689   */\n      add\n        /* \"#utility.yul\":4663:4689   */\n      swap1\n      pop\n        /* \"#utility.yul\":4735:4744   */\n      dup2\n        /* \"#utility.yul\":4729:4733   */\n      dup2\n        /* \"#utility.yul\":4725:4745   */\n      sub\n        /* \"#utility.yul\":4721:4722   */\n      0x00\n        /* \"#utility.yul\":4710:4719   */\n      dup4\n        /* \"#utility.yul\":4706:4723   */\n      add\n        /* \"#utility.yul\":4699:4746   */\n      mstore\n        /* \"#utility.yul\":4763:4894   */\n      tag_277\n        /* \"#utility.yul\":4889:4893   */\n      dup2\n        /* \"#utility.yul\":4763:4894   */\n      tag_243\n      jump\t// in\n    tag_277:\n        /* \"#utility.yul\":4755:4894   */\n      swap1\n      pop\n        /* \"#utility.yul\":4482:4901   */\n      swap2\n      swap1\n      pop\n      jump\t// out\n        /* \"#utility.yul\":4907:5326   */\n    tag_72:\n        /* \"#utility.yul\":5073:5077   */\n      0x00\n        /* \"#utility.yul\":5111:5113   */\n      0x20\n        /* \"#utility.yul\":5100:5109   */\n      dup3\n        /* \"#utility.yul\":5096:5114   */\n      add\n        /* \"#utility.yul\":5088:5114   */\n      swap1\n      pop\n        /* \"#utility.yul\":5160:5169   */\n      dup2\n        /* \"#utility.yul\":5154:5158   */\n      dup2\n        /* \"#utility.yul\":5150:5170   */\n      sub\n        /* \"#utility.yul\":5146:5147   */\n      0x00\n        /* \"#utility.yul\":5135:5144   */\n      dup4\n        /* \"#utility.yul\":5131:5148   */\n      add\n        /* \"#utility.yul\":5124:5171   */\n      mstore\n        /* \"#utility.yul\":5188:5319   */\n      tag_279\n        /* \"#utility.yul\":5314:5318   */\n      dup2\n        /* \"#utility.yul\":5188:5319   */\n      tag_249\n      jump\t// in\n    tag_279:\n        /* \"#utility.yul\":5180:5319   */\n      swap1\n      pop\n        /* \"#utility.yul\":4907:5326   */\n      swap2\n      swap1\n      pop\n      jump\t// out\n        /* \"#utility.yul\":5332:5751   */\n    tag_186:\n        /* \"#utility.yul\":5498:5502   */\n      0x00\n        /* \"#utility.yul\":5536:5538   */\n      0x20\n        /* \"#utility.yul\":5525:5534   */\n      dup3\n        /* \"#utility.yul\":5521:5539   */\n      add\n        /* \"#utility.yul\":5513:5539   */\n      swap1\n      pop\n        /* \"#utility.yul\":5585:5594   */\n      dup2\n        /* \"#utility.yul\":5579:5583   */\n      dup2\n        /* \"#utility.yul\":5575:5595   */\n      sub\n        /* \"#utility.yul\":5571:5572   */\n      0x00\n        /* \"#utility.yul\":5560:5569   */\n      dup4\n        /* \"#utility.yul\":5556:5573   */\n      add\n        /* \"#utility.yul\":5549:5596   */\n      mstore\n        /* \"#utility.yul\":5613:5744   */\n      tag_281\n        /* \"#utility.yul\":5739:5743   */\n      dup2\n        /* \"#utility.yul\":5613:5744   */\n      tag_254\n      jump\t// in\n    tag_281:\n        /* \"#utility.yul\":5605:5744   */\n      swap1\n      pop\n        /* \"#utility.yul\":5332:5751   */\n      swap2\n      swap1\n      pop\n      jump\t// out\n        /* \"#utility.yul\":5757:5979   */\n    tag_26:\n        /* \"#utility.yul\":5850:5854   */\n      0x00\n        /* \"#utility.yul\":5888:5890   */\n      0x20\n        /* \"#utility.yul\":5877:5886   */\n      dup3\n        /* \"#utility.yul\":5873:5891   */\n      add\n        /* \"#utility.yul\":5865:5891   */\n      swap1\n      pop\n        /* \"#utility.yul\":5901:5972   */\n      tag_283\n        /* \"#utility.yul\":5969:5970   */\n      0x00\n        /* \"#utility.yul\":5958:5967   */\n      dup4\n        /* \"#utility.yul\":5954:5971   */\n      add\n        /* \"#utility.yul\":5945:5951   */\n      dup5\n        /* \"#utility.yul\":5901:5972   */\n      tag_259\n      jump\t// in\n    tag_283:\n        /* \"#utility.yul\":5757:5979   */\n      swap3\n      swap2\n      pop\n      pop\n      jump\t// out\n        /* \"#utility.yul\":5985:6317   */\n    tag_20:\n        /* \"#utility.yul\":6106:6110   */\n      0x00\n        /* \"#utility.yul\":6144:6146   */\n      0x40\n        /* \"#utility.yul\":6133:6142   */\n      dup3\n        /* \"#utility.yul\":6129:6147   */\n      add\n        /* \"#utility.yul\":6121:6147   */\n      swap1\n      pop\n        /* \"#utility.yul\":6157:6228   */\n      tag_285\n        /* \"#utility.yul\":6225:6226   */\n      0x00\n        /* \"#utility.yul\":6214:6223   */\n      dup4\n        /* \"#utility.yul\":6210:6227   */\n      add\n        /* \"#utility.yul\":6201:6207   */\n      dup6\n        /* \"#utility.yul\":6157:6228   */\n      tag_259\n      jump\t// in\n    tag_285:\n        /* \"#utility.yul\":6238:6310   */\n      tag_286\n        /* \"#utility.yul\":6306:6308   */\n      0x20\n        /* \"#utility.yul\":6295:6304   */\n      dup4\n        /* \"#utility.yul\":6291:6309   */\n      add\n        /* \"#utility.yul\":6282:6288   */\n      dup5\n        /* \"#utility.yul\":6238:6310   */\n      tag_259\n      jump\t// in\n    tag_286:\n        /* \"#utility.yul\":5985:6317   */\n      swap4\n      swap3\n      pop\n      pop\n      pop\n      jump\t// out\n        /* \"#utility.yul\":6323:6765   */\n    tag_106:\n        /* \"#utility.yul\":6472:6476   */\n      0x00\n        /* \"#utility.yul\":6510:6512   */\n      0x60\n        /* \"#utility.yul\":6499:6508   */\n      dup3\n        /* \"#utility.yul\":6495:6513   */\n      add\n        /* \"#utility.yul\":6487:6513   */\n      swap1\n      pop\n        /* \"#utility.yul\":6523:6594   */\n      tag_288\n        /* \"#utility.yul\":6591:6592   */\n      0x00\n        /* \"#utility.yul\":6580:6589   */\n      dup4\n        /* \"#utility.yul\":6576:6593   */\n      add\n        /* \"#utility.yul\":6567:6573   */\n      dup7\n        /* \"#utility.yul\":6523:6594   */\n      tag_259\n      jump\t// in\n    tag_288:\n        /* \"#utility.yul\":6604:6676   */\n      tag_289\n        /* \"#utility.yul\":6672:6674   */\n      0x20\n        /* \"#utility.yul\":6661:6670   */\n      dup4\n        /* \"#utility.yul\":6657:6675   */\n      add\n        /* \"#utility.yul\":6648:6654   */\n      dup6\n        /* \"#utility.yul\":6604:6676   */\n      tag_259\n      jump\t// in\n    tag_289:\n        /* \"#utility.yul\":6686:6758   */\n      tag_290\n        /* \"#utility.yul\":6754:6756   */\n      0x40\n        /* \"#utility.yul\":6743:6752   */\n      dup4\n        /* \"#utility.yul\":6739:6757   */\n      add\n        /* \"#utility.yul\":6730:6736   */\n      dup5\n        /* \"#utility.yul\":6686:6758   */\n      tag_259\n      jump\t// in\n    tag_290:\n        /* \"#utility.yul\":6323:6765   */\n      swap5\n      swap4\n      pop\n      pop\n      pop\n      pop\n      jump\t// out\n        /* \"#utility.yul\":6852:7021   */\n    tag_246:\n        /* \"#utility.yul\":6936:6947   */\n      0x00\n        /* \"#utility.yul\":6970:6976   */\n      dup3\n        /* \"#utility.yul\":6965:6968   */\n      dup3\n        /* \"#utility.yul\":6958:6977   */\n      mstore\n        /* \"#utility.yul\":7010:7014   */\n      0x20\n        /* \"#utility.yul\":7005:7008   */\n      dup3\n        /* \"#utility.yul\":7001:7015   */\n      add\n        /* \"#utility.yul\":6986:7015   */\n      swap1\n      pop\n        /* \"#utility.yul\":6852:7021   */\n      swap3\n      swap2\n      pop\n      pop\n      jump\t// out\n        /* \"#utility.yul\":7027:7332   */\n    tag_116:\n        /* \"#utility.yul\":7067:7070   */\n      0x00\n        /* \"#utility.yul\":7086:7106   */\n      tag_295\n        /* \"#utility.yul\":7104:7105   */\n      dup3\n        /* \"#utility.yul\":7086:7106   */\n      tag_262\n      jump\t// in\n    tag_295:\n        /* \"#utility.yul\":7081:7106   */\n      swap2\n      pop\n        /* \"#utility.yul\":7120:7140   */\n      tag_296\n        /* \"#utility.yul\":7138:7139   */\n      dup4\n        /* \"#utility.yul\":7120:7140   */\n      tag_262\n      jump\t// in\n    tag_296:\n        /* \"#utility.yul\":7115:7140   */\n      swap3\n      pop\n        /* \"#utility.yul\":7274:7275   */\n      dup3\n        /* \"#utility.yul\":7206:7272   */\n      0xffffffffffffffffffffffffffffffffffffffffffffffffffffffffffffffff\n        /* \"#utility.yul\":7202:7276   */\n      sub\n        /* \"#utility.yul\":7199:7200   */\n      dup3\n        /* \"#utility.yul\":7196:7277   */\n      gt\n        /* \"#utility.yul\":7193:7300   */\n      iszero\n      tag_297\n      jumpi\n        /* \"#utility.yul\":7280:7298   */\n      tag_298\n      tag_299\n      jump\t// in\n    tag_298:\n        /* \"#utility.yul\":7193:7300   */\n    tag_297:\n        /* \"#utility.yul\":7324:7325   */\n      dup3\n        /* \"#utility.yul\":7321:7322   */\n      dup3\n        /* \"#utility.yul\":7317:7326   */\n      add\n        /* \"#utility.yul\":7310:7326   */\n      swap1\n      pop\n        /* \"#utility.yul\":7027:7332   */\n      swap3\n      swap2\n      pop\n      pop\n      jump\t// out\n        /* \"#utility.yul\":7338:7523   */\n    tag_81:\n        /* \"#utility.yul\":7378:7379   */\n      0x00\n        /* \"#utility.yul\":7395:7415   */\n      tag_301\n        /* \"#utility.yul\":7413:7414   */\n      dup3\n        /* \"#utility.yul\":7395:7415   */\n      tag_262\n      jump\t// in\n    tag_301:\n        /* \"#utility.yul\":7390:7415   */\n      swap2\n      pop\n        /* \"#utility.yul\":7429:7449   */\n      tag_302\n        /* \"#utility.yul\":7447:7448   */\n      dup4\n        /* \"#utility.yul\":7429:7449   */\n      tag_262\n      jump\t// in\n    tag_302:\n        /* \"#utility.yul\":7424:7449   */\n      swap3\n      pop\n        /* \"#utility.yul\":7468:7469   */\n      dup3\n        /* \"#utility.yul\":7458:7493   */\n      tag_303\n      jumpi\n        /* \"#utility.yul\":7473:7491   */\n      tag_304\n      tag_305\n      jump\t// in\n    tag_304:\n        /* \"#utility.yul\":7458:7493   */\n    tag_303:\n        /* \"#utility.yul\":7515:7516   */\n      dup3\n        /* \"#utility.yul\":7512:7513   */\n      dup3\n        /* \"#utility.yul\":7508:7517   */\n      div\n        /* \"#utility.yul\":7503:7517   */\n      swap1\n      pop\n        /* \"#utility.yul\":7338:7523   */\n      swap3\n      swap2\n      pop\n      pop\n      jump\t// out\n        /* \"#utility.yul\":7529:7877   */\n    tag_79:\n        /* \"#utility.yul\":7569:7576   */\n      0x00\n        /* \"#utility.yul\":7592:7612   */\n      tag_307\n        /* \"#utility.yul\":7610:7611   */\n      dup3\n        /* \"#utility.yul\":7592:7612   */\n      tag_262\n      jump\t// in\n    tag_307:\n        /* \"#utility.yul\":7587:7612   */\n      swap2\n      pop\n        /* \"#utility.yul\":7626:7646   */\n      tag_308\n        /* \"#utility.yul\":7644:7645   */\n      dup4\n        /* \"#utility.yul\":7626:7646   */\n      tag_262\n      jump\t// in\n    tag_308:\n        /* \"#utility.yul\":7621:7646   */\n      swap3\n      pop\n        /* \"#utility.yul\":7814:7815   */\n      dup2\n        /* \"#utility.yul\":7746:7812   */\n      0xffffffffffffffffffffffffffffffffffffffffffffffffffffffffffffffff\n        /* \"#utility.yul\":7742:7816   */\n      div\n        /* \"#utility.yul\":7739:7740   */\n      dup4\n        /* \"#utility.yul\":7736:7817   */\n      gt\n        /* \"#utility.yul\":7731:7732   */\n      dup3\n        /* \"#utility.yul\":7724:7733   */\n      iszero\n        /* \"#utility.yul\":7717:7734   */\n      iszero\n        /* \"#utility.yul\":7713:7818   */\n      and\n        /* \"#utility.yul\":7710:7841   */\n      iszero\n      tag_309\n      jumpi\n        /* \"#utility.yul\":7821:7839   */\n      tag_310\n      tag_299\n      jump\t// in\n    tag_310:\n        /* \"#utility.yul\":7710:7841   */\n    tag_309:\n        /* \"#utility.yul\":7869:7870   */\n      dup3\n        /* \"#utility.yul\":7866:7867   */\n      dup3\n        /* \"#utility.yul\":7862:7871   */\n      mul\n        /* \"#utility.yul\":7851:7871   */\n      swap1\n      pop\n        /* \"#utility.yul\":7529:7877   */\n      swap3\n      swap2\n      pop\n      pop\n      jump\t// out\n        /* \"#utility.yul\":7883:8074   */\n    tag_76:\n        /* \"#utility.yul\":7923:7927   */\n      0x00\n        /* \"#utility.yul\":7943:7963   */\n      tag_312\n        /* \"#utility.yul\":7961:7962   */\n      dup3\n        /* \"#utility.yul\":7943:7963   */\n      tag_262\n      jump\t// in\n    tag_312:\n        /* \"#utility.yul\":7938:7963   */\n      swap2\n      pop\n        /* \"#utility.yul\":7977:7997   */\n      tag_313\n        /* \"#utility.yul\":7995:7996   */\n      dup4\n        /* \"#utility.yul\":7977:7997   */\n      tag_262\n      jump\t// in\n    tag_313:\n        /* \"#utility.yul\":7972:7997   */\n      swap3\n      pop\n        /* \"#utility.yul\":8016:8017   */\n      dup3\n        /* \"#utility.yul\":8013:8014   */\n      dup3\n        /* \"#utility.yul\":8010:8018   */\n      lt\n        /* \"#utility.yul\":8007:8041   */\n      iszero\n      tag_314\n      jumpi\n        /* \"#utility.yul\":8021:8039   */\n      tag_315\n      tag_299\n      jump\t// in\n    tag_315:\n        /* \"#utility.yul\":8007:8041   */\n    tag_314:\n        /* \"#utility.yul\":8066:8067   */\n      dup3\n        /* \"#utility.yul\":8063:8064   */\n      dup3\n        /* \"#utility.yul\":8059:8068   */\n      sub\n        /* \"#utility.yul\":8051:8068   */\n      swap1\n      pop\n        /* \"#utility.yul\":7883:8074   */\n      swap3\n      swap2\n      pop\n      pop\n      jump\t// out\n        /* \"#utility.yul\":8080:8176   */\n    tag_242:\n        /* \"#utility.yul\":8117:8124   */\n      0x00\n        /* \"#utility.yul\":8146:8170   */\n      tag_317\n        /* \"#utility.yul\":8164:8169   */\n      dup3\n        /* \"#utility.yul\":8146:8170   */\n      tag_318\n      jump\t// in\n    tag_317:\n        /* \"#utility.yul\":8135:8170   */\n      swap1\n      pop\n        /* \"#utility.yul\":8080:8176   */\n      swap2\n      swap1\n      pop\n      jump\t// out\n        /* \"#utility.yul\":8182:8272   */\n    tag_319:\n        /* \"#utility.yul\":8216:8223   */\n      0x00\n        /* \"#utility.yul\":8259:8264   */\n      dup2\n        /* \"#utility.yul\":8252:8265   */\n      iszero\n        /* \"#utility.yul\":8245:8266   */\n      iszero\n        /* \"#utility.yul\":8234:8266   */\n      swap1\n      pop\n        /* \"#utility.yul\":8182:8272   */\n      swap2\n      swap1\n      pop\n      jump\t// out\n        /* \"#utility.yul\":8278:8404   */\n    tag_318:\n        /* \"#utility.yul\":8315:8322   */\n      0x00\n        /* \"#utility.yul\":8355:8397   */\n      0xffffffffffffffffffffffffffffffffffffffff\n        /* \"#utility.yul\":8348:8353   */\n      dup3\n        /* \"#utility.yul\":8344:8398   */\n      and\n        /* \"#utility.yul\":8333:8398   */\n      swap1\n      pop\n        /* \"#utility.yul\":8278:8404   */\n      swap2\n      swap1\n      pop\n      jump\t// out\n        /* \"#utility.yul\":8410:8487   */\n    tag_262:\n        /* \"#utility.yul\":8447:8454   */\n      0x00\n        /* \"#utility.yul\":8476:8481   */\n      dup2\n        /* \"#utility.yul\":8465:8481   */\n      swap1\n      pop\n        /* \"#utility.yul\":8410:8487   */\n      swap2\n      swap1\n      pop\n      jump\t// out\n        /* \"#utility.yul\":8493:8627   */\n    tag_238:\n        /* \"#utility.yul\":8551:8560   */\n      0x00\n        /* \"#utility.yul\":8584:8621   */\n      tag_324\n        /* \"#utility.yul\":8615:8620   */\n      dup3\n        /* \"#utility.yul\":8584:8621   */\n      tag_325\n      jump\t// in\n    tag_324:\n        /* \"#utility.yul\":8571:8621   */\n      swap1\n      pop\n        /* \"#utility.yul\":8493:8627   */\n      swap2\n      swap1\n      pop\n      jump\t// out\n        /* \"#utility.yul\":8633:8759   */\n    tag_325:\n        /* \"#utility.yul\":8683:8692   */\n      0x00\n        /* \"#utility.yul\":8716:8753   */\n      tag_327\n        /* \"#utility.yul\":8747:8752   */\n      dup3\n        /* \"#utility.yul\":8716:8753   */\n      tag_328\n      jump\t// in\n    tag_327:\n        /* \"#utility.yul\":8703:8753   */\n      swap1\n      pop\n        /* \"#utility.yul\":8633:8759   */\n      swap2\n      swap1\n      pop\n      jump\t// out\n        /* \"#utility.yul\":8765:8878   */\n    tag_328:\n        /* \"#utility.yul\":8815:8824   */\n      0x00\n        /* \"#utility.yul\":8848:8872   */\n      tag_330\n        /* \"#utility.yul\":8866:8871   */\n      dup3\n        /* \"#utility.yul\":8848:8872   */\n      tag_318\n      jump\t// in\n    tag_330:\n        /* \"#utility.yul\":8835:8872   */\n      swap1\n      pop\n        /* \"#utility.yul\":8765:8878   */\n      swap2\n      swap1\n      pop\n      jump\t// out\n        /* \"#utility.yul\":8884:9064   */\n    tag_299:\n        /* \"#utility.yul\":8932:9009   */\n      0x4e487b7100000000000000000000000000000000000000000000000000000000\n        /* \"#utility.yul\":8929:8930   */\n      0x00\n        /* \"#utility.yul\":8922:9010   */\n      mstore\n        /* \"#utility.yul\":9029:9033   */\n      0x11\n        /* \"#utility.yul\":9026:9027   */\n      0x04\n        /* \"#utility.yul\":9019:9034   */\n      mstore\n        /* \"#utility.yul\":9053:9057   */\n      0x24\n        /* \"#utility.yul\":9050:9051   */\n      0x00\n        /* \"#utility.yul\":9043:9058   */\n      revert\n        /* \"#utility.yul\":9070:9250   */\n    tag_305:\n        /* \"#utility.yul\":9118:9195   */\n      0x4e487b7100000000000000000000000000000000000000000000000000000000\n        /* \"#utility.yul\":9115:9116   */\n      0x00\n        /* \"#utility.yul\":9108:9196   */\n      mstore\n        /* \"#utility.yul\":9215:9219   */\n      0x12\n        /* \"#utility.yul\":9212:9213   */\n      0x04\n        /* \"#utility.yul\":9205:9220   */\n      mstore\n        /* \"#utility.yul\":9239:9243   */\n      0x24\n        /* \"#utility.yul\":9236:9237   */\n      0x00\n        /* \"#utility.yul\":9229:9244   */\n      revert\n        /* \"#utility.yul\":9379:9496   */\n    tag_225:\n        /* \"#utility.yul\":9488:9489   */\n      0x00\n        /* \"#utility.yul\":9485:9486   */\n      dup1\n        /* \"#utility.yul\":9478:9490   */\n      revert\n        /* \"#utility.yul\":9502:9671   */\n    tag_248:\n        /* \"#utility.yul\":9642:9663   */\n      0x6c697175696469747920696e62616c616e636500000000000000000000000000\n        /* \"#utility.yul\":9638:9639   */\n      0x00\n        /* \"#utility.yul\":9630:9636   */\n      dup3\n        /* \"#utility.yul\":9626:9640   */\n      add\n        /* \"#utility.yul\":9619:9664   */\n      mstore\n        /* \"#utility.yul\":9502:9671   */\n      pop\n      jump\t// out\n        /* \"#utility.yul\":9677:9838   */\n    tag_253:\n        /* \"#utility.yul\":9817:9830   */\n      0x4e6f2072652d656e747279000000000000000000000000000000000000000000\n        /* \"#utility.yul\":9813:9814   */\n      0x00\n        /* \"#utility.yul\":9805:9811   */\n      dup3\n        /* \"#utility.yul\":9801:9815   */\n      add\n        /* \"#utility.yul\":9794:9831   */\n      mstore\n        /* \"#utility.yul\":9677:9838   */\n      pop\n      jump\t// out\n        /* \"#utility.yul\":9844:10017   */\n    tag_258:\n        /* \"#utility.yul\":9984:10005   */\n      0x7472616e73666572206661696c65642e203a2800000000000000000000000000\n        /* \"#utility.yul\":9980:9981   */\n      0x00\n        /* \"#utility.yul\":9972:9978   */\n      dup3\n        /* \"#utility.yul\":9968:9982   */\n      add\n        /* \"#utility.yul\":9961:10006   */\n      mstore\n        /* \"#utility.yul\":9844:10017   */\n      pop\n      jump\t// out\n        /* \"#utility.yul\":10027:10151   */\n    tag_214:\n        /* \"#utility.yul\":10101:10122   */\n      tag_340\n        /* \"#utility.yul\":10116:10121   */\n      dup2\n        /* \"#utility.yul\":10101:10122   */\n      tag_319\n      jump\t// in\n    tag_340:\n        /* \"#utility.yul\":10094:10099   */\n      dup2\n        /* \"#utility.yul\":10091:10123   */\n      eq\n        /* \"#utility.yul\":10081:10141   */\n      tag_341\n      jumpi\n        /* \"#utility.yul\":10137:10138   */\n      0x00\n        /* \"#utility.yul\":10134:10135   */\n      dup1\n        /* \"#utility.yul\":10127:10139   */\n      revert\n        /* \"#utility.yul\":10081:10141   */\n    tag_341:\n        /* \"#utility.yul\":10027:10151   */\n      pop\n      jump\t// out\n        /* \"#utility.yul\":10161:10291   */\n    tag_218:\n        /* \"#utility.yul\":10238:10262   */\n      tag_343\n        /* \"#utility.yul\":10256:10261   */\n      dup2\n        /* \"#utility.yul\":10238:10262   */\n      tag_262\n      jump\t// in\n    tag_343:\n        /* \"#utility.yul\":10231:10236   */\n      dup2\n        /* \"#utility.yul\":10228:10263   */\n      eq\n        /* \"#utility.yul\":10218:10281   */\n      tag_344\n      jumpi\n        /* \"#utility.yul\":10277:10278   */\n      0x00\n        /* \"#utility.yul\":10274:10275   */\n      dup1\n        /* \"#utility.yul\":10267:10279   */\n      revert\n        /* \"#utility.yul\":10218:10281   */\n    tag_344:\n        /* \"#utility.yul\":10161:10291   */\n      pop\n      jump\t// out\n\n    auxdata: 0xa2646970667358221220920b8a52facf59ed74ba9f72eeb4ef53f52925a1d4e5c0ae6b3ef65f25fb42cc64736f6c63430008070033\n}\n",
				"bytecode": {
					"linkReferences": {},
					"object": "608060405260006001556000600255600060035560006004556000600660006101000a81548160ff0219169083151502179055503480156200004057600080fd5b50604051620019e1380380620019e18339818101604052810190620000669190620000ca565b6000819050806000806101000a81548173ffffffffffffffffffffffffffffffffffffffff021916908373ffffffffffffffffffffffffffffffffffffffff16021790555050506200014f565b600081519050620000c48162000135565b92915050565b600060208284031215620000e357620000e262000130565b5b6000620000f384828501620000b3565b91505092915050565b6000620001098262000110565b9050919050565b600073ffffffffffffffffffffffffffffffffffffffff82169050919050565b600080fd5b6200014081620000fc565b81146200014c57600080fd5b50565b611882806200015f6000396000f3fe6080604052600436106100a75760003560e01c8063a932492f11610064578063a932492f146101dd578063bc23ae5e14610208578063c8ab832514610233578063e0ba200014610263578063eb521a4c1461028e578063ed7bf868146102be576100a7565b80630a861f2a146100ac578063240f3dea146100dd57806329cbab3e1461011a5780635d58ce361461013857806379ed356214610163578063903875f7146101a0575b600080fd5b6100c660048036038101906100c1919061131f565b6102fb565b6040516100d492919061153c565b60405180910390f35b3480156100e957600080fd5b5061010460048036038101906100ff919061131f565b6106d0565b6040516101119190611521565b60405180910390f35b61012261070a565b60405161012f9190611521565b60405180910390f35b34801561014457600080fd5b5061014d610977565b60405161015a9190611521565b60405180910390f35b34801561016f57600080fd5b5061018a6004803603810190610185919061131f565b61097d565b6040516101979190611521565b60405180910390f35b3480156101ac57600080fd5b506101c760048036038101906101c2919061131f565b6109cf565b6040516101d49190611521565b60405180910390f35b3480156101e957600080fd5b506101f2610a22565b6040516101ff9190611521565b60405180910390f35b34801561021457600080fd5b5061021d610a28565b60405161022a9190611521565b60405180910390f35b61024d6004803603810190610248919061131f565b610aeb565b60405161025a9190611521565b60405180910390f35b34801561026f57600080fd5b50610278610d1b565b6040516102859190611521565b60405180910390f35b6102a860048036038101906102a3919061131f565b610d62565b6040516102b59190611521565b60405180910390f35b3480156102ca57600080fd5b506102e560048036038101906102e0919061131f565b611279565b6040516102f29190611521565b60405180910390f35b600080600660009054906101000a900460ff161561034e576040517f08c379a0000000000000000000000000000000000000000000000000000000008152600401610345906114e1565b60405180910390fd5b6001600660006101000a81548160ff021916908315150217905550600560003373ffffffffffffffffffffffffffffffffffffffff1673ffffffffffffffffffffffffffffffffffffffff1681526020019081526020016000205483111580156103c657506000836003546103c3919061168e565b10155b1561065657600354600254846103dc9190611634565b6103e69190611603565b9150600354600154846103f99190611634565b6104039190611603565b905082600560003373ffffffffffffffffffffffffffffffffffffffff1673ffffffffffffffffffffffffffffffffffffffff1681526020019081526020016000206000828254610454919061168e565b92505081905550826003600082825461046d919061168e565b9250508190555060003390508073ffffffffffffffffffffffffffffffffffffffff166108fc849081150290604051600060405180830381858888f193505050501580156104bf573d6000803e3d6000fd5b5082600260008282546104d2919061168e565b9250508190555060008054906101000a900473ffffffffffffffffffffffffffffffffffffffff1673ffffffffffffffffffffffffffffffffffffffff1663095ea7b330846040518363ffffffff1660e01b8152600401610534929190611498565b602060405180830381600087803b15801561054e57600080fd5b505af1158015610562573d6000803e3d6000fd5b505050506040513d601f19601f8201168201806040525081019061058691906112f2565b5060008054906101000a900473ffffffffffffffffffffffffffffffffffffffff1673ffffffffffffffffffffffffffffffffffffffff166323b872dd3083856040518463ffffffff1660e01b81526004016105e49392919061142a565b602060405180830381600087803b1580156105fe57600080fd5b505af1158015610612573d6000803e3d6000fd5b505050506040513d601f19601f8201168201806040525081019061063691906112f2565b508160016000828254610649919061168e565b925050819055505061065f565b60009150600090505b60015460025461066f9190611634565b6004819055507fb14f451e613015c13a17c78777f1d87fcb448d7330d67299a09b8f2db38aab108183856040516106a893929190611565565b60405180910390a16000600660006101000a81548160ff021916908315150217905550915091565b6000670de0b6b3a7640000826106e69190611634565b9150600154826002546106f99190611634565b6107039190611603565b9050919050565b6000600660009054906101000a900460ff161561075c576040517f08c379a0000000000000000000000000000000000000000000000000000000008152600401610753906114e1565b60405180910390fd5b6001600660006101000a81548160ff021916908315150217905550346002600082825461078991906115ad565b9250508190555060006002546004546107a29190611603565b9050806001546107b2919061168e565b9150600033905060008054906101000a900473ffffffffffffffffffffffffffffffffffffffff1673ffffffffffffffffffffffffffffffffffffffff1663095ea7b330856040518363ffffffff1660e01b8152600401610814929190611498565b602060405180830381600087803b15801561082e57600080fd5b505af1158015610842573d6000803e3d6000fd5b505050506040513d601f19601f8201168201806040525081019061086691906112f2565b5060008054906101000a900473ffffffffffffffffffffffffffffffffffffffff1673ffffffffffffffffffffffffffffffffffffffff166323b872dd3083866040518463ffffffff1660e01b81526004016108c49392919061142a565b602060405180830381600087803b1580156108de57600080fd5b505af11580156108f2573d6000803e3d6000fd5b505050506040513d601f19601f8201168201806040525081019061091691906112f2565b50816001819055507fcdfc57b3d0cdc24b23cea1f480aabea287321f5bee23ad76c2b52fa7982f5ea5833460405161094f92919061153c565b60405180910390a150506000600660006101000a81548160ff02191690831515021790555090565b60025481565b6000808260025461098e91906115ad565b90506000816004546109a09190611603565b9050806001546109b0919061168e565b9250678ac7230489e80000836109c69190611603565b92505050919050565b6000670de0b6b3a7640000826109e59190611634565b91506000826001546109f791906115ad565b9050600081600454610a099190611603565b905080600254610a19919061168e565b92505050919050565b60045481565b6000670de0b6b3a764000060008054906101000a900473ffffffffffffffffffffffffffffffffffffffff1673ffffffffffffffffffffffffffffffffffffffff166370a08231306040518263ffffffff1660e01b8152600401610a8c919061140f565b60206040518083038186803b158015610aa457600080fd5b505afa158015610ab8573d6000803e3d6000fd5b505050506040513d601f19601f82011682018060405250810190610adc919061134c565b610ae69190611603565b905090565b6000600660009054906101000a900460ff1615610b3d576040517f08c379a0000000000000000000000000000000000000000000000000000000008152600401610b34906114e1565b60405180910390fd5b6001600660006101000a81548160ff021916908315150217905550670de0b6b3a764000082610b6c9190611634565b915060008054906101000a900473ffffffffffffffffffffffffffffffffffffffff1673ffffffffffffffffffffffffffffffffffffffff166323b872dd3330856040518463ffffffff1660e01b8152600401610bcb93929190611461565b602060405180830381600087803b158015610be557600080fd5b505af1158015610bf9573d6000803e3d6000fd5b505050506040513d601f19601f82011682018060405250810190610c1d91906112f2565b508160016000828254610c3091906115ad565b925050819055506000600154600454610c499190611603565b905080600254610c59919061168e565b915060003390508073ffffffffffffffffffffffffffffffffffffffff166108fc849081150290604051600060405180830381858888f19350505050158015610ca6573d6000803e3d6000fd5b508260026000828254610cb9919061168e565b925050819055507f3297a389bb586920e62a196af529d5f42651b17a1013d6bfe77f22372a0b21128484604051610cf192919061153c565b60405180910390a150506000600660006101000a81548160ff021916908315150217905550919050565b6000600560003373ffffffffffffffffffffffffffffffffffffffff1673ffffffffffffffffffffffffffffffffffffffff16815260200190815260200160002054905090565b6000600660009054906101000a900460ff1615610db4576040517f08c379a0000000000000000000000000000000000000000000000000000000008152600401610dab906114e1565b60405180910390fd5b6001600660006101000a81548160ff02191690831515021790555060003490508060026000828254610de691906115ad565b92505081905550670de0b6b3a764000083610e019190611634565b925060008054906101000a900473ffffffffffffffffffffffffffffffffffffffff1673ffffffffffffffffffffffffffffffffffffffff1663095ea7b330856040518363ffffffff1660e01b8152600401610e5e929190611498565b602060405180830381600087803b158015610e7857600080fd5b505af1158015610e8c573d6000803e3d6000fd5b505050506040513d601f19601f82011682018060405250810190610eb091906112f2565b5060008060009054906101000a900473ffffffffffffffffffffffffffffffffffffffff1673ffffffffffffffffffffffffffffffffffffffff166323b872dd3330876040518463ffffffff1660e01b8152600401610f1193929190611461565b602060405180830381600087803b158015610f2b57600080fd5b505af1158015610f3f573d6000803e3d6000fd5b505050506040513d601f19601f82011682018060405250810190610f6391906112f2565b905080610fa5576040517f08c379a0000000000000000000000000000000000000000000000000000000008152600401610f9c90611501565b60405180910390fd5b8360016000828254610fb791906115ad565b9250508190555060025482600354610fcf9190611634565b610fd99190611603565b60015485600354610fea9190611634565b610ff49190611603565b14611034576040517f08c379a000000000000000000000000000000000000000000000000000000000815260040161102b906114c1565b60405180910390fd5b600060035414156110e1576064600560003373ffffffffffffffffffffffffffffffffffffffff1673ffffffffffffffffffffffffffffffffffffffff16815260200190815260200160002081905550600560003373ffffffffffffffffffffffffffffffffffffffff1673ffffffffffffffffffffffffffffffffffffffff16815260200190815260200160002054600360008282546110d591906115ad565b92505081905550611185565b600154846003546110f29190611634565b6110fc9190611603565b600560003373ffffffffffffffffffffffffffffffffffffffff1673ffffffffffffffffffffffffffffffffffffffff168152602001908152602001600020600082825461114a91906115ad565b92505081905550600154846003546111629190611634565b61116c9190611603565b6003600082825461117d91906115ad565b925050819055505b6001546002546111959190611634565b6004819055507faa58f006cc244b2af6662862508bd39465f57169ff8386d1d1f7b0b903150abc8483600560003373ffffffffffffffffffffffffffffffffffffffff1673ffffffffffffffffffffffffffffffffffffffff1681526020019081526020016000205460405161120d93929190611565565b60405180910390a1600560003373ffffffffffffffffffffffffffffffffffffffff1673ffffffffffffffffffffffffffffffffffffffff16815260200190815260200160002054925050506000600660006101000a81548160ff021916908315150217905550919050565b60006002548260015461128c9190611634565b6112969190611603565b9050670de0b6b3a7640000816112ac9190611603565b9050919050565b6000815190506112c28161181e565b92915050565b6000813590506112d781611835565b92915050565b6000815190506112ec81611835565b92915050565b6000602082840312156113085761130761179e565b5b6000611316848285016112b3565b91505092915050565b6000602082840312156113355761133461179e565b5b6000611343848285016112c8565b91505092915050565b6000602082840312156113625761136161179e565b5b6000611370848285016112dd565b91505092915050565b6113828161170a565b82525050565b611391816116c2565b82525050565b60006113a460138361159c565b91506113af826117a3565b602082019050919050565b60006113c7600b8361159c565b91506113d2826117cc565b602082019050919050565b60006113ea60138361159c565b91506113f5826117f5565b602082019050919050565b61140981611700565b82525050565b60006020820190506114246000830184611388565b92915050565b600060608201905061143f6000830186611388565b61144c6020830185611379565b6114596040830184611400565b949350505050565b60006060820190506114766000830186611388565b6114836020830185611388565b6114906040830184611400565b949350505050565b60006040820190506114ad6000830185611388565b6114ba6020830184611400565b9392505050565b600060208201905081810360008301526114da81611397565b9050919050565b600060208201905081810360008301526114fa816113ba565b9050919050565b6000602082019050818103600083015261151a816113dd565b9050919050565b60006020820190506115366000830184611400565b92915050565b60006040820190506115516000830185611400565b61155e6020830184611400565b9392505050565b600060608201905061157a6000830186611400565b6115876020830185611400565b6115946040830184611400565b949350505050565b600082825260208201905092915050565b60006115b882611700565b91506115c383611700565b9250827fffffffffffffffffffffffffffffffffffffffffffffffffffffffffffffffff038211156115f8576115f7611740565b5b828201905092915050565b600061160e82611700565b915061161983611700565b9250826116295761162861176f565b5b828204905092915050565b600061163f82611700565b915061164a83611700565b9250817fffffffffffffffffffffffffffffffffffffffffffffffffffffffffffffffff048311821515161561168357611682611740565b5b828202905092915050565b600061169982611700565b91506116a483611700565b9250828210156116b7576116b6611740565b5b828203905092915050565b60006116cd826116e0565b9050919050565b60008115159050919050565b600073ffffffffffffffffffffffffffffffffffffffff82169050919050565b6000819050919050565b60006117158261171c565b9050919050565b60006117278261172e565b9050919050565b6000611739826116e0565b9050919050565b7f4e487b7100000000000000000000000000000000000000000000000000000000600052601160045260246000fd5b7f4e487b7100000000000000000000000000000000000000000000000000000000600052601260045260246000fd5b600080fd5b7f6c697175696469747920696e62616c616e636500000000000000000000000000600082015250565b7f4e6f2072652d656e747279000000000000000000000000000000000000000000600082015250565b7f7472616e73666572206661696c65642e203a2800000000000000000000000000600082015250565b611827816116d4565b811461183257600080fd5b50565b61183e81611700565b811461184957600080fd5b5056fea2646970667358221220920b8a52facf59ed74ba9f72eeb4ef53f52925a1d4e5c0ae6b3ef65f25fb42cc64736f6c63430008070033",
					"opcodes": "PUSH1 0x80 PUSH1 0x40 MSTORE PUSH1 0x0 PUSH1 0x1 SSTORE PUSH1 0x0 PUSH1 0x2 SSTORE PUSH1 0x0 PUSH1 0x3 SSTORE PUSH1 0x0 PUSH1 0x4 SSTORE PUSH1 0x0 PUSH1 0x6 PUSH1 0x0 PUSH2 0x100 EXP DUP2 SLOAD DUP2 PUSH1 0xFF MUL NOT AND SWAP1 DUP4 ISZERO ISZERO MUL OR SWAP1 SSTORE POP CALLVALUE DUP1 ISZERO PUSH3 0x40 JUMPI PUSH1 0x0 DUP1 REVERT JUMPDEST POP PUSH1 0x40 MLOAD PUSH3 0x19E1 CODESIZE SUB DUP1 PUSH3 0x19E1 DUP4 CODECOPY DUP2 DUP2 ADD PUSH1 0x40 MSTORE DUP2 ADD SWAP1 PUSH3 0x66 SWAP2 SWAP1 PUSH3 0xCA JUMP JUMPDEST PUSH1 0x0 DUP2 SWAP1 POP DUP1 PUSH1 0x0 DUP1 PUSH2 0x100 EXP DUP2 SLOAD DUP2 PUSH20 0xFFFFFFFFFFFFFFFFFFFFFFFFFFFFFFFFFFFFFFFF MUL NOT AND SWAP1 DUP4 PUSH20 0xFFFFFFFFFFFFFFFFFFFFFFFFFFFFFFFFFFFFFFFF AND MUL OR SWAP1 SSTORE POP POP POP PUSH3 0x14F JUMP JUMPDEST PUSH1 0x0 DUP2 MLOAD SWAP1 POP PUSH3 0xC4 DUP2 PUSH3 0x135 JUMP JUMPDEST SWAP3 SWAP2 POP POP JUMP JUMPDEST PUSH1 0x0 PUSH1 0x20 DUP3 DUP5 SUB SLT ISZERO PUSH3 0xE3 JUMPI PUSH3 0xE2 PUSH3 0x130 JUMP JUMPDEST JUMPDEST PUSH1 0x0 PUSH3 0xF3 DUP5 DUP3 DUP6 ADD PUSH3 0xB3 JUMP JUMPDEST SWAP2 POP POP SWAP3 SWAP2 POP POP JUMP JUMPDEST PUSH1 0x0 PUSH3 0x109 DUP3 PUSH3 0x110 JUMP JUMPDEST SWAP1 POP SWAP2 SWAP1 POP JUMP JUMPDEST PUSH1 0x0 PUSH20 0xFFFFFFFFFFFFFFFFFFFFFFFFFFFFFFFFFFFFFFFF DUP3 AND SWAP1 POP SWAP2 SWAP1 POP JUMP JUMPDEST PUSH1 0x0 DUP1 REVERT JUMPDEST PUSH3 0x140 DUP2 PUSH3 0xFC JUMP JUMPDEST DUP2 EQ PUSH3 0x14C JUMPI PUSH1 0x0 DUP1 REVERT JUMPDEST POP JUMP JUMPDEST PUSH2 0x1882 DUP1 PUSH3 0x15F PUSH1 0x0 CODECOPY PUSH1 0x0 RETURN INVALID PUSH1 0x80 PUSH1 0x40 MSTORE PUSH1 0x4 CALLDATASIZE LT PUSH2 0xA7 JUMPI PUSH1 0x0 CALLDATALOAD PUSH1 0xE0 SHR DUP1 PUSH4 0xA932492F GT PUSH2 0x64 JUMPI DUP1 PUSH4 0xA932492F EQ PUSH2 0x1DD JUMPI DUP1 PUSH4 0xBC23AE5E EQ PUSH2 0x208 JUMPI DUP1 PUSH4 0xC8AB8325 EQ PUSH2 0x233 JUMPI DUP1 PUSH4 0xE0BA2000 EQ PUSH2 0x263 JUMPI DUP1 PUSH4 0xEB521A4C EQ PUSH2 0x28E JUMPI DUP1 PUSH4 0xED7BF868 EQ PUSH2 0x2BE JUMPI PUSH2 0xA7 JUMP JUMPDEST DUP1 PUSH4 0xA861F2A EQ PUSH2 0xAC JUMPI DUP1 PUSH4 0x240F3DEA EQ PUSH2 0xDD JUMPI DUP1 PUSH4 0x29CBAB3E EQ PUSH2 0x11A JUMPI DUP1 PUSH4 0x5D58CE36 EQ PUSH2 0x138 JUMPI DUP1 PUSH4 0x79ED3562 EQ PUSH2 0x163 JUMPI DUP1 PUSH4 0x903875F7 EQ PUSH2 0x1A0 JUMPI JUMPDEST PUSH1 0x0 DUP1 REVERT JUMPDEST PUSH2 0xC6 PUSH1 0x4 DUP1 CALLDATASIZE SUB DUP2 ADD SWAP1 PUSH2 0xC1 SWAP2 SWAP1 PUSH2 0x131F JUMP JUMPDEST PUSH2 0x2FB JUMP JUMPDEST PUSH1 0x40 MLOAD PUSH2 0xD4 SWAP3 SWAP2 SWAP1 PUSH2 0x153C JUMP JUMPDEST PUSH1 0x40 MLOAD DUP1 SWAP2 SUB SWAP1 RETURN JUMPDEST CALLVALUE DUP1 ISZERO PUSH2 0xE9 JUMPI PUSH1 0x0 DUP1 REVERT JUMPDEST POP PUSH2 0x104 PUSH1 0x4 DUP1 CALLDATASIZE SUB DUP2 ADD SWAP1 PUSH2 0xFF SWAP2 SWAP1 PUSH2 0x131F JUMP JUMPDEST PUSH2 0x6D0 JUMP JUMPDEST PUSH1 0x40 MLOAD PUSH2 0x111 SWAP2 SWAP1 PUSH2 0x1521 JUMP JUMPDEST PUSH1 0x40 MLOAD DUP1 SWAP2 SUB SWAP1 RETURN JUMPDEST PUSH2 0x122 PUSH2 0x70A JUMP JUMPDEST PUSH1 0x40 MLOAD PUSH2 0x12F SWAP2 SWAP1 PUSH2 0x1521 JUMP JUMPDEST PUSH1 0x40 MLOAD DUP1 SWAP2 SUB SWAP1 RETURN JUMPDEST CALLVALUE DUP1 ISZERO PUSH2 0x144 JUMPI PUSH1 0x0 DUP1 REVERT JUMPDEST POP PUSH2 0x14D PUSH2 0x977 JUMP JUMPDEST PUSH1 0x40 MLOAD PUSH2 0x15A SWAP2 SWAP1 PUSH2 0x1521 JUMP JUMPDEST PUSH1 0x40 MLOAD DUP1 SWAP2 SUB SWAP1 RETURN JUMPDEST CALLVALUE DUP1 ISZERO PUSH2 0x16F JUMPI PUSH1 0x0 DUP1 REVERT JUMPDEST POP PUSH2 0x18A PUSH1 0x4 DUP1 CALLDATASIZE SUB DUP2 ADD SWAP1 PUSH2 0x185 SWAP2 SWAP1 PUSH2 0x131F JUMP JUMPDEST PUSH2 0x97D JUMP JUMPDEST PUSH1 0x40 MLOAD PUSH2 0x197 SWAP2 SWAP1 PUSH2 0x1521 JUMP JUMPDEST PUSH1 0x40 MLOAD DUP1 SWAP2 SUB SWAP1 RETURN JUMPDEST CALLVALUE DUP1 ISZERO PUSH2 0x1AC JUMPI PUSH1 0x0 DUP1 REVERT JUMPDEST POP PUSH2 0x1C7 PUSH1 0x4 DUP1 CALLDATASIZE SUB DUP2 ADD SWAP1 PUSH2 0x1C2 SWAP2 SWAP1 PUSH2 0x131F JUMP JUMPDEST PUSH2 0x9CF JUMP JUMPDEST PUSH1 0x40 MLOAD PUSH2 0x1D4 SWAP2 SWAP1 PUSH2 0x1521 JUMP JUMPDEST PUSH1 0x40 MLOAD DUP1 SWAP2 SUB SWAP1 RETURN JUMPDEST CALLVALUE DUP1 ISZERO PUSH2 0x1E9 JUMPI PUSH1 0x0 DUP1 REVERT JUMPDEST POP PUSH2 0x1F2 PUSH2 0xA22 JUMP JUMPDEST PUSH1 0x40 MLOAD PUSH2 0x1FF SWAP2 SWAP1 PUSH2 0x1521 JUMP JUMPDEST PUSH1 0x40 MLOAD DUP1 SWAP2 SUB SWAP1 RETURN JUMPDEST CALLVALUE DUP1 ISZERO PUSH2 0x214 JUMPI PUSH1 0x0 DUP1 REVERT JUMPDEST POP PUSH2 0x21D PUSH2 0xA28 JUMP JUMPDEST PUSH1 0x40 MLOAD PUSH2 0x22A SWAP2 SWAP1 PUSH2 0x1521 JUMP JUMPDEST PUSH1 0x40 MLOAD DUP1 SWAP2 SUB SWAP1 RETURN JUMPDEST PUSH2 0x24D PUSH1 0x4 DUP1 CALLDATASIZE SUB DUP2 ADD SWAP1 PUSH2 0x248 SWAP2 SWAP1 PUSH2 0x131F JUMP JUMPDEST PUSH2 0xAEB JUMP JUMPDEST PUSH1 0x40 MLOAD PUSH2 0x25A SWAP2 SWAP1 PUSH2 0x1521 JUMP JUMPDEST PUSH1 0x40 MLOAD DUP1 SWAP2 SUB SWAP1 RETURN JUMPDEST CALLVALUE DUP1 ISZERO PUSH2 0x26F JUMPI PUSH1 0x0 DUP1 REVERT JUMPDEST POP PUSH2 0x278 PUSH2 0xD1B JUMP JUMPDEST PUSH1 0x40 MLOAD PUSH2 0x285 SWAP2 SWAP1 PUSH2 0x1521 JUMP JUMPDEST PUSH1 0x40 MLOAD DUP1 SWAP2 SUB SWAP1 RETURN JUMPDEST PUSH2 0x2A8 PUSH1 0x4 DUP1 CALLDATASIZE SUB DUP2 ADD SWAP1 PUSH2 0x2A3 SWAP2 SWAP1 PUSH2 0x131F JUMP JUMPDEST PUSH2 0xD62 JUMP JUMPDEST PUSH1 0x40 MLOAD PUSH2 0x2B5 SWAP2 SWAP1 PUSH2 0x1521 JUMP JUMPDEST PUSH1 0x40 MLOAD DUP1 SWAP2 SUB SWAP1 RETURN JUMPDEST CALLVALUE DUP1 ISZERO PUSH2 0x2CA JUMPI PUSH1 0x0 DUP1 REVERT JUMPDEST POP PUSH2 0x2E5 PUSH1 0x4 DUP1 CALLDATASIZE SUB DUP2 ADD SWAP1 PUSH2 0x2E0 SWAP2 SWAP1 PUSH2 0x131F JUMP JUMPDEST PUSH2 0x1279 JUMP JUMPDEST PUSH1 0x40 MLOAD PUSH2 0x2F2 SWAP2 SWAP1 PUSH2 0x1521 JUMP JUMPDEST PUSH1 0x40 MLOAD DUP1 SWAP2 SUB SWAP1 RETURN JUMPDEST PUSH1 0x0 DUP1 PUSH1 0x6 PUSH1 0x0 SWAP1 SLOAD SWAP1 PUSH2 0x100 EXP SWAP1 DIV PUSH1 0xFF AND ISZERO PUSH2 0x34E JUMPI PUSH1 0x40 MLOAD PUSH32 0x8C379A000000000000000000000000000000000000000000000000000000000 DUP2 MSTORE PUSH1 0x4 ADD PUSH2 0x345 SWAP1 PUSH2 0x14E1 JUMP JUMPDEST PUSH1 0x40 MLOAD DUP1 SWAP2 SUB SWAP1 REVERT JUMPDEST PUSH1 0x1 PUSH1 0x6 PUSH1 0x0 PUSH2 0x100 EXP DUP2 SLOAD DUP2 PUSH1 0xFF MUL NOT AND SWAP1 DUP4 ISZERO ISZERO MUL OR SWAP1 SSTORE POP PUSH1 0x5 PUSH1 0x0 CALLER PUSH20 0xFFFFFFFFFFFFFFFFFFFFFFFFFFFFFFFFFFFFFFFF AND PUSH20 0xFFFFFFFFFFFFFFFFFFFFFFFFFFFFFFFFFFFFFFFF AND DUP2 MSTORE PUSH1 0x20 ADD SWAP1 DUP2 MSTORE PUSH1 0x20 ADD PUSH1 0x0 KECCAK256 SLOAD DUP4 GT ISZERO DUP1 ISZERO PUSH2 0x3C6 JUMPI POP PUSH1 0x0 DUP4 PUSH1 0x3 SLOAD PUSH2 0x3C3 SWAP2 SWAP1 PUSH2 0x168E JUMP JUMPDEST LT ISZERO JUMPDEST ISZERO PUSH2 0x656 JUMPI PUSH1 0x3 SLOAD PUSH1 0x2 SLOAD DUP5 PUSH2 0x3DC SWAP2 SWAP1 PUSH2 0x1634 JUMP JUMPDEST PUSH2 0x3E6 SWAP2 SWAP1 PUSH2 0x1603 JUMP JUMPDEST SWAP2 POP PUSH1 0x3 SLOAD PUSH1 0x1 SLOAD DUP5 PUSH2 0x3F9 SWAP2 SWAP1 PUSH2 0x1634 JUMP JUMPDEST PUSH2 0x403 SWAP2 SWAP1 PUSH2 0x1603 JUMP JUMPDEST SWAP1 POP DUP3 PUSH1 0x5 PUSH1 0x0 CALLER PUSH20 0xFFFFFFFFFFFFFFFFFFFFFFFFFFFFFFFFFFFFFFFF AND PUSH20 0xFFFFFFFFFFFFFFFFFFFFFFFFFFFFFFFFFFFFFFFF AND DUP2 MSTORE PUSH1 0x20 ADD SWAP1 DUP2 MSTORE PUSH1 0x20 ADD PUSH1 0x0 KECCAK256 PUSH1 0x0 DUP3 DUP3 SLOAD PUSH2 0x454 SWAP2 SWAP1 PUSH2 0x168E JUMP JUMPDEST SWAP3 POP POP DUP2 SWAP1 SSTORE POP DUP3 PUSH1 0x3 PUSH1 0x0 DUP3 DUP3 SLOAD PUSH2 0x46D SWAP2 SWAP1 PUSH2 0x168E JUMP JUMPDEST SWAP3 POP POP DUP2 SWAP1 SSTORE POP PUSH1 0x0 CALLER SWAP1 POP DUP1 PUSH20 0xFFFFFFFFFFFFFFFFFFFFFFFFFFFFFFFFFFFFFFFF AND PUSH2 0x8FC DUP5 SWAP1 DUP2 ISZERO MUL SWAP1 PUSH1 0x40 MLOAD PUSH1 0x0 PUSH1 0x40 MLOAD DUP1 DUP4 SUB DUP2 DUP6 DUP9 DUP9 CALL SWAP4 POP POP POP POP ISZERO DUP1 ISZERO PUSH2 0x4BF JUMPI RETURNDATASIZE PUSH1 0x0 DUP1 RETURNDATACOPY RETURNDATASIZE PUSH1 0x0 REVERT JUMPDEST POP DUP3 PUSH1 0x2 PUSH1 0x0 DUP3 DUP3 SLOAD PUSH2 0x4D2 SWAP2 SWAP1 PUSH2 0x168E JUMP JUMPDEST SWAP3 POP POP DUP2 SWAP1 SSTORE POP PUSH1 0x0 DUP1 SLOAD SWAP1 PUSH2 0x100 EXP SWAP1 DIV PUSH20 0xFFFFFFFFFFFFFFFFFFFFFFFFFFFFFFFFFFFFFFFF AND PUSH20 0xFFFFFFFFFFFFFFFFFFFFFFFFFFFFFFFFFFFFFFFF AND PUSH4 0x95EA7B3 ADDRESS DUP5 PUSH1 0x40 MLOAD DUP4 PUSH4 0xFFFFFFFF AND PUSH1 0xE0 SHL DUP2 MSTORE PUSH1 0x4 ADD PUSH2 0x534 SWAP3 SWAP2 SWAP1 PUSH2 0x1498 JUMP JUMPDEST PUSH1 0x20 PUSH1 0x40 MLOAD DUP1 DUP4 SUB DUP2 PUSH1 0x0 DUP8 DUP1 EXTCODESIZE ISZERO DUP1 ISZERO PUSH2 0x54E JUMPI PUSH1 0x0 DUP1 REVERT JUMPDEST POP GAS CALL ISZERO DUP1 ISZERO PUSH2 0x562 JUMPI RETURNDATASIZE PUSH1 0x0 DUP1 RETURNDATACOPY RETURNDATASIZE PUSH1 0x0 REVERT JUMPDEST POP POP POP POP PUSH1 0x40 MLOAD RETURNDATASIZE PUSH1 0x1F NOT PUSH1 0x1F DUP3 ADD AND DUP3 ADD DUP1 PUSH1 0x40 MSTORE POP DUP2 ADD SWAP1 PUSH2 0x586 SWAP2 SWAP1 PUSH2 0x12F2 JUMP JUMPDEST POP PUSH1 0x0 DUP1 SLOAD SWAP1 PUSH2 0x100 EXP SWAP1 DIV PUSH20 0xFFFFFFFFFFFFFFFFFFFFFFFFFFFFFFFFFFFFFFFF AND PUSH20 0xFFFFFFFFFFFFFFFFFFFFFFFFFFFFFFFFFFFFFFFF AND PUSH4 0x23B872DD ADDRESS DUP4 DUP6 PUSH1 0x40 MLOAD DUP5 PUSH4 0xFFFFFFFF AND PUSH1 0xE0 SHL DUP2 MSTORE PUSH1 0x4 ADD PUSH2 0x5E4 SWAP4 SWAP3 SWAP2 SWAP1 PUSH2 0x142A JUMP JUMPDEST PUSH1 0x20 PUSH1 0x40 MLOAD DUP1 DUP4 SUB DUP2 PUSH1 0x0 DUP8 DUP1 EXTCODESIZE ISZERO DUP1 ISZERO PUSH2 0x5FE JUMPI PUSH1 0x0 DUP1 REVERT JUMPDEST POP GAS CALL ISZERO DUP1 ISZERO PUSH2 0x612 JUMPI RETURNDATASIZE PUSH1 0x0 DUP1 RETURNDATACOPY RETURNDATASIZE PUSH1 0x0 REVERT JUMPDEST POP POP POP POP PUSH1 0x40 MLOAD RETURNDATASIZE PUSH1 0x1F NOT PUSH1 0x1F DUP3 ADD AND DUP3 ADD DUP1 PUSH1 0x40 MSTORE POP DUP2 ADD SWAP1 PUSH2 0x636 SWAP2 SWAP1 PUSH2 0x12F2 JUMP JUMPDEST POP DUP2 PUSH1 0x1 PUSH1 0x0 DUP3 DUP3 SLOAD PUSH2 0x649 SWAP2 SWAP1 PUSH2 0x168E JUMP JUMPDEST SWAP3 POP POP DUP2 SWAP1 SSTORE POP POP PUSH2 0x65F JUMP JUMPDEST PUSH1 0x0 SWAP2 POP PUSH1 0x0 SWAP1 POP JUMPDEST PUSH1 0x1 SLOAD PUSH1 0x2 SLOAD PUSH2 0x66F SWAP2 SWAP1 PUSH2 0x1634 JUMP JUMPDEST PUSH1 0x4 DUP2 SWAP1 SSTORE POP PUSH32 0xB14F451E613015C13A17C78777F1D87FCB448D7330D67299A09B8F2DB38AAB10 DUP2 DUP4 DUP6 PUSH1 0x40 MLOAD PUSH2 0x6A8 SWAP4 SWAP3 SWAP2 SWAP1 PUSH2 0x1565 JUMP JUMPDEST PUSH1 0x40 MLOAD DUP1 SWAP2 SUB SWAP1 LOG1 PUSH1 0x0 PUSH1 0x6 PUSH1 0x0 PUSH2 0x100 EXP DUP2 SLOAD DUP2 PUSH1 0xFF MUL NOT AND SWAP1 DUP4 ISZERO ISZERO MUL OR SWAP1 SSTORE POP SWAP2 POP SWAP2 JUMP JUMPDEST PUSH1 0x0 PUSH8 0xDE0B6B3A7640000 DUP3 PUSH2 0x6E6 SWAP2 SWAP1 PUSH2 0x1634 JUMP JUMPDEST SWAP2 POP PUSH1 0x1 SLOAD DUP3 PUSH1 0x2 SLOAD PUSH2 0x6F9 SWAP2 SWAP1 PUSH2 0x1634 JUMP JUMPDEST PUSH2 0x703 SWAP2 SWAP1 PUSH2 0x1603 JUMP JUMPDEST SWAP1 POP SWAP2 SWAP1 POP JUMP JUMPDEST PUSH1 0x0 PUSH1 0x6 PUSH1 0x0 SWAP1 SLOAD SWAP1 PUSH2 0x100 EXP SWAP1 DIV PUSH1 0xFF AND ISZERO PUSH2 0x75C JUMPI PUSH1 0x40 MLOAD PUSH32 0x8C379A000000000000000000000000000000000000000000000000000000000 DUP2 MSTORE PUSH1 0x4 ADD PUSH2 0x753 SWAP1 PUSH2 0x14E1 JUMP JUMPDEST PUSH1 0x40 MLOAD DUP1 SWAP2 SUB SWAP1 REVERT JUMPDEST PUSH1 0x1 PUSH1 0x6 PUSH1 0x0 PUSH2 0x100 EXP DUP2 SLOAD DUP2 PUSH1 0xFF MUL NOT AND SWAP1 DUP4 ISZERO ISZERO MUL OR SWAP1 SSTORE POP CALLVALUE PUSH1 0x2 PUSH1 0x0 DUP3 DUP3 SLOAD PUSH2 0x789 SWAP2 SWAP1 PUSH2 0x15AD JUMP JUMPDEST SWAP3 POP POP DUP2 SWAP1 SSTORE POP PUSH1 0x0 PUSH1 0x2 SLOAD PUSH1 0x4 SLOAD PUSH2 0x7A2 SWAP2 SWAP1 PUSH2 0x1603 JUMP JUMPDEST SWAP1 POP DUP1 PUSH1 0x1 SLOAD PUSH2 0x7B2 SWAP2 SWAP1 PUSH2 0x168E JUMP JUMPDEST SWAP2 POP PUSH1 0x0 CALLER SWAP1 POP PUSH1 0x0 DUP1 SLOAD SWAP1 PUSH2 0x100 EXP SWAP1 DIV PUSH20 0xFFFFFFFFFFFFFFFFFFFFFFFFFFFFFFFFFFFFFFFF AND PUSH20 0xFFFFFFFFFFFFFFFFFFFFFFFFFFFFFFFFFFFFFFFF AND PUSH4 0x95EA7B3 ADDRESS DUP6 PUSH1 0x40 MLOAD DUP4 PUSH4 0xFFFFFFFF AND PUSH1 0xE0 SHL DUP2 MSTORE PUSH1 0x4 ADD PUSH2 0x814 SWAP3 SWAP2 SWAP1 PUSH2 0x1498 JUMP JUMPDEST PUSH1 0x20 PUSH1 0x40 MLOAD DUP1 DUP4 SUB DUP2 PUSH1 0x0 DUP8 DUP1 EXTCODESIZE ISZERO DUP1 ISZERO PUSH2 0x82E JUMPI PUSH1 0x0 DUP1 REVERT JUMPDEST POP GAS CALL ISZERO DUP1 ISZERO PUSH2 0x842 JUMPI RETURNDATASIZE PUSH1 0x0 DUP1 RETURNDATACOPY RETURNDATASIZE PUSH1 0x0 REVERT JUMPDEST POP POP POP POP PUSH1 0x40 MLOAD RETURNDATASIZE PUSH1 0x1F NOT PUSH1 0x1F DUP3 ADD AND DUP3 ADD DUP1 PUSH1 0x40 MSTORE POP DUP2 ADD SWAP1 PUSH2 0x866 SWAP2 SWAP1 PUSH2 0x12F2 JUMP JUMPDEST POP PUSH1 0x0 DUP1 SLOAD SWAP1 PUSH2 0x100 EXP SWAP1 DIV PUSH20 0xFFFFFFFFFFFFFFFFFFFFFFFFFFFFFFFFFFFFFFFF AND PUSH20 0xFFFFFFFFFFFFFFFFFFFFFFFFFFFFFFFFFFFFFFFF AND PUSH4 0x23B872DD ADDRESS DUP4 DUP7 PUSH1 0x40 MLOAD DUP5 PUSH4 0xFFFFFFFF AND PUSH1 0xE0 SHL DUP2 MSTORE PUSH1 0x4 ADD PUSH2 0x8C4 SWAP4 SWAP3 SWAP2 SWAP1 PUSH2 0x142A JUMP JUMPDEST PUSH1 0x20 PUSH1 0x40 MLOAD DUP1 DUP4 SUB DUP2 PUSH1 0x0 DUP8 DUP1 EXTCODESIZE ISZERO DUP1 ISZERO PUSH2 0x8DE JUMPI PUSH1 0x0 DUP1 REVERT JUMPDEST POP GAS CALL ISZERO DUP1 ISZERO PUSH2 0x8F2 JUMPI RETURNDATASIZE PUSH1 0x0 DUP1 RETURNDATACOPY RETURNDATASIZE PUSH1 0x0 REVERT JUMPDEST POP POP POP POP PUSH1 0x40 MLOAD RETURNDATASIZE PUSH1 0x1F NOT PUSH1 0x1F DUP3 ADD AND DUP3 ADD DUP1 PUSH1 0x40 MSTORE POP DUP2 ADD SWAP1 PUSH2 0x916 SWAP2 SWAP1 PUSH2 0x12F2 JUMP JUMPDEST POP DUP2 PUSH1 0x1 DUP2 SWAP1 SSTORE POP PUSH32 0xCDFC57B3D0CDC24B23CEA1F480AABEA287321F5BEE23AD76C2B52FA7982F5EA5 DUP4 CALLVALUE PUSH1 0x40 MLOAD PUSH2 0x94F SWAP3 SWAP2 SWAP1 PUSH2 0x153C JUMP JUMPDEST PUSH1 0x40 MLOAD DUP1 SWAP2 SUB SWAP1 LOG1 POP POP PUSH1 0x0 PUSH1 0x6 PUSH1 0x0 PUSH2 0x100 EXP DUP2 SLOAD DUP2 PUSH1 0xFF MUL NOT AND SWAP1 DUP4 ISZERO ISZERO MUL OR SWAP1 SSTORE POP SWAP1 JUMP JUMPDEST PUSH1 0x2 SLOAD DUP2 JUMP JUMPDEST PUSH1 0x0 DUP1 DUP3 PUSH1 0x2 SLOAD PUSH2 0x98E SWAP2 SWAP1 PUSH2 0x15AD JUMP JUMPDEST SWAP1 POP PUSH1 0x0 DUP2 PUSH1 0x4 SLOAD PUSH2 0x9A0 SWAP2 SWAP1 PUSH2 0x1603 JUMP JUMPDEST SWAP1 POP DUP1 PUSH1 0x1 SLOAD PUSH2 0x9B0 SWAP2 SWAP1 PUSH2 0x168E JUMP JUMPDEST SWAP3 POP PUSH8 0x8AC7230489E80000 DUP4 PUSH2 0x9C6 SWAP2 SWAP1 PUSH2 0x1603 JUMP JUMPDEST SWAP3 POP POP POP SWAP2 SWAP1 POP JUMP JUMPDEST PUSH1 0x0 PUSH8 0xDE0B6B3A7640000 DUP3 PUSH2 0x9E5 SWAP2 SWAP1 PUSH2 0x1634 JUMP JUMPDEST SWAP2 POP PUSH1 0x0 DUP3 PUSH1 0x1 SLOAD PUSH2 0x9F7 SWAP2 SWAP1 PUSH2 0x15AD JUMP JUMPDEST SWAP1 POP PUSH1 0x0 DUP2 PUSH1 0x4 SLOAD PUSH2 0xA09 SWAP2 SWAP1 PUSH2 0x1603 JUMP JUMPDEST SWAP1 POP DUP1 PUSH1 0x2 SLOAD PUSH2 0xA19 SWAP2 SWAP1 PUSH2 0x168E JUMP JUMPDEST SWAP3 POP POP POP SWAP2 SWAP1 POP JUMP JUMPDEST PUSH1 0x4 SLOAD DUP2 JUMP JUMPDEST PUSH1 0x0 PUSH8 0xDE0B6B3A7640000 PUSH1 0x0 DUP1 SLOAD SWAP1 PUSH2 0x100 EXP SWAP1 DIV PUSH20 0xFFFFFFFFFFFFFFFFFFFFFFFFFFFFFFFFFFFFFFFF AND PUSH20 0xFFFFFFFFFFFFFFFFFFFFFFFFFFFFFFFFFFFFFFFF AND PUSH4 0x70A08231 ADDRESS PUSH1 0x40 MLOAD DUP3 PUSH4 0xFFFFFFFF AND PUSH1 0xE0 SHL DUP2 MSTORE PUSH1 0x4 ADD PUSH2 0xA8C SWAP2 SWAP1 PUSH2 0x140F JUMP JUMPDEST PUSH1 0x20 PUSH1 0x40 MLOAD DUP1 DUP4 SUB DUP2 DUP7 DUP1 EXTCODESIZE ISZERO DUP1 ISZERO PUSH2 0xAA4 JUMPI PUSH1 0x0 DUP1 REVERT JUMPDEST POP GAS STATICCALL ISZERO DUP1 ISZERO PUSH2 0xAB8 JUMPI RETURNDATASIZE PUSH1 0x0 DUP1 RETURNDATACOPY RETURNDATASIZE PUSH1 0x0 REVERT JUMPDEST POP POP POP POP PUSH1 0x40 MLOAD RETURNDATASIZE PUSH1 0x1F NOT PUSH1 0x1F DUP3 ADD AND DUP3 ADD DUP1 PUSH1 0x40 MSTORE POP DUP2 ADD SWAP1 PUSH2 0xADC SWAP2 SWAP1 PUSH2 0x134C JUMP JUMPDEST PUSH2 0xAE6 SWAP2 SWAP1 PUSH2 0x1603 JUMP JUMPDEST SWAP1 POP SWAP1 JUMP JUMPDEST PUSH1 0x0 PUSH1 0x6 PUSH1 0x0 SWAP1 SLOAD SWAP1 PUSH2 0x100 EXP SWAP1 DIV PUSH1 0xFF AND ISZERO PUSH2 0xB3D JUMPI PUSH1 0x40 MLOAD PUSH32 0x8C379A000000000000000000000000000000000000000000000000000000000 DUP2 MSTORE PUSH1 0x4 ADD PUSH2 0xB34 SWAP1 PUSH2 0x14E1 JUMP JUMPDEST PUSH1 0x40 MLOAD DUP1 SWAP2 SUB SWAP1 REVERT JUMPDEST PUSH1 0x1 PUSH1 0x6 PUSH1 0x0 PUSH2 0x100 EXP DUP2 SLOAD DUP2 PUSH1 0xFF MUL NOT AND SWAP1 DUP4 ISZERO ISZERO MUL OR SWAP1 SSTORE POP PUSH8 0xDE0B6B3A7640000 DUP3 PUSH2 0xB6C SWAP2 SWAP1 PUSH2 0x1634 JUMP JUMPDEST SWAP2 POP PUSH1 0x0 DUP1 SLOAD SWAP1 PUSH2 0x100 EXP SWAP1 DIV PUSH20 0xFFFFFFFFFFFFFFFFFFFFFFFFFFFFFFFFFFFFFFFF AND PUSH20 0xFFFFFFFFFFFFFFFFFFFFFFFFFFFFFFFFFFFFFFFF AND PUSH4 0x23B872DD CALLER ADDRESS DUP6 PUSH1 0x40 MLOAD DUP5 PUSH4 0xFFFFFFFF AND PUSH1 0xE0 SHL DUP2 MSTORE PUSH1 0x4 ADD PUSH2 0xBCB SWAP4 SWAP3 SWAP2 SWAP1 PUSH2 0x1461 JUMP JUMPDEST PUSH1 0x20 PUSH1 0x40 MLOAD DUP1 DUP4 SUB DUP2 PUSH1 0x0 DUP8 DUP1 EXTCODESIZE ISZERO DUP1 ISZERO PUSH2 0xBE5 JUMPI PUSH1 0x0 DUP1 REVERT JUMPDEST POP GAS CALL ISZERO DUP1 ISZERO PUSH2 0xBF9 JUMPI RETURNDATASIZE PUSH1 0x0 DUP1 RETURNDATACOPY RETURNDATASIZE PUSH1 0x0 REVERT JUMPDEST POP POP POP POP PUSH1 0x40 MLOAD RETURNDATASIZE PUSH1 0x1F NOT PUSH1 0x1F DUP3 ADD AND DUP3 ADD DUP1 PUSH1 0x40 MSTORE POP DUP2 ADD SWAP1 PUSH2 0xC1D SWAP2 SWAP1 PUSH2 0x12F2 JUMP JUMPDEST POP DUP2 PUSH1 0x1 PUSH1 0x0 DUP3 DUP3 SLOAD PUSH2 0xC30 SWAP2 SWAP1 PUSH2 0x15AD JUMP JUMPDEST SWAP3 POP POP DUP2 SWAP1 SSTORE POP PUSH1 0x0 PUSH1 0x1 SLOAD PUSH1 0x4 SLOAD PUSH2 0xC49 SWAP2 SWAP1 PUSH2 0x1603 JUMP JUMPDEST SWAP1 POP DUP1 PUSH1 0x2 SLOAD PUSH2 0xC59 SWAP2 SWAP1 PUSH2 0x168E JUMP JUMPDEST SWAP2 POP PUSH1 0x0 CALLER SWAP1 POP DUP1 PUSH20 0xFFFFFFFFFFFFFFFFFFFFFFFFFFFFFFFFFFFFFFFF AND PUSH2 0x8FC DUP5 SWAP1 DUP2 ISZERO MUL SWAP1 PUSH1 0x40 MLOAD PUSH1 0x0 PUSH1 0x40 MLOAD DUP1 DUP4 SUB DUP2 DUP6 DUP9 DUP9 CALL SWAP4 POP POP POP POP ISZERO DUP1 ISZERO PUSH2 0xCA6 JUMPI RETURNDATASIZE PUSH1 0x0 DUP1 RETURNDATACOPY RETURNDATASIZE PUSH1 0x0 REVERT JUMPDEST POP DUP3 PUSH1 0x2 PUSH1 0x0 DUP3 DUP3 SLOAD PUSH2 0xCB9 SWAP2 SWAP1 PUSH2 0x168E JUMP JUMPDEST SWAP3 POP POP DUP2 SWAP1 SSTORE POP PUSH32 0x3297A389BB586920E62A196AF529D5F42651B17A1013D6BFE77F22372A0B2112 DUP5 DUP5 PUSH1 0x40 MLOAD PUSH2 0xCF1 SWAP3 SWAP2 SWAP1 PUSH2 0x153C JUMP JUMPDEST PUSH1 0x40 MLOAD DUP1 SWAP2 SUB SWAP1 LOG1 POP POP PUSH1 0x0 PUSH1 0x6 PUSH1 0x0 PUSH2 0x100 EXP DUP2 SLOAD DUP2 PUSH1 0xFF MUL NOT AND SWAP1 DUP4 ISZERO ISZERO MUL OR SWAP1 SSTORE POP SWAP2 SWAP1 POP JUMP JUMPDEST PUSH1 0x0 PUSH1 0x5 PUSH1 0x0 CALLER PUSH20 0xFFFFFFFFFFFFFFFFFFFFFFFFFFFFFFFFFFFFFFFF AND PUSH20 0xFFFFFFFFFFFFFFFFFFFFFFFFFFFFFFFFFFFFFFFF AND DUP2 MSTORE PUSH1 0x20 ADD SWAP1 DUP2 MSTORE PUSH1 0x20 ADD PUSH1 0x0 KECCAK256 SLOAD SWAP1 POP SWAP1 JUMP JUMPDEST PUSH1 0x0 PUSH1 0x6 PUSH1 0x0 SWAP1 SLOAD SWAP1 PUSH2 0x100 EXP SWAP1 DIV PUSH1 0xFF AND ISZERO PUSH2 0xDB4 JUMPI PUSH1 0x40 MLOAD PUSH32 0x8C379A000000000000000000000000000000000000000000000000000000000 DUP2 MSTORE PUSH1 0x4 ADD PUSH2 0xDAB SWAP1 PUSH2 0x14E1 JUMP JUMPDEST PUSH1 0x40 MLOAD DUP1 SWAP2 SUB SWAP1 REVERT JUMPDEST PUSH1 0x1 PUSH1 0x6 PUSH1 0x0 PUSH2 0x100 EXP DUP2 SLOAD DUP2 PUSH1 0xFF MUL NOT AND SWAP1 DUP4 ISZERO ISZERO MUL OR SWAP1 SSTORE POP PUSH1 0x0 CALLVALUE SWAP1 POP DUP1 PUSH1 0x2 PUSH1 0x0 DUP3 DUP3 SLOAD PUSH2 0xDE6 SWAP2 SWAP1 PUSH2 0x15AD JUMP JUMPDEST SWAP3 POP POP DUP2 SWAP1 SSTORE POP PUSH8 0xDE0B6B3A7640000 DUP4 PUSH2 0xE01 SWAP2 SWAP1 PUSH2 0x1634 JUMP JUMPDEST SWAP3 POP PUSH1 0x0 DUP1 SLOAD SWAP1 PUSH2 0x100 EXP SWAP1 DIV PUSH20 0xFFFFFFFFFFFFFFFFFFFFFFFFFFFFFFFFFFFFFFFF AND PUSH20 0xFFFFFFFFFFFFFFFFFFFFFFFFFFFFFFFFFFFFFFFF AND PUSH4 0x95EA7B3 ADDRESS DUP6 PUSH1 0x40 MLOAD DUP4 PUSH4 0xFFFFFFFF AND PUSH1 0xE0 SHL DUP2 MSTORE PUSH1 0x4 ADD PUSH2 0xE5E SWAP3 SWAP2 SWAP1 PUSH2 0x1498 JUMP JUMPDEST PUSH1 0x20 PUSH1 0x40 MLOAD DUP1 DUP4 SUB DUP2 PUSH1 0x0 DUP8 DUP1 EXTCODESIZE ISZERO DUP1 ISZERO PUSH2 0xE78 JUMPI PUSH1 0x0 DUP1 REVERT JUMPDEST POP GAS CALL ISZERO DUP1 ISZERO PUSH2 0xE8C JUMPI RETURNDATASIZE PUSH1 0x0 DUP1 RETURNDATACOPY RETURNDATASIZE PUSH1 0x0 REVERT JUMPDEST POP POP POP POP PUSH1 0x40 MLOAD RETURNDATASIZE PUSH1 0x1F NOT PUSH1 0x1F DUP3 ADD AND DUP3 ADD DUP1 PUSH1 0x40 MSTORE POP DUP2 ADD SWAP1 PUSH2 0xEB0 SWAP2 SWAP1 PUSH2 0x12F2 JUMP JUMPDEST POP PUSH1 0x0 DUP1 PUSH1 0x0 SWAP1 SLOAD SWAP1 PUSH2 0x100 EXP SWAP1 DIV PUSH20 0xFFFFFFFFFFFFFFFFFFFFFFFFFFFFFFFFFFFFFFFF AND PUSH20 0xFFFFFFFFFFFFFFFFFFFFFFFFFFFFFFFFFFFFFFFF AND PUSH4 0x23B872DD CALLER ADDRESS DUP8 PUSH1 0x40 MLOAD DUP5 PUSH4 0xFFFFFFFF AND PUSH1 0xE0 SHL DUP2 MSTORE PUSH1 0x4 ADD PUSH2 0xF11 SWAP4 SWAP3 SWAP2 SWAP1 PUSH2 0x1461 JUMP JUMPDEST PUSH1 0x20 PUSH1 0x40 MLOAD DUP1 DUP4 SUB DUP2 PUSH1 0x0 DUP8 DUP1 EXTCODESIZE ISZERO DUP1 ISZERO PUSH2 0xF2B JUMPI PUSH1 0x0 DUP1 REVERT JUMPDEST POP GAS CALL ISZERO DUP1 ISZERO PUSH2 0xF3F JUMPI RETURNDATASIZE PUSH1 0x0 DUP1 RETURNDATACOPY RETURNDATASIZE PUSH1 0x0 REVERT JUMPDEST POP POP POP POP PUSH1 0x40 MLOAD RETURNDATASIZE PUSH1 0x1F NOT PUSH1 0x1F DUP3 ADD AND DUP3 ADD DUP1 PUSH1 0x40 MSTORE POP DUP2 ADD SWAP1 PUSH2 0xF63 SWAP2 SWAP1 PUSH2 0x12F2 JUMP JUMPDEST SWAP1 POP DUP1 PUSH2 0xFA5 JUMPI PUSH1 0x40 MLOAD PUSH32 0x8C379A000000000000000000000000000000000000000000000000000000000 DUP2 MSTORE PUSH1 0x4 ADD PUSH2 0xF9C SWAP1 PUSH2 0x1501 JUMP JUMPDEST PUSH1 0x40 MLOAD DUP1 SWAP2 SUB SWAP1 REVERT JUMPDEST DUP4 PUSH1 0x1 PUSH1 0x0 DUP3 DUP3 SLOAD PUSH2 0xFB7 SWAP2 SWAP1 PUSH2 0x15AD JUMP JUMPDEST SWAP3 POP POP DUP2 SWAP1 SSTORE POP PUSH1 0x2 SLOAD DUP3 PUSH1 0x3 SLOAD PUSH2 0xFCF SWAP2 SWAP1 PUSH2 0x1634 JUMP JUMPDEST PUSH2 0xFD9 SWAP2 SWAP1 PUSH2 0x1603 JUMP JUMPDEST PUSH1 0x1 SLOAD DUP6 PUSH1 0x3 SLOAD PUSH2 0xFEA SWAP2 SWAP1 PUSH2 0x1634 JUMP JUMPDEST PUSH2 0xFF4 SWAP2 SWAP1 PUSH2 0x1603 JUMP JUMPDEST EQ PUSH2 0x1034 JUMPI PUSH1 0x40 MLOAD PUSH32 0x8C379A000000000000000000000000000000000000000000000000000000000 DUP2 MSTORE PUSH1 0x4 ADD PUSH2 0x102B SWAP1 PUSH2 0x14C1 JUMP JUMPDEST PUSH1 0x40 MLOAD DUP1 SWAP2 SUB SWAP1 REVERT JUMPDEST PUSH1 0x0 PUSH1 0x3 SLOAD EQ ISZERO PUSH2 0x10E1 JUMPI PUSH1 0x64 PUSH1 0x5 PUSH1 0x0 CALLER PUSH20 0xFFFFFFFFFFFFFFFFFFFFFFFFFFFFFFFFFFFFFFFF AND PUSH20 0xFFFFFFFFFFFFFFFFFFFFFFFFFFFFFFFFFFFFFFFF AND DUP2 MSTORE PUSH1 0x20 ADD SWAP1 DUP2 MSTORE PUSH1 0x20 ADD PUSH1 0x0 KECCAK256 DUP2 SWAP1 SSTORE POP PUSH1 0x5 PUSH1 0x0 CALLER PUSH20 0xFFFFFFFFFFFFFFFFFFFFFFFFFFFFFFFFFFFFFFFF AND PUSH20 0xFFFFFFFFFFFFFFFFFFFFFFFFFFFFFFFFFFFFFFFF AND DUP2 MSTORE PUSH1 0x20 ADD SWAP1 DUP2 MSTORE PUSH1 0x20 ADD PUSH1 0x0 KECCAK256 SLOAD PUSH1 0x3 PUSH1 0x0 DUP3 DUP3 SLOAD PUSH2 0x10D5 SWAP2 SWAP1 PUSH2 0x15AD JUMP JUMPDEST SWAP3 POP POP DUP2 SWAP1 SSTORE POP PUSH2 0x1185 JUMP JUMPDEST PUSH1 0x1 SLOAD DUP5 PUSH1 0x3 SLOAD PUSH2 0x10F2 SWAP2 SWAP1 PUSH2 0x1634 JUMP JUMPDEST PUSH2 0x10FC SWAP2 SWAP1 PUSH2 0x1603 JUMP JUMPDEST PUSH1 0x5 PUSH1 0x0 CALLER PUSH20 0xFFFFFFFFFFFFFFFFFFFFFFFFFFFFFFFFFFFFFFFF AND PUSH20 0xFFFFFFFFFFFFFFFFFFFFFFFFFFFFFFFFFFFFFFFF AND DUP2 MSTORE PUSH1 0x20 ADD SWAP1 DUP2 MSTORE PUSH1 0x20 ADD PUSH1 0x0 KECCAK256 PUSH1 0x0 DUP3 DUP3 SLOAD PUSH2 0x114A SWAP2 SWAP1 PUSH2 0x15AD JUMP JUMPDEST SWAP3 POP POP DUP2 SWAP1 SSTORE POP PUSH1 0x1 SLOAD DUP5 PUSH1 0x3 SLOAD PUSH2 0x1162 SWAP2 SWAP1 PUSH2 0x1634 JUMP JUMPDEST PUSH2 0x116C SWAP2 SWAP1 PUSH2 0x1603 JUMP JUMPDEST PUSH1 0x3 PUSH1 0x0 DUP3 DUP3 SLOAD PUSH2 0x117D SWAP2 SWAP1 PUSH2 0x15AD JUMP JUMPDEST SWAP3 POP POP DUP2 SWAP1 SSTORE POP JUMPDEST PUSH1 0x1 SLOAD PUSH1 0x2 SLOAD PUSH2 0x1195 SWAP2 SWAP1 PUSH2 0x1634 JUMP JUMPDEST PUSH1 0x4 DUP2 SWAP1 SSTORE POP PUSH32 0xAA58F006CC244B2AF6662862508BD39465F57169FF8386D1D1F7B0B903150ABC DUP5 DUP4 PUSH1 0x5 PUSH1 0x0 CALLER PUSH20 0xFFFFFFFFFFFFFFFFFFFFFFFFFFFFFFFFFFFFFFFF AND PUSH20 0xFFFFFFFFFFFFFFFFFFFFFFFFFFFFFFFFFFFFFFFF AND DUP2 MSTORE PUSH1 0x20 ADD SWAP1 DUP2 MSTORE PUSH1 0x20 ADD PUSH1 0x0 KECCAK256 SLOAD PUSH1 0x40 MLOAD PUSH2 0x120D SWAP4 SWAP3 SWAP2 SWAP1 PUSH2 0x1565 JUMP JUMPDEST PUSH1 0x40 MLOAD DUP1 SWAP2 SUB SWAP1 LOG1 PUSH1 0x5 PUSH1 0x0 CALLER PUSH20 0xFFFFFFFFFFFFFFFFFFFFFFFFFFFFFFFFFFFFFFFF AND PUSH20 0xFFFFFFFFFFFFFFFFFFFFFFFFFFFFFFFFFFFFFFFF AND DUP2 MSTORE PUSH1 0x20 ADD SWAP1 DUP2 MSTORE PUSH1 0x20 ADD PUSH1 0x0 KECCAK256 SLOAD SWAP3 POP POP POP PUSH1 0x0 PUSH1 0x6 PUSH1 0x0 PUSH2 0x100 EXP DUP2 SLOAD DUP2 PUSH1 0xFF MUL NOT AND SWAP1 DUP4 ISZERO ISZERO MUL OR SWAP1 SSTORE POP SWAP2 SWAP1 POP JUMP JUMPDEST PUSH1 0x0 PUSH1 0x2 SLOAD DUP3 PUSH1 0x1 SLOAD PUSH2 0x128C SWAP2 SWAP1 PUSH2 0x1634 JUMP JUMPDEST PUSH2 0x1296 SWAP2 SWAP1 PUSH2 0x1603 JUMP JUMPDEST SWAP1 POP PUSH8 0xDE0B6B3A7640000 DUP2 PUSH2 0x12AC SWAP2 SWAP1 PUSH2 0x1603 JUMP JUMPDEST SWAP1 POP SWAP2 SWAP1 POP JUMP JUMPDEST PUSH1 0x0 DUP2 MLOAD SWAP1 POP PUSH2 0x12C2 DUP2 PUSH2 0x181E JUMP JUMPDEST SWAP3 SWAP2 POP POP JUMP JUMPDEST PUSH1 0x0 DUP2 CALLDATALOAD SWAP1 POP PUSH2 0x12D7 DUP2 PUSH2 0x1835 JUMP JUMPDEST SWAP3 SWAP2 POP POP JUMP JUMPDEST PUSH1 0x0 DUP2 MLOAD SWAP1 POP PUSH2 0x12EC DUP2 PUSH2 0x1835 JUMP JUMPDEST SWAP3 SWAP2 POP POP JUMP JUMPDEST PUSH1 0x0 PUSH1 0x20 DUP3 DUP5 SUB SLT ISZERO PUSH2 0x1308 JUMPI PUSH2 0x1307 PUSH2 0x179E JUMP JUMPDEST JUMPDEST PUSH1 0x0 PUSH2 0x1316 DUP5 DUP3 DUP6 ADD PUSH2 0x12B3 JUMP JUMPDEST SWAP2 POP POP SWAP3 SWAP2 POP POP JUMP JUMPDEST PUSH1 0x0 PUSH1 0x20 DUP3 DUP5 SUB SLT ISZERO PUSH2 0x1335 JUMPI PUSH2 0x1334 PUSH2 0x179E JUMP JUMPDEST JUMPDEST PUSH1 0x0 PUSH2 0x1343 DUP5 DUP3 DUP6 ADD PUSH2 0x12C8 JUMP JUMPDEST SWAP2 POP POP SWAP3 SWAP2 POP POP JUMP JUMPDEST PUSH1 0x0 PUSH1 0x20 DUP3 DUP5 SUB SLT ISZERO PUSH2 0x1362 JUMPI PUSH2 0x1361 PUSH2 0x179E JUMP JUMPDEST JUMPDEST PUSH1 0x0 PUSH2 0x1370 DUP5 DUP3 DUP6 ADD PUSH2 0x12DD JUMP JUMPDEST SWAP2 POP POP SWAP3 SWAP2 POP POP JUMP JUMPDEST PUSH2 0x1382 DUP2 PUSH2 0x170A JUMP JUMPDEST DUP3 MSTORE POP POP JUMP JUMPDEST PUSH2 0x1391 DUP2 PUSH2 0x16C2 JUMP JUMPDEST DUP3 MSTORE POP POP JUMP JUMPDEST PUSH1 0x0 PUSH2 0x13A4 PUSH1 0x13 DUP4 PUSH2 0x159C JUMP JUMPDEST SWAP2 POP PUSH2 0x13AF DUP3 PUSH2 0x17A3 JUMP JUMPDEST PUSH1 0x20 DUP3 ADD SWAP1 POP SWAP2 SWAP1 POP JUMP JUMPDEST PUSH1 0x0 PUSH2 0x13C7 PUSH1 0xB DUP4 PUSH2 0x159C JUMP JUMPDEST SWAP2 POP PUSH2 0x13D2 DUP3 PUSH2 0x17CC JUMP JUMPDEST PUSH1 0x20 DUP3 ADD SWAP1 POP SWAP2 SWAP1 POP JUMP JUMPDEST PUSH1 0x0 PUSH2 0x13EA PUSH1 0x13 DUP4 PUSH2 0x159C JUMP JUMPDEST SWAP2 POP PUSH2 0x13F5 DUP3 PUSH2 0x17F5 JUMP JUMPDEST PUSH1 0x20 DUP3 ADD SWAP1 POP SWAP2 SWAP1 POP JUMP JUMPDEST PUSH2 0x1409 DUP2 PUSH2 0x1700 JUMP JUMPDEST DUP3 MSTORE POP POP JUMP JUMPDEST PUSH1 0x0 PUSH1 0x20 DUP3 ADD SWAP1 POP PUSH2 0x1424 PUSH1 0x0 DUP4 ADD DUP5 PUSH2 0x1388 JUMP JUMPDEST SWAP3 SWAP2 POP POP JUMP JUMPDEST PUSH1 0x0 PUSH1 0x60 DUP3 ADD SWAP1 POP PUSH2 0x143F PUSH1 0x0 DUP4 ADD DUP7 PUSH2 0x1388 JUMP JUMPDEST PUSH2 0x144C PUSH1 0x20 DUP4 ADD DUP6 PUSH2 0x1379 JUMP JUMPDEST PUSH2 0x1459 PUSH1 0x40 DUP4 ADD DUP5 PUSH2 0x1400 JUMP JUMPDEST SWAP5 SWAP4 POP POP POP POP JUMP JUMPDEST PUSH1 0x0 PUSH1 0x60 DUP3 ADD SWAP1 POP PUSH2 0x1476 PUSH1 0x0 DUP4 ADD DUP7 PUSH2 0x1388 JUMP JUMPDEST PUSH2 0x1483 PUSH1 0x20 DUP4 ADD DUP6 PUSH2 0x1388 JUMP JUMPDEST PUSH2 0x1490 PUSH1 0x40 DUP4 ADD DUP5 PUSH2 0x1400 JUMP JUMPDEST SWAP5 SWAP4 POP POP POP POP JUMP JUMPDEST PUSH1 0x0 PUSH1 0x40 DUP3 ADD SWAP1 POP PUSH2 0x14AD PUSH1 0x0 DUP4 ADD DUP6 PUSH2 0x1388 JUMP JUMPDEST PUSH2 0x14BA PUSH1 0x20 DUP4 ADD DUP5 PUSH2 0x1400 JUMP JUMPDEST SWAP4 SWAP3 POP POP POP JUMP JUMPDEST PUSH1 0x0 PUSH1 0x20 DUP3 ADD SWAP1 POP DUP2 DUP2 SUB PUSH1 0x0 DUP4 ADD MSTORE PUSH2 0x14DA DUP2 PUSH2 0x1397 JUMP JUMPDEST SWAP1 POP SWAP2 SWAP1 POP JUMP JUMPDEST PUSH1 0x0 PUSH1 0x20 DUP3 ADD SWAP1 POP DUP2 DUP2 SUB PUSH1 0x0 DUP4 ADD MSTORE PUSH2 0x14FA DUP2 PUSH2 0x13BA JUMP JUMPDEST SWAP1 POP SWAP2 SWAP1 POP JUMP JUMPDEST PUSH1 0x0 PUSH1 0x20 DUP3 ADD SWAP1 POP DUP2 DUP2 SUB PUSH1 0x0 DUP4 ADD MSTORE PUSH2 0x151A DUP2 PUSH2 0x13DD JUMP JUMPDEST SWAP1 POP SWAP2 SWAP1 POP JUMP JUMPDEST PUSH1 0x0 PUSH1 0x20 DUP3 ADD SWAP1 POP PUSH2 0x1536 PUSH1 0x0 DUP4 ADD DUP5 PUSH2 0x1400 JUMP JUMPDEST SWAP3 SWAP2 POP POP JUMP JUMPDEST PUSH1 0x0 PUSH1 0x40 DUP3 ADD SWAP1 POP PUSH2 0x1551 PUSH1 0x0 DUP4 ADD DUP6 PUSH2 0x1400 JUMP JUMPDEST PUSH2 0x155E PUSH1 0x20 DUP4 ADD DUP5 PUSH2 0x1400 JUMP JUMPDEST SWAP4 SWAP3 POP POP POP JUMP JUMPDEST PUSH1 0x0 PUSH1 0x60 DUP3 ADD SWAP1 POP PUSH2 0x157A PUSH1 0x0 DUP4 ADD DUP7 PUSH2 0x1400 JUMP JUMPDEST PUSH2 0x1587 PUSH1 0x20 DUP4 ADD DUP6 PUSH2 0x1400 JUMP JUMPDEST PUSH2 0x1594 PUSH1 0x40 DUP4 ADD DUP5 PUSH2 0x1400 JUMP JUMPDEST SWAP5 SWAP4 POP POP POP POP JUMP JUMPDEST PUSH1 0x0 DUP3 DUP3 MSTORE PUSH1 0x20 DUP3 ADD SWAP1 POP SWAP3 SWAP2 POP POP JUMP JUMPDEST PUSH1 0x0 PUSH2 0x15B8 DUP3 PUSH2 0x1700 JUMP JUMPDEST SWAP2 POP PUSH2 0x15C3 DUP4 PUSH2 0x1700 JUMP JUMPDEST SWAP3 POP DUP3 PUSH32 0xFFFFFFFFFFFFFFFFFFFFFFFFFFFFFFFFFFFFFFFFFFFFFFFFFFFFFFFFFFFFFFFF SUB DUP3 GT ISZERO PUSH2 0x15F8 JUMPI PUSH2 0x15F7 PUSH2 0x1740 JUMP JUMPDEST JUMPDEST DUP3 DUP3 ADD SWAP1 POP SWAP3 SWAP2 POP POP JUMP JUMPDEST PUSH1 0x0 PUSH2 0x160E DUP3 PUSH2 0x1700 JUMP JUMPDEST SWAP2 POP PUSH2 0x1619 DUP4 PUSH2 0x1700 JUMP JUMPDEST SWAP3 POP DUP3 PUSH2 0x1629 JUMPI PUSH2 0x1628 PUSH2 0x176F JUMP JUMPDEST JUMPDEST DUP3 DUP3 DIV SWAP1 POP SWAP3 SWAP2 POP POP JUMP JUMPDEST PUSH1 0x0 PUSH2 0x163F DUP3 PUSH2 0x1700 JUMP JUMPDEST SWAP2 POP PUSH2 0x164A DUP4 PUSH2 0x1700 JUMP JUMPDEST SWAP3 POP DUP2 PUSH32 0xFFFFFFFFFFFFFFFFFFFFFFFFFFFFFFFFFFFFFFFFFFFFFFFFFFFFFFFFFFFFFFFF DIV DUP4 GT DUP3 ISZERO ISZERO AND ISZERO PUSH2 0x1683 JUMPI PUSH2 0x1682 PUSH2 0x1740 JUMP JUMPDEST JUMPDEST DUP3 DUP3 MUL SWAP1 POP SWAP3 SWAP2 POP POP JUMP JUMPDEST PUSH1 0x0 PUSH2 0x1699 DUP3 PUSH2 0x1700 JUMP JUMPDEST SWAP2 POP PUSH2 0x16A4 DUP4 PUSH2 0x1700 JUMP JUMPDEST SWAP3 POP DUP3 DUP3 LT ISZERO PUSH2 0x16B7 JUMPI PUSH2 0x16B6 PUSH2 0x1740 JUMP JUMPDEST JUMPDEST DUP3 DUP3 SUB SWAP1 POP SWAP3 SWAP2 POP POP JUMP JUMPDEST PUSH1 0x0 PUSH2 0x16CD DUP3 PUSH2 0x16E0 JUMP JUMPDEST SWAP1 POP SWAP2 SWAP1 POP JUMP JUMPDEST PUSH1 0x0 DUP2 ISZERO ISZERO SWAP1 POP SWAP2 SWAP1 POP JUMP JUMPDEST PUSH1 0x0 PUSH20 0xFFFFFFFFFFFFFFFFFFFFFFFFFFFFFFFFFFFFFFFF DUP3 AND SWAP1 POP SWAP2 SWAP1 POP JUMP JUMPDEST PUSH1 0x0 DUP2 SWAP1 POP SWAP2 SWAP1 POP JUMP JUMPDEST PUSH1 0x0 PUSH2 0x1715 DUP3 PUSH2 0x171C JUMP JUMPDEST SWAP1 POP SWAP2 SWAP1 POP JUMP JUMPDEST PUSH1 0x0 PUSH2 0x1727 DUP3 PUSH2 0x172E JUMP JUMPDEST SWAP1 POP SWAP2 SWAP1 POP JUMP JUMPDEST PUSH1 0x0 PUSH2 0x1739 DUP3 PUSH2 0x16E0 JUMP JUMPDEST SWAP1 POP SWAP2 SWAP1 POP JUMP JUMPDEST PUSH32 0x4E487B7100000000000000000000000000000000000000000000000000000000 PUSH1 0x0 MSTORE PUSH1 0x11 PUSH1 0x4 MSTORE PUSH1 0x24 PUSH1 0x0 REVERT JUMPDEST PUSH32 0x4E487B7100000000000000000000000000000000000000000000000000000000 PUSH1 0x0 MSTORE PUSH1 0x12 PUSH1 0x4 MSTORE PUSH1 0x24 PUSH1 0x0 REVERT JUMPDEST PUSH1 0x0 DUP1 REVERT JUMPDEST PUSH32 0x6C697175696469747920696E62616C616E636500000000000000000000000000 PUSH1 0x0 DUP3 ADD MSTORE POP JUMP JUMPDEST PUSH32 0x4E6F2072652D656E747279000000000000000000000000000000000000000000 PUSH1 0x0 DUP3 ADD MSTORE POP JUMP JUMPDEST PUSH32 0x7472616E73666572206661696C65642E203A2800000000000000000000000000 PUSH1 0x0 DUP3 ADD MSTORE POP JUMP JUMPDEST PUSH2 0x1827 DUP2 PUSH2 0x16D4 JUMP JUMPDEST DUP2 EQ PUSH2 0x1832 JUMPI PUSH1 0x0 DUP1 REVERT JUMPDEST POP JUMP JUMPDEST PUSH2 0x183E DUP2 PUSH2 0x1700 JUMP JUMPDEST DUP2 EQ PUSH2 0x1849 JUMPI PUSH1 0x0 DUP1 REVERT JUMPDEST POP JUMP INVALID LOG2 PUSH5 0x6970667358 0x22 SLT KECCAK256 SWAP3 SIGNEXTEND DUP11 MSTORE STATICCALL 0xCF MSIZE 0xED PUSH21 0xBA9F72EEB4EF53F52925A1D4E5C0AE6B3EF65F25FB TIMESTAMP 0xCC PUSH5 0x736F6C6343 STOP ADDMOD SMOD STOP CALLER "
				},
				"gasEstimates": {
					"creation": {
						"codeDepositCost": "1254800",
						"executionCost": "infinite",
						"totalCost": "infinite"
					},
					"external": {
						"K()": "2429",
						"_ERC20TokenBalance()": "infinite",
						"contractEthBalance()": "2496",
						"estimateERC20TokenToProvide(uint256)": "infinite",
						"estimateEthToProvide(uint256)": "infinite",
						"estimateSwapForERC20Token(uint256)": "infinite",
						"estimateSwapForEth(uint256)": "infinite",
						"getMyLiquidityPositions()": "2592",
						"provideLiquidity(uint256)": "infinite",
						"swapForERC20Token()": "infinite",
						"swapForEth(uint256)": "infinite",
						"withdrawLiquidity(uint256)": "infinite"
					}
				},
				"methodIdentifiers": {
					"K()": "a932492f",
					"_ERC20TokenBalance()": "bc23ae5e",
					"contractEthBalance()": "5d58ce36",
					"estimateERC20TokenToProvide(uint256)": "ed7bf868",
					"estimateEthToProvide(uint256)": "240f3dea",
					"estimateSwapForERC20Token(uint256)": "79ed3562",
					"estimateSwapForEth(uint256)": "903875f7",
					"getMyLiquidityPositions()": "e0ba2000",
					"provideLiquidity(uint256)": "eb521a4c",
					"swapForERC20Token()": "29cbab3e",
					"swapForEth(uint256)": "c8ab8325",
					"withdrawLiquidity(uint256)": "0a861f2a"
				}
			},
			"storageLayout": {
				"storage": [
					{
						"astId": 5,
						"contract": "Exchange.sol:Exchange",
						"label": "ierc20Token",
						"offset": 0,
						"slot": "0",
						"type": "t_contract(IERC20)1280"
					},
					{
						"astId": 8,
						"contract": "Exchange.sol:Exchange",
						"label": "contractERC20TokenBalance",
						"offset": 0,
						"slot": "1",
						"type": "t_uint256"
					},
					{
						"astId": 11,
						"contract": "Exchange.sol:Exchange",
						"label": "contractEthBalance",
						"offset": 0,
						"slot": "2",
						"type": "t_uint256"
					},
					{
						"astId": 14,
						"contract": "Exchange.sol:Exchange",
						"label": "totalLiquidityPositions",
						"offset": 0,
						"slot": "3",
						"type": "t_uint256"
					},
					{
						"astId": 17,
						"contract": "Exchange.sol:Exchange",
						"label": "K",
						"offset": 0,
						"slot": "4",
						"type": "t_uint256"
					},
					{
						"astId": 21,
						"contract": "Exchange.sol:Exchange",
						"label": "liquidityPositions",
						"offset": 0,
						"slot": "5",
						"type": "t_mapping(t_address,t_uint256)"
					},
					{
						"astId": 40,
						"contract": "Exchange.sol:Exchange",
						"label": "locked",
						"offset": 0,
						"slot": "6",
						"type": "t_bool"
					}
				],
				"types": {
					"t_address": {
						"encoding": "inplace",
						"label": "address",
						"numberOfBytes": "20"
					},
					"t_bool": {
						"encoding": "inplace",
						"label": "bool",
						"numberOfBytes": "1"
					},
					"t_contract(IERC20)1280": {
						"encoding": "inplace",
						"label": "contract IERC20",
						"numberOfBytes": "20"
					},
					"t_mapping(t_address,t_uint256)": {
						"encoding": "mapping",
						"key": "t_address",
						"label": "mapping(address => uint256)",
						"numberOfBytes": "32",
						"value": "t_uint256"
					},
					"t_uint256": {
						"encoding": "inplace",
						"label": "uint256",
						"numberOfBytes": "32"
					}
				}
			},
			"userdoc": {
				"kind": "user",
				"methods": {},
				"version": 1
			}
		}
	}
}