{
	"data": {
		"bytecode": {
			"linkReferences": {},
			"object": "608060405260006001556000600255600060035560006004556000600660006101000a81548160ff0219169083151502179055503480156200004057600080fd5b50604051620019e1380380620019e18339818101604052810190620000669190620000ca565b6000819050806000806101000a81548173ffffffffffffffffffffffffffffffffffffffff021916908373ffffffffffffffffffffffffffffffffffffffff16021790555050506200014f565b600081519050620000c48162000135565b92915050565b600060208284031215620000e357620000e262000130565b5b6000620000f384828501620000b3565b91505092915050565b6000620001098262000110565b9050919050565b600073ffffffffffffffffffffffffffffffffffffffff82169050919050565b600080fd5b6200014081620000fc565b81146200014c57600080fd5b50565b611882806200015f6000396000f3fe6080604052600436106100a75760003560e01c8063a932492f11610064578063a932492f146101dd578063bc23ae5e14610208578063c8ab832514610233578063e0ba200014610263578063eb521a4c1461028e578063ed7bf868146102be576100a7565b80630a861f2a146100ac578063240f3dea146100dd57806329cbab3e1461011a5780635d58ce361461013857806379ed356214610163578063903875f7146101a0575b600080fd5b6100c660048036038101906100c1919061131f565b6102fb565b6040516100d492919061153c565b60405180910390f35b3480156100e957600080fd5b5061010460048036038101906100ff919061131f565b6106d0565b6040516101119190611521565b60405180910390f35b61012261070a565b60405161012f9190611521565b60405180910390f35b34801561014457600080fd5b5061014d610977565b60405161015a9190611521565b60405180910390f35b34801561016f57600080fd5b5061018a6004803603810190610185919061131f565b61097d565b6040516101979190611521565b60405180910390f35b3480156101ac57600080fd5b506101c760048036038101906101c2919061131f565b6109cf565b6040516101d49190611521565b60405180910390f35b3480156101e957600080fd5b506101f2610a22565b6040516101ff9190611521565b60405180910390f35b34801561021457600080fd5b5061021d610a28565b60405161022a9190611521565b60405180910390f35b61024d6004803603810190610248919061131f565b610aeb565b60405161025a9190611521565b60405180910390f35b34801561026f57600080fd5b50610278610d1b565b6040516102859190611521565b60405180910390f35b6102a860048036038101906102a3919061131f565b610d62565b6040516102b59190611521565b60405180910390f35b3480156102ca57600080fd5b506102e560048036038101906102e0919061131f565b611279565b6040516102f29190611521565b60405180910390f35b600080600660009054906101000a900460ff161561034e576040517f08c379a0000000000000000000000000000000000000000000000000000000008152600401610345906114e1565b60405180910390fd5b6001600660006101000a81548160ff021916908315150217905550600560003373ffffffffffffffffffffffffffffffffffffffff1673ffffffffffffffffffffffffffffffffffffffff1681526020019081526020016000205483111580156103c657506000836003546103c3919061168e565b10155b1561065657600354600254846103dc9190611634565b6103e69190611603565b9150600354600154846103f99190611634565b6104039190611603565b905082600560003373ffffffffffffffffffffffffffffffffffffffff1673ffffffffffffffffffffffffffffffffffffffff1681526020019081526020016000206000828254610454919061168e565b92505081905550826003600082825461046d919061168e565b9250508190555060003390508073ffffffffffffffffffffffffffffffffffffffff166108fc849081150290604051600060405180830381858888f193505050501580156104bf573d6000803e3d6000fd5b5082600260008282546104d2919061168e565b9250508190555060008054906101000a900473ffffffffffffffffffffffffffffffffffffffff1673ffffffffffffffffffffffffffffffffffffffff1663095ea7b330846040518363ffffffff1660e01b8152600401610534929190611498565b602060405180830381600087803b15801561054e57600080fd5b505af1158015610562573d6000803e3d6000fd5b505050506040513d601f19601f8201168201806040525081019061058691906112f2565b5060008054906101000a900473ffffffffffffffffffffffffffffffffffffffff1673ffffffffffffffffffffffffffffffffffffffff166323b872dd3083856040518463ffffffff1660e01b81526004016105e49392919061142a565b602060405180830381600087803b1580156105fe57600080fd5b505af1158015610612573d6000803e3d6000fd5b505050506040513d601f19601f8201168201806040525081019061063691906112f2565b508160016000828254610649919061168e565b925050819055505061065f565b60009150600090505b60015460025461066f9190611634565b6004819055507fb14f451e613015c13a17c78777f1d87fcb448d7330d67299a09b8f2db38aab108183856040516106a893929190611565565b60405180910390a16000600660006101000a81548160ff021916908315150217905550915091565b6000670de0b6b3a7640000826106e69190611634565b9150600154826002546106f99190611634565b6107039190611603565b9050919050565b6000600660009054906101000a900460ff161561075c576040517f08c379a0000000000000000000000000000000000000000000000000000000008152600401610753906114e1565b60405180910390fd5b6001600660006101000a81548160ff021916908315150217905550346002600082825461078991906115ad565b9250508190555060006002546004546107a29190611603565b9050806001546107b2919061168e565b9150600033905060008054906101000a900473ffffffffffffffffffffffffffffffffffffffff1673ffffffffffffffffffffffffffffffffffffffff1663095ea7b330856040518363ffffffff1660e01b8152600401610814929190611498565b602060405180830381600087803b15801561082e57600080fd5b505af1158015610842573d6000803e3d6000fd5b505050506040513d601f19601f8201168201806040525081019061086691906112f2565b5060008054906101000a900473ffffffffffffffffffffffffffffffffffffffff1673ffffffffffffffffffffffffffffffffffffffff166323b872dd3083866040518463ffffffff1660e01b81526004016108c49392919061142a565b602060405180830381600087803b1580156108de57600080fd5b505af11580156108f2573d6000803e3d6000fd5b505050506040513d601f19601f8201168201806040525081019061091691906112f2565b50816001819055507fcdfc57b3d0cdc24b23cea1f480aabea287321f5bee23ad76c2b52fa7982f5ea5833460405161094f92919061153c565b60405180910390a150506000600660006101000a81548160ff02191690831515021790555090565b60025481565b6000808260025461098e91906115ad565b90506000816004546109a09190611603565b9050806001546109b0919061168e565b9250678ac7230489e80000836109c69190611603565b92505050919050565b6000670de0b6b3a7640000826109e59190611634565b91506000826001546109f791906115ad565b9050600081600454610a099190611603565b905080600254610a19919061168e565b92505050919050565b60045481565b6000670de0b6b3a764000060008054906101000a900473ffffffffffffffffffffffffffffffffffffffff1673ffffffffffffffffffffffffffffffffffffffff166370a08231306040518263ffffffff1660e01b8152600401610a8c919061140f565b60206040518083038186803b158015610aa457600080fd5b505afa158015610ab8573d6000803e3d6000fd5b505050506040513d601f19601f82011682018060405250810190610adc919061134c565b610ae69190611603565b905090565b6000600660009054906101000a900460ff1615610b3d576040517f08c379a0000000000000000000000000000000000000000000000000000000008152600401610b34906114e1565b60405180910390fd5b6001600660006101000a81548160ff021916908315150217905550670de0b6b3a764000082610b6c9190611634565b915060008054906101000a900473ffffffffffffffffffffffffffffffffffffffff1673ffffffffffffffffffffffffffffffffffffffff166323b872dd3330856040518463ffffffff1660e01b8152600401610bcb93929190611461565b602060405180830381600087803b158015610be557600080fd5b505af1158015610bf9573d6000803e3d6000fd5b505050506040513d601f19601f82011682018060405250810190610c1d91906112f2565b508160016000828254610c3091906115ad565b925050819055506000600154600454610c499190611603565b905080600254610c59919061168e565b915060003390508073ffffffffffffffffffffffffffffffffffffffff166108fc849081150290604051600060405180830381858888f19350505050158015610ca6573d6000803e3d6000fd5b508260026000828254610cb9919061168e565b925050819055507f3297a389bb586920e62a196af529d5f42651b17a1013d6bfe77f22372a0b21128484604051610cf192919061153c565b60405180910390a150506000600660006101000a81548160ff021916908315150217905550919050565b6000600560003373ffffffffffffffffffffffffffffffffffffffff1673ffffffffffffffffffffffffffffffffffffffff16815260200190815260200160002054905090565b6000600660009054906101000a900460ff1615610db4576040517f08c379a0000000000000000000000000000000000000000000000000000000008152600401610dab906114e1565b60405180910390fd5b6001600660006101000a81548160ff02191690831515021790555060003490508060026000828254610de691906115ad565b92505081905550670de0b6b3a764000083610e019190611634565b925060008054906101000a900473ffffffffffffffffffffffffffffffffffffffff1673ffffffffffffffffffffffffffffffffffffffff1663095ea7b330856040518363ffffffff1660e01b8152600401610e5e929190611498565b602060405180830381600087803b158015610e7857600080fd5b505af1158015610e8c573d6000803e3d6000fd5b505050506040513d601f19601f82011682018060405250810190610eb091906112f2565b5060008060009054906101000a900473ffffffffffffffffffffffffffffffffffffffff1673ffffffffffffffffffffffffffffffffffffffff166323b872dd3330876040518463ffffffff1660e01b8152600401610f1193929190611461565b602060405180830381600087803b158015610f2b57600080fd5b505af1158015610f3f573d6000803e3d6000fd5b505050506040513d601f19601f82011682018060405250810190610f6391906112f2565b905080610fa5576040517f08c379a0000000000000000000000000000000000000000000000000000000008152600401610f9c90611501565b60405180910390fd5b8360016000828254610fb791906115ad565b9250508190555060025482600354610fcf9190611634565b610fd99190611603565b60015485600354610fea9190611634565b610ff49190611603565b14611034576040517f08c379a000000000000000000000000000000000000000000000000000000000815260040161102b906114c1565b60405180910390fd5b600060035414156110e1576064600560003373ffffffffffffffffffffffffffffffffffffffff1673ffffffffffffffffffffffffffffffffffffffff16815260200190815260200160002081905550600560003373ffffffffffffffffffffffffffffffffffffffff1673ffffffffffffffffffffffffffffffffffffffff16815260200190815260200160002054600360008282546110d591906115ad565b92505081905550611185565b600154846003546110f29190611634565b6110fc9190611603565b600560003373ffffffffffffffffffffffffffffffffffffffff1673ffffffffffffffffffffffffffffffffffffffff168152602001908152602001600020600082825461114a91906115ad565b92505081905550600154846003546111629190611634565b61116c9190611603565b6003600082825461117d91906115ad565b925050819055505b6001546002546111959190611634565b6004819055507faa58f006cc244b2af6662862508bd39465f57169ff8386d1d1f7b0b903150abc8483600560003373ffffffffffffffffffffffffffffffffffffffff1673ffffffffffffffffffffffffffffffffffffffff1681526020019081526020016000205460405161120d93929190611565565b60405180910390a1600560003373ffffffffffffffffffffffffffffffffffffffff1673ffffffffffffffffffffffffffffffffffffffff16815260200190815260200160002054925050506000600660006101000a81548160ff021916908315150217905550919050565b60006002548260015461128c9190611634565b6112969190611603565b9050670de0b6b3a7640000816112ac9190611603565b9050919050565b6000815190506112c28161181e565b92915050565b6000813590506112d781611835565b92915050565b6000815190506112ec81611835565b92915050565b6000602082840312156113085761130761179e565b5b6000611316848285016112b3565b91505092915050565b6000602082840312156113355761133461179e565b5b6000611343848285016112c8565b91505092915050565b6000602082840312156113625761136161179e565b5b6000611370848285016112dd565b91505092915050565b6113828161170a565b82525050565b611391816116c2565b82525050565b60006113a460138361159c565b91506113af826117a3565b602082019050919050565b60006113c7600b8361159c565b91506113d2826117cc565b602082019050919050565b60006113ea60138361159c565b91506113f5826117f5565b602082019050919050565b61140981611700565b82525050565b60006020820190506114246000830184611388565b92915050565b600060608201905061143f6000830186611388565b61144c6020830185611379565b6114596040830184611400565b949350505050565b60006060820190506114766000830186611388565b6114836020830185611388565b6114906040830184611400565b949350505050565b60006040820190506114ad6000830185611388565b6114ba6020830184611400565b9392505050565b600060208201905081810360008301526114da81611397565b9050919050565b600060208201905081810360008301526114fa816113ba565b9050919050565b6000602082019050818103600083015261151a816113dd565b9050919050565b60006020820190506115366000830184611400565b92915050565b60006040820190506115516000830185611400565b61155e6020830184611400565b9392505050565b600060608201905061157a6000830186611400565b6115876020830185611400565b6115946040830184611400565b949350505050565b600082825260208201905092915050565b60006115b882611700565b91506115c383611700565b9250827fffffffffffffffffffffffffffffffffffffffffffffffffffffffffffffffff038211156115f8576115f7611740565b5b828201905092915050565b600061160e82611700565b915061161983611700565b9250826116295761162861176f565b5b828204905092915050565b600061163f82611700565b915061164a83611700565b9250817fffffffffffffffffffffffffffffffffffffffffffffffffffffffffffffffff048311821515161561168357611682611740565b5b828202905092915050565b600061169982611700565b91506116a483611700565b9250828210156116b7576116b6611740565b5b828203905092915050565b60006116cd826116e0565b9050919050565b60008115159050919050565b600073ffffffffffffffffffffffffffffffffffffffff82169050919050565b6000819050919050565b60006117158261171c565b9050919050565b60006117278261172e565b9050919050565b6000611739826116e0565b9050919050565b7f4e487b7100000000000000000000000000000000000000000000000000000000600052601160045260246000fd5b7f4e487b7100000000000000000000000000000000000000000000000000000000600052601260045260246000fd5b600080fd5b7f6c697175696469747920696e62616c616e636500000000000000000000000000600082015250565b7f4e6f2072652d656e747279000000000000000000000000000000000000000000600082015250565b7f7472616e73666572206661696c65642e203a2800000000000000000000000000600082015250565b611827816116d4565b811461183257600080fd5b50565b61183e81611700565b811461184957600080fd5b5056fea2646970667358221220920b8a52facf59ed74ba9f72eeb4ef53f52925a1d4e5c0ae6b3ef65f25fb42cc64736f6c63430008070033",
			"opcodes": "PUSH1 0x80 PUSH1 0x40 MSTORE PUSH1 0x0 PUSH1 0x1 SSTORE PUSH1 0x0 PUSH1 0x2 SSTORE PUSH1 0x0 PUSH1 0x3 SSTORE PUSH1 0x0 PUSH1 0x4 SSTORE PUSH1 0x0 PUSH1 0x6 PUSH1 0x0 PUSH2 0x100 EXP DUP2 SLOAD DUP2 PUSH1 0xFF MUL NOT AND SWAP1 DUP4 ISZERO ISZERO MUL OR SWAP1 SSTORE POP CALLVALUE DUP1 ISZERO PUSH3 0x40 JUMPI PUSH1 0x0 DUP1 REVERT JUMPDEST POP PUSH1 0x40 MLOAD PUSH3 0x19E1 CODESIZE SUB DUP1 PUSH3 0x19E1 DUP4 CODECOPY DUP2 DUP2 ADD PUSH1 0x40 MSTORE DUP2 ADD SWAP1 PUSH3 0x66 SWAP2 SWAP1 PUSH3 0xCA JUMP JUMPDEST PUSH1 0x0 DUP2 SWAP1 POP DUP1 PUSH1 0x0 DUP1 PUSH2 0x100 EXP DUP2 SLOAD DUP2 PUSH20 0xFFFFFFFFFFFFFFFFFFFFFFFFFFFFFFFFFFFFFFFF MUL NOT AND SWAP1 DUP4 PUSH20 0xFFFFFFFFFFFFFFFFFFFFFFFFFFFFFFFFFFFFFFFF AND MUL OR SWAP1 SSTORE POP POP POP PUSH3 0x14F JUMP JUMPDEST PUSH1 0x0 DUP2 MLOAD SWAP1 POP PUSH3 0xC4 DUP2 PUSH3 0x135 JUMP JUMPDEST SWAP3 SWAP2 POP POP JUMP JUMPDEST PUSH1 0x0 PUSH1 0x20 DUP3 DUP5 SUB SLT ISZERO PUSH3 0xE3 JUMPI PUSH3 0xE2 PUSH3 0x130 JUMP JUMPDEST JUMPDEST PUSH1 0x0 PUSH3 0xF3 DUP5 DUP3 DUP6 ADD PUSH3 0xB3 JUMP JUMPDEST SWAP2 POP POP SWAP3 SWAP2 POP POP JUMP JUMPDEST PUSH1 0x0 PUSH3 0x109 DUP3 PUSH3 0x110 JUMP JUMPDEST SWAP1 POP SWAP2 SWAP1 POP JUMP JUMPDEST PUSH1 0x0 PUSH20 0xFFFFFFFFFFFFFFFFFFFFFFFFFFFFFFFFFFFFFFFF DUP3 AND SWAP1 POP SWAP2 SWAP1 POP JUMP JUMPDEST PUSH1 0x0 DUP1 REVERT JUMPDEST PUSH3 0x140 DUP2 PUSH3 0xFC JUMP JUMPDEST DUP2 EQ PUSH3 0x14C JUMPI PUSH1 0x0 DUP1 REVERT JUMPDEST POP JUMP JUMPDEST PUSH2 0x1882 DUP1 PUSH3 0x15F PUSH1 0x0 CODECOPY PUSH1 0x0 RETURN INVALID PUSH1 0x80 PUSH1 0x40 MSTORE PUSH1 0x4 CALLDATASIZE LT PUSH2 0xA7 JUMPI PUSH1 0x0 CALLDATALOAD PUSH1 0xE0 SHR DUP1 PUSH4 0xA932492F GT PUSH2 0x64 JUMPI DUP1 PUSH4 0xA932492F EQ PUSH2 0x1DD JUMPI DUP1 PUSH4 0xBC23AE5E EQ PUSH2 0x208 JUMPI DUP1 PUSH4 0xC8AB8325 EQ PUSH2 0x233 JUMPI DUP1 PUSH4 0xE0BA2000 EQ PUSH2 0x263 JUMPI DUP1 PUSH4 0xEB521A4C EQ PUSH2 0x28E JUMPI DUP1 PUSH4 0xED7BF868 EQ PUSH2 0x2BE JUMPI PUSH2 0xA7 JUMP JUMPDEST DUP1 PUSH4 0xA861F2A EQ PUSH2 0xAC JUMPI DUP1 PUSH4 0x240F3DEA EQ PUSH2 0xDD JUMPI DUP1 PUSH4 0x29CBAB3E EQ PUSH2 0x11A JUMPI DUP1 PUSH4 0x5D58CE36 EQ PUSH2 0x138 JUMPI DUP1 PUSH4 0x79ED3562 EQ PUSH2 0x163 JUMPI DUP1 PUSH4 0x903875F7 EQ PUSH2 0x1A0 JUMPI JUMPDEST PUSH1 0x0 DUP1 REVERT JUMPDEST PUSH2 0xC6 PUSH1 0x4 DUP1 CALLDATASIZE SUB DUP2 ADD SWAP1 PUSH2 0xC1 SWAP2 SWAP1 PUSH2 0x131F JUMP JUMPDEST PUSH2 0x2FB JUMP JUMPDEST PUSH1 0x40 MLOAD PUSH2 0xD4 SWAP3 SWAP2 SWAP1 PUSH2 0x153C JUMP JUMPDEST PUSH1 0x40 MLOAD DUP1 SWAP2 SUB SWAP1 RETURN JUMPDEST CALLVALUE DUP1 ISZERO PUSH2 0xE9 JUMPI PUSH1 0x0 DUP1 REVERT JUMPDEST POP PUSH2 0x104 PUSH1 0x4 DUP1 CALLDATASIZE SUB DUP2 ADD SWAP1 PUSH2 0xFF SWAP2 SWAP1 PUSH2 0x131F JUMP JUMPDEST PUSH2 0x6D0 JUMP JUMPDEST PUSH1 0x40 MLOAD PUSH2 0x111 SWAP2 SWAP1 PUSH2 0x1521 JUMP JUMPDEST PUSH1 0x40 MLOAD DUP1 SWAP2 SUB SWAP1 RETURN JUMPDEST PUSH2 0x122 PUSH2 0x70A JUMP JUMPDEST PUSH1 0x40 MLOAD PUSH2 0x12F SWAP2 SWAP1 PUSH2 0x1521 JUMP JUMPDEST PUSH1 0x40 MLOAD DUP1 SWAP2 SUB SWAP1 RETURN JUMPDEST CALLVALUE DUP1 ISZERO PUSH2 0x144 JUMPI PUSH1 0x0 DUP1 REVERT JUMPDEST POP PUSH2 0x14D PUSH2 0x977 JUMP JUMPDEST PUSH1 0x40 MLOAD PUSH2 0x15A SWAP2 SWAP1 PUSH2 0x1521 JUMP JUMPDEST PUSH1 0x40 MLOAD DUP1 SWAP2 SUB SWAP1 RETURN JUMPDEST CALLVALUE DUP1 ISZERO PUSH2 0x16F JUMPI PUSH1 0x0 DUP1 REVERT JUMPDEST POP PUSH2 0x18A PUSH1 0x4 DUP1 CALLDATASIZE SUB DUP2 ADD SWAP1 PUSH2 0x185 SWAP2 SWAP1 PUSH2 0x131F JUMP JUMPDEST PUSH2 0x97D JUMP JUMPDEST PUSH1 0x40 MLOAD PUSH2 0x197 SWAP2 SWAP1 PUSH2 0x1521 JUMP JUMPDEST PUSH1 0x40 MLOAD DUP1 SWAP2 SUB SWAP1 RETURN JUMPDEST CALLVALUE DUP1 ISZERO PUSH2 0x1AC JUMPI PUSH1 0x0 DUP1 REVERT JUMPDEST POP PUSH2 0x1C7 PUSH1 0x4 DUP1 CALLDATASIZE SUB DUP2 ADD SWAP1 PUSH2 0x1C2 SWAP2 SWAP1 PUSH2 0x131F JUMP JUMPDEST PUSH2 0x9CF JUMP JUMPDEST PUSH1 0x40 MLOAD PUSH2 0x1D4 SWAP2 SWAP1 PUSH2 0x1521 JUMP JUMPDEST PUSH1 0x40 MLOAD DUP1 SWAP2 SUB SWAP1 RETURN JUMPDEST CALLVALUE DUP1 ISZERO PUSH2 0x1E9 JUMPI PUSH1 0x0 DUP1 REVERT JUMPDEST POP PUSH2 0x1F2 PUSH2 0xA22 JUMP JUMPDEST PUSH1 0x40 MLOAD PUSH2 0x1FF SWAP2 SWAP1 PUSH2 0x1521 JUMP JUMPDEST PUSH1 0x40 MLOAD DUP1 SWAP2 SUB SWAP1 RETURN JUMPDEST CALLVALUE DUP1 ISZERO PUSH2 0x214 JUMPI PUSH1 0x0 DUP1 REVERT JUMPDEST POP PUSH2 0x21D PUSH2 0xA28 JUMP JUMPDEST PUSH1 0x40 MLOAD PUSH2 0x22A SWAP2 SWAP1 PUSH2 0x1521 JUMP JUMPDEST PUSH1 0x40 MLOAD DUP1 SWAP2 SUB SWAP1 RETURN JUMPDEST PUSH2 0x24D PUSH1 0x4 DUP1 CALLDATASIZE SUB DUP2 ADD SWAP1 PUSH2 0x248 SWAP2 SWAP1 PUSH2 0x131F JUMP JUMPDEST PUSH2 0xAEB JUMP JUMPDEST PUSH1 0x40 MLOAD PUSH2 0x25A SWAP2 SWAP1 PUSH2 0x1521 JUMP JUMPDEST PUSH1 0x40 MLOAD DUP1 SWAP2 SUB SWAP1 RETURN JUMPDEST CALLVALUE DUP1 ISZERO PUSH2 0x26F JUMPI PUSH1 0x0 DUP1 REVERT JUMPDEST POP PUSH2 0x278 PUSH2 0xD1B JUMP JUMPDEST PUSH1 0x40 MLOAD PUSH2 0x285 SWAP2 SWAP1 PUSH2 0x1521 JUMP JUMPDEST PUSH1 0x40 MLOAD DUP1 SWAP2 SUB SWAP1 RETURN JUMPDEST PUSH2 0x2A8 PUSH1 0x4 DUP1 CALLDATASIZE SUB DUP2 ADD SWAP1 PUSH2 0x2A3 SWAP2 SWAP1 PUSH2 0x131F JUMP JUMPDEST PUSH2 0xD62 JUMP JUMPDEST PUSH1 0x40 MLOAD PUSH2 0x2B5 SWAP2 SWAP1 PUSH2 0x1521 JUMP JUMPDEST PUSH1 0x40 MLOAD DUP1 SWAP2 SUB SWAP1 RETURN JUMPDEST CALLVALUE DUP1 ISZERO PUSH2 0x2CA JUMPI PUSH1 0x0 DUP1 REVERT JUMPDEST POP PUSH2 0x2E5 PUSH1 0x4 DUP1 CALLDATASIZE SUB DUP2 ADD SWAP1 PUSH2 0x2E0 SWAP2 SWAP1 PUSH2 0x131F JUMP JUMPDEST PUSH2 0x1279 JUMP JUMPDEST PUSH1 0x40 MLOAD PUSH2 0x2F2 SWAP2 SWAP1 PUSH2 0x1521 JUMP JUMPDEST PUSH1 0x40 MLOAD DUP1 SWAP2 SUB SWAP1 RETURN JUMPDEST PUSH1 0x0 DUP1 PUSH1 0x6 PUSH1 0x0 SWAP1 SLOAD SWAP1 PUSH2 0x100 EXP SWAP1 DIV PUSH1 0xFF AND ISZERO PUSH2 0x34E JUMPI PUSH1 0x40 MLOAD PUSH32 0x8C379A000000000000000000000000000000000000000000000000000000000 DUP2 MSTORE PUSH1 0x4 ADD PUSH2 0x345 SWAP1 PUSH2 0x14E1 JUMP JUMPDEST PUSH1 0x40 MLOAD DUP1 SWAP2 SUB SWAP1 REVERT JUMPDEST PUSH1 0x1 PUSH1 0x6 PUSH1 0x0 PUSH2 0x100 EXP DUP2 SLOAD DUP2 PUSH1 0xFF MUL NOT AND SWAP1 DUP4 ISZERO ISZERO MUL OR SWAP1 SSTORE POP PUSH1 0x5 PUSH1 0x0 CALLER PUSH20 0xFFFFFFFFFFFFFFFFFFFFFFFFFFFFFFFFFFFFFFFF AND PUSH20 0xFFFFFFFFFFFFFFFFFFFFFFFFFFFFFFFFFFFFFFFF AND DUP2 MSTORE PUSH1 0x20 ADD SWAP1 DUP2 MSTORE PUSH1 0x20 ADD PUSH1 0x0 KECCAK256 SLOAD DUP4 GT ISZERO DUP1 ISZERO PUSH2 0x3C6 JUMPI POP PUSH1 0x0 DUP4 PUSH1 0x3 SLOAD PUSH2 0x3C3 SWAP2 SWAP1 PUSH2 0x168E JUMP JUMPDEST LT ISZERO JUMPDEST ISZERO PUSH2 0x656 JUMPI PUSH1 0x3 SLOAD PUSH1 0x2 SLOAD DUP5 PUSH2 0x3DC SWAP2 SWAP1 PUSH2 0x1634 JUMP JUMPDEST PUSH2 0x3E6 SWAP2 SWAP1 PUSH2 0x1603 JUMP JUMPDEST SWAP2 POP PUSH1 0x3 SLOAD PUSH1 0x1 SLOAD DUP5 PUSH2 0x3F9 SWAP2 SWAP1 PUSH2 0x1634 JUMP JUMPDEST PUSH2 0x403 SWAP2 SWAP1 PUSH2 0x1603 JUMP JUMPDEST SWAP1 POP DUP3 PUSH1 0x5 PUSH1 0x0 CALLER PUSH20 0xFFFFFFFFFFFFFFFFFFFFFFFFFFFFFFFFFFFFFFFF AND PUSH20 0xFFFFFFFFFFFFFFFFFFFFFFFFFFFFFFFFFFFFFFFF AND DUP2 MSTORE PUSH1 0x20 ADD SWAP1 DUP2 MSTORE PUSH1 0x20 ADD PUSH1 0x0 KECCAK256 PUSH1 0x0 DUP3 DUP3 SLOAD PUSH2 0x454 SWAP2 SWAP1 PUSH2 0x168E JUMP JUMPDEST SWAP3 POP POP DUP2 SWAP1 SSTORE POP DUP3 PUSH1 0x3 PUSH1 0x0 DUP3 DUP3 SLOAD PUSH2 0x46D SWAP2 SWAP1 PUSH2 0x168E JUMP JUMPDEST SWAP3 POP POP DUP2 SWAP1 SSTORE POP PUSH1 0x0 CALLER SWAP1 POP DUP1 PUSH20 0xFFFFFFFFFFFFFFFFFFFFFFFFFFFFFFFFFFFFFFFF AND PUSH2 0x8FC DUP5 SWAP1 DUP2 ISZERO MUL SWAP1 PUSH1 0x40 MLOAD PUSH1 0x0 PUSH1 0x40 MLOAD DUP1 DUP4 SUB DUP2 DUP6 DUP9 DUP9 CALL SWAP4 POP POP POP POP ISZERO DUP1 ISZERO PUSH2 0x4BF JUMPI RETURNDATASIZE PUSH1 0x0 DUP1 RETURNDATACOPY RETURNDATASIZE PUSH1 0x0 REVERT JUMPDEST POP DUP3 PUSH1 0x2 PUSH1 0x0 DUP3 DUP3 SLOAD PUSH2 0x4D2 SWAP2 SWAP1 PUSH2 0x168E JUMP JUMPDEST SWAP3 POP POP DUP2 SWAP1 SSTORE POP PUSH1 0x0 DUP1 SLOAD SWAP1 PUSH2 0x100 EXP SWAP1 DIV PUSH20 0xFFFFFFFFFFFFFFFFFFFFFFFFFFFFFFFFFFFFFFFF AND PUSH20 0xFFFFFFFFFFFFFFFFFFFFFFFFFFFFFFFFFFFFFFFF AND PUSH4 0x95EA7B3 ADDRESS DUP5 PUSH1 0x40 MLOAD DUP4 PUSH4 0xFFFFFFFF AND PUSH1 0xE0 SHL DUP2 MSTORE PUSH1 0x4 ADD PUSH2 0x534 SWAP3 SWAP2 SWAP1 PUSH2 0x1498 JUMP JUMPDEST PUSH1 0x20 PUSH1 0x40 MLOAD DUP1 DUP4 SUB DUP2 PUSH1 0x0 DUP8 DUP1 EXTCODESIZE ISZERO DUP1 ISZERO PUSH2 0x54E JUMPI PUSH1 0x0 DUP1 REVERT JUMPDEST POP GAS CALL ISZERO DUP1 ISZERO PUSH2 0x562 JUMPI RETURNDATASIZE PUSH1 0x0 DUP1 RETURNDATACOPY RETURNDATASIZE PUSH1 0x0 REVERT JUMPDEST POP POP POP POP PUSH1 0x40 MLOAD RETURNDATASIZE PUSH1 0x1F NOT PUSH1 0x1F DUP3 ADD AND DUP3 ADD DUP1 PUSH1 0x40 MSTORE POP DUP2 ADD SWAP1 PUSH2 0x586 SWAP2 SWAP1 PUSH2 0x12F2 JUMP JUMPDEST POP PUSH1 0x0 DUP1 SLOAD SWAP1 PUSH2 0x100 EXP SWAP1 DIV PUSH20 0xFFFFFFFFFFFFFFFFFFFFFFFFFFFFFFFFFFFFFFFF AND PUSH20 0xFFFFFFFFFFFFFFFFFFFFFFFFFFFFFFFFFFFFFFFF AND PUSH4 0x23B872DD ADDRESS DUP4 DUP6 PUSH1 0x40 MLOAD DUP5 PUSH4 0xFFFFFFFF AND PUSH1 0xE0 SHL DUP2 MSTORE PUSH1 0x4 ADD PUSH2 0x5E4 SWAP4 SWAP3 SWAP2 SWAP1 PUSH2 0x142A JUMP JUMPDEST PUSH1 0x20 PUSH1 0x40 MLOAD DUP1 DUP4 SUB DUP2 PUSH1 0x0 DUP8 DUP1 EXTCODESIZE ISZERO DUP1 ISZERO PUSH2 0x5FE JUMPI PUSH1 0x0 DUP1 REVERT JUMPDEST POP GAS CALL ISZERO DUP1 ISZERO PUSH2 0x612 JUMPI RETURNDATASIZE PUSH1 0x0 DUP1 RETURNDATACOPY RETURNDATASIZE PUSH1 0x0 REVERT JUMPDEST POP POP POP POP PUSH1 0x40 MLOAD RETURNDATASIZE PUSH1 0x1F NOT PUSH1 0x1F DUP3 ADD AND DUP3 ADD DUP1 PUSH1 0x40 MSTORE POP DUP2 ADD SWAP1 PUSH2 0x636 SWAP2 SWAP1 PUSH2 0x12F2 JUMP JUMPDEST POP DUP2 PUSH1 0x1 PUSH1 0x0 DUP3 DUP3 SLOAD PUSH2 0x649 SWAP2 SWAP1 PUSH2 0x168E JUMP JUMPDEST SWAP3 POP POP DUP2 SWAP1 SSTORE POP POP PUSH2 0x65F JUMP JUMPDEST PUSH1 0x0 SWAP2 POP PUSH1 0x0 SWAP1 POP JUMPDEST PUSH1 0x1 SLOAD PUSH1 0x2 SLOAD PUSH2 0x66F SWAP2 SWAP1 PUSH2 0x1634 JUMP JUMPDEST PUSH1 0x4 DUP2 SWAP1 SSTORE POP PUSH32 0xB14F451E613015C13A17C78777F1D87FCB448D7330D67299A09B8F2DB38AAB10 DUP2 DUP4 DUP6 PUSH1 0x40 MLOAD PUSH2 0x6A8 SWAP4 SWAP3 SWAP2 SWAP1 PUSH2 0x1565 JUMP JUMPDEST PUSH1 0x40 MLOAD DUP1 SWAP2 SUB SWAP1 LOG1 PUSH1 0x0 PUSH1 0x6 PUSH1 0x0 PUSH2 0x100 EXP DUP2 SLOAD DUP2 PUSH1 0xFF MUL NOT AND SWAP1 DUP4 ISZERO ISZERO MUL OR SWAP1 SSTORE POP SWAP2 POP SWAP2 JUMP JUMPDEST PUSH1 0x0 PUSH8 0xDE0B6B3A7640000 DUP3 PUSH2 0x6E6 SWAP2 SWAP1 PUSH2 0x1634 JUMP JUMPDEST SWAP2 POP PUSH1 0x1 SLOAD DUP3 PUSH1 0x2 SLOAD PUSH2 0x6F9 SWAP2 SWAP1 PUSH2 0x1634 JUMP JUMPDEST PUSH2 0x703 SWAP2 SWAP1 PUSH2 0x1603 JUMP JUMPDEST SWAP1 POP SWAP2 SWAP1 POP JUMP JUMPDEST PUSH1 0x0 PUSH1 0x6 PUSH1 0x0 SWAP1 SLOAD SWAP1 PUSH2 0x100 EXP SWAP1 DIV PUSH1 0xFF AND ISZERO PUSH2 0x75C JUMPI PUSH1 0x40 MLOAD PUSH32 0x8C379A000000000000000000000000000000000000000000000000000000000 DUP2 MSTORE PUSH1 0x4 ADD PUSH2 0x753 SWAP1 PUSH2 0x14E1 JUMP JUMPDEST PUSH1 0x40 MLOAD DUP1 SWAP2 SUB SWAP1 REVERT JUMPDEST PUSH1 0x1 PUSH1 0x6 PUSH1 0x0 PUSH2 0x100 EXP DUP2 SLOAD DUP2 PUSH1 0xFF MUL NOT AND SWAP1 DUP4 ISZERO ISZERO MUL OR SWAP1 SSTORE POP CALLVALUE PUSH1 0x2 PUSH1 0x0 DUP3 DUP3 SLOAD PUSH2 0x789 SWAP2 SWAP1 PUSH2 0x15AD JUMP JUMPDEST SWAP3 POP POP DUP2 SWAP1 SSTORE POP PUSH1 0x0 PUSH1 0x2 SLOAD PUSH1 0x4 SLOAD PUSH2 0x7A2 SWAP2 SWAP1 PUSH2 0x1603 JUMP JUMPDEST SWAP1 POP DUP1 PUSH1 0x1 SLOAD PUSH2 0x7B2 SWAP2 SWAP1 PUSH2 0x168E JUMP JUMPDEST SWAP2 POP PUSH1 0x0 CALLER SWAP1 POP PUSH1 0x0 DUP1 SLOAD SWAP1 PUSH2 0x100 EXP SWAP1 DIV PUSH20 0xFFFFFFFFFFFFFFFFFFFFFFFFFFFFFFFFFFFFFFFF AND PUSH20 0xFFFFFFFFFFFFFFFFFFFFFFFFFFFFFFFFFFFFFFFF AND PUSH4 0x95EA7B3 ADDRESS DUP6 PUSH1 0x40 MLOAD DUP4 PUSH4 0xFFFFFFFF AND PUSH1 0xE0 SHL DUP2 MSTORE PUSH1 0x4 ADD PUSH2 0x814 SWAP3 SWAP2 SWAP1 PUSH2 0x1498 JUMP JUMPDEST PUSH1 0x20 PUSH1 0x40 MLOAD DUP1 DUP4 SUB DUP2 PUSH1 0x0 DUP8 DUP1 EXTCODESIZE ISZERO DUP1 ISZERO PUSH2 0x82E JUMPI PUSH1 0x0 DUP1 REVERT JUMPDEST POP GAS CALL ISZERO DUP1 ISZERO PUSH2 0x842 JUMPI RETURNDATASIZE PUSH1 0x0 DUP1 RETURNDATACOPY RETURNDATASIZE PUSH1 0x0 REVERT JUMPDEST POP POP POP POP PUSH1 0x40 MLOAD RETURNDATASIZE PUSH1 0x1F NOT PUSH1 0x1F DUP3 ADD AND DUP3 ADD DUP1 PUSH1 0x40 MSTORE POP DUP2 ADD SWAP1 PUSH2 0x866 SWAP2 SWAP1 PUSH2 0x12F2 JUMP JUMPDEST POP PUSH1 0x0 DUP1 SLOAD SWAP1 PUSH2 0x100 EXP SWAP1 DIV PUSH20 0xFFFFFFFFFFFFFFFFFFFFFFFFFFFFFFFFFFFFFFFF AND PUSH20 0xFFFFFFFFFFFFFFFFFFFFFFFFFFFFFFFFFFFFFFFF AND PUSH4 0x23B872DD ADDRESS DUP4 DUP7 PUSH1 0x40 MLOAD DUP5 PUSH4 0xFFFFFFFF AND PUSH1 0xE0 SHL DUP2 MSTORE PUSH1 0x4 ADD PUSH2 0x8C4 SWAP4 SWAP3 SWAP2 SWAP1 PUSH2 0x142A JUMP JUMPDEST PUSH1 0x20 PUSH1 0x40 MLOAD DUP1 DUP4 SUB DUP2 PUSH1 0x0 DUP8 DUP1 EXTCODESIZE ISZERO DUP1 ISZERO PUSH2 0x8DE JUMPI PUSH1 0x0 DUP1 REVERT JUMPDEST POP GAS CALL ISZERO DUP1 ISZERO PUSH2 0x8F2 JUMPI RETURNDATASIZE PUSH1 0x0 DUP1 RETURNDATACOPY RETURNDATASIZE PUSH1 0x0 REVERT JUMPDEST POP POP POP POP PUSH1 0x40 MLOAD RETURNDATASIZE PUSH1 0x1F NOT PUSH1 0x1F DUP3 ADD AND DUP3 ADD DUP1 PUSH1 0x40 MSTORE POP DUP2 ADD SWAP1 PUSH2 0x916 SWAP2 SWAP1 PUSH2 0x12F2 JUMP JUMPDEST POP DUP2 PUSH1 0x1 DUP2 SWAP1 SSTORE POP PUSH32 0xCDFC57B3D0CDC24B23CEA1F480AABEA287321F5BEE23AD76C2B52FA7982F5EA5 DUP4 CALLVALUE PUSH1 0x40 MLOAD PUSH2 0x94F SWAP3 SWAP2 SWAP1 PUSH2 0x153C JUMP JUMPDEST PUSH1 0x40 MLOAD DUP1 SWAP2 SUB SWAP1 LOG1 POP POP PUSH1 0x0 PUSH1 0x6 PUSH1 0x0 PUSH2 0x100 EXP DUP2 SLOAD DUP2 PUSH1 0xFF MUL NOT AND SWAP1 DUP4 ISZERO ISZERO MUL OR SWAP1 SSTORE POP SWAP1 JUMP JUMPDEST PUSH1 0x2 SLOAD DUP2 JUMP JUMPDEST PUSH1 0x0 DUP1 DUP3 PUSH1 0x2 SLOAD PUSH2 0x98E SWAP2 SWAP1 PUSH2 0x15AD JUMP JUMPDEST SWAP1 POP PUSH1 0x0 DUP2 PUSH1 0x4 SLOAD PUSH2 0x9A0 SWAP2 SWAP1 PUSH2 0x1603 JUMP JUMPDEST SWAP1 POP DUP1 PUSH1 0x1 SLOAD PUSH2 0x9B0 SWAP2 SWAP1 PUSH2 0x168E JUMP JUMPDEST SWAP3 POP PUSH8 0x8AC7230489E80000 DUP4 PUSH2 0x9C6 SWAP2 SWAP1 PUSH2 0x1603 JUMP JUMPDEST SWAP3 POP POP POP SWAP2 SWAP1 POP JUMP JUMPDEST PUSH1 0x0 PUSH8 0xDE0B6B3A7640000 DUP3 PUSH2 0x9E5 SWAP2 SWAP1 PUSH2 0x1634 JUMP JUMPDEST SWAP2 POP PUSH1 0x0 DUP3 PUSH1 0x1 SLOAD PUSH2 0x9F7 SWAP2 SWAP1 PUSH2 0x15AD JUMP JUMPDEST SWAP1 POP PUSH1 0x0 DUP2 PUSH1 0x4 SLOAD PUSH2 0xA09 SWAP2 SWAP1 PUSH2 0x1603 JUMP JUMPDEST SWAP1 POP DUP1 PUSH1 0x2 SLOAD PUSH2 0xA19 SWAP2 SWAP1 PUSH2 0x168E JUMP JUMPDEST SWAP3 POP POP POP SWAP2 SWAP1 POP JUMP JUMPDEST PUSH1 0x4 SLOAD DUP2 JUMP JUMPDEST PUSH1 0x0 PUSH8 0xDE0B6B3A7640000 PUSH1 0x0 DUP1 SLOAD SWAP1 PUSH2 0x100 EXP SWAP1 DIV PUSH20 0xFFFFFFFFFFFFFFFFFFFFFFFFFFFFFFFFFFFFFFFF AND PUSH20 0xFFFFFFFFFFFFFFFFFFFFFFFFFFFFFFFFFFFFFFFF AND PUSH4 0x70A08231 ADDRESS PUSH1 0x40 MLOAD DUP3 PUSH4 0xFFFFFFFF AND PUSH1 0xE0 SHL DUP2 MSTORE PUSH1 0x4 ADD PUSH2 0xA8C SWAP2 SWAP1 PUSH2 0x140F JUMP JUMPDEST PUSH1 0x20 PUSH1 0x40 MLOAD DUP1 DUP4 SUB DUP2 DUP7 DUP1 EXTCODESIZE ISZERO DUP1 ISZERO PUSH2 0xAA4 JUMPI PUSH1 0x0 DUP1 REVERT JUMPDEST POP GAS STATICCALL ISZERO DUP1 ISZERO PUSH2 0xAB8 JUMPI RETURNDATASIZE PUSH1 0x0 DUP1 RETURNDATACOPY RETURNDATASIZE PUSH1 0x0 REVERT JUMPDEST POP POP POP POP PUSH1 0x40 MLOAD RETURNDATASIZE PUSH1 0x1F NOT PUSH1 0x1F DUP3 ADD AND DUP3 ADD DUP1 PUSH1 0x40 MSTORE POP DUP2 ADD SWAP1 PUSH2 0xADC SWAP2 SWAP1 PUSH2 0x134C JUMP JUMPDEST PUSH2 0xAE6 SWAP2 SWAP1 PUSH2 0x1603 JUMP JUMPDEST SWAP1 POP SWAP1 JUMP JUMPDEST PUSH1 0x0 PUSH1 0x6 PUSH1 0x0 SWAP1 SLOAD SWAP1 PUSH2 0x100 EXP SWAP1 DIV PUSH1 0xFF AND ISZERO PUSH2 0xB3D JUMPI PUSH1 0x40 MLOAD PUSH32 0x8C379A000000000000000000000000000000000000000000000000000000000 DUP2 MSTORE PUSH1 0x4 ADD PUSH2 0xB34 SWAP1 PUSH2 0x14E1 JUMP JUMPDEST PUSH1 0x40 MLOAD DUP1 SWAP2 SUB SWAP1 REVERT JUMPDEST PUSH1 0x1 PUSH1 0x6 PUSH1 0x0 PUSH2 0x100 EXP DUP2 SLOAD DUP2 PUSH1 0xFF MUL NOT AND SWAP1 DUP4 ISZERO ISZERO MUL OR SWAP1 SSTORE POP PUSH8 0xDE0B6B3A7640000 DUP3 PUSH2 0xB6C SWAP2 SWAP1 PUSH2 0x1634 JUMP JUMPDEST SWAP2 POP PUSH1 0x0 DUP1 SLOAD SWAP1 PUSH2 0x100 EXP SWAP1 DIV PUSH20 0xFFFFFFFFFFFFFFFFFFFFFFFFFFFFFFFFFFFFFFFF AND PUSH20 0xFFFFFFFFFFFFFFFFFFFFFFFFFFFFFFFFFFFFFFFF AND PUSH4 0x23B872DD CALLER ADDRESS DUP6 PUSH1 0x40 MLOAD DUP5 PUSH4 0xFFFFFFFF AND PUSH1 0xE0 SHL DUP2 MSTORE PUSH1 0x4 ADD PUSH2 0xBCB SWAP4 SWAP3 SWAP2 SWAP1 PUSH2 0x1461 JUMP JUMPDEST PUSH1 0x20 PUSH1 0x40 MLOAD DUP1 DUP4 SUB DUP2 PUSH1 0x0 DUP8 DUP1 EXTCODESIZE ISZERO DUP1 ISZERO PUSH2 0xBE5 JUMPI PUSH1 0x0 DUP1 REVERT JUMPDEST POP GAS CALL ISZERO DUP1 ISZERO PUSH2 0xBF9 JUMPI RETURNDATASIZE PUSH1 0x0 DUP1 RETURNDATACOPY RETURNDATASIZE PUSH1 0x0 REVERT JUMPDEST POP POP POP POP PUSH1 0x40 MLOAD RETURNDATASIZE PUSH1 0x1F NOT PUSH1 0x1F DUP3 ADD AND DUP3 ADD DUP1 PUSH1 0x40 MSTORE POP DUP2 ADD SWAP1 PUSH2 0xC1D SWAP2 SWAP1 PUSH2 0x12F2 JUMP JUMPDEST POP DUP2 PUSH1 0x1 PUSH1 0x0 DUP3 DUP3 SLOAD PUSH2 0xC30 SWAP2 SWAP1 PUSH2 0x15AD JUMP JUMPDEST SWAP3 POP POP DUP2 SWAP1 SSTORE POP PUSH1 0x0 PUSH1 0x1 SLOAD PUSH1 0x4 SLOAD PUSH2 0xC49 SWAP2 SWAP1 PUSH2 0x1603 JUMP JUMPDEST SWAP1 POP DUP1 PUSH1 0x2 SLOAD PUSH2 0xC59 SWAP2 SWAP1 PUSH2 0x168E JUMP JUMPDEST SWAP2 POP PUSH1 0x0 CALLER SWAP1 POP DUP1 PUSH20 0xFFFFFFFFFFFFFFFFFFFFFFFFFFFFFFFFFFFFFFFF AND PUSH2 0x8FC DUP5 SWAP1 DUP2 ISZERO MUL SWAP1 PUSH1 0x40 MLOAD PUSH1 0x0 PUSH1 0x40 MLOAD DUP1 DUP4 SUB DUP2 DUP6 DUP9 DUP9 CALL SWAP4 POP POP POP POP ISZERO DUP1 ISZERO PUSH2 0xCA6 JUMPI RETURNDATASIZE PUSH1 0x0 DUP1 RETURNDATACOPY RETURNDATASIZE PUSH1 0x0 REVERT JUMPDEST POP DUP3 PUSH1 0x2 PUSH1 0x0 DUP3 DUP3 SLOAD PUSH2 0xCB9 SWAP2 SWAP1 PUSH2 0x168E JUMP JUMPDEST SWAP3 POP POP DUP2 SWAP1 SSTORE POP PUSH32 0x3297A389BB586920E62A196AF529D5F42651B17A1013D6BFE77F22372A0B2112 DUP5 DUP5 PUSH1 0x40 MLOAD PUSH2 0xCF1 SWAP3 SWAP2 SWAP1 PUSH2 0x153C JUMP JUMPDEST PUSH1 0x40 MLOAD DUP1 SWAP2 SUB SWAP1 LOG1 POP POP PUSH1 0x0 PUSH1 0x6 PUSH1 0x0 PUSH2 0x100 EXP DUP2 SLOAD DUP2 PUSH1 0xFF MUL NOT AND SWAP1 DUP4 ISZERO ISZERO MUL OR SWAP1 SSTORE POP SWAP2 SWAP1 POP JUMP JUMPDEST PUSH1 0x0 PUSH1 0x5 PUSH1 0x0 CALLER PUSH20 0xFFFFFFFFFFFFFFFFFFFFFFFFFFFFFFFFFFFFFFFF AND PUSH20 0xFFFFFFFFFFFFFFFFFFFFFFFFFFFFFFFFFFFFFFFF AND DUP2 MSTORE PUSH1 0x20 ADD SWAP1 DUP2 MSTORE PUSH1 0x20 ADD PUSH1 0x0 KECCAK256 SLOAD SWAP1 POP SWAP1 JUMP JUMPDEST PUSH1 0x0 PUSH1 0x6 PUSH1 0x0 SWAP1 SLOAD SWAP1 PUSH2 0x100 EXP SWAP1 DIV PUSH1 0xFF AND ISZERO PUSH2 0xDB4 JUMPI PUSH1 0x40 MLOAD PUSH32 0x8C379A000000000000000000000000000000000000000000000000000000000 DUP2 MSTORE PUSH1 0x4 ADD PUSH2 0xDAB SWAP1 PUSH2 0x14E1 JUMP JUMPDEST PUSH1 0x40 MLOAD DUP1 SWAP2 SUB SWAP1 REVERT JUMPDEST PUSH1 0x1 PUSH1 0x6 PUSH1 0x0 PUSH2 0x100 EXP DUP2 SLOAD DUP2 PUSH1 0xFF MUL NOT AND SWAP1 DUP4 ISZERO ISZERO MUL OR SWAP1 SSTORE POP PUSH1 0x0 CALLVALUE SWAP1 POP DUP1 PUSH1 0x2 PUSH1 0x0 DUP3 DUP3 SLOAD PUSH2 0xDE6 SWAP2 SWAP1 PUSH2 0x15AD JUMP JUMPDEST SWAP3 POP POP DUP2 SWAP1 SSTORE POP PUSH8 0xDE0B6B3A7640000 DUP4 PUSH2 0xE01 SWAP2 SWAP1 PUSH2 0x1634 JUMP JUMPDEST SWAP3 POP PUSH1 0x0 DUP1 SLOAD SWAP1 PUSH2 0x100 EXP SWAP1 DIV PUSH20 0xFFFFFFFFFFFFFFFFFFFFFFFFFFFFFFFFFFFFFFFF AND PUSH20 0xFFFFFFFFFFFFFFFFFFFFFFFFFFFFFFFFFFFFFFFF AND PUSH4 0x95EA7B3 ADDRESS DUP6 PUSH1 0x40 MLOAD DUP4 PUSH4 0xFFFFFFFF AND PUSH1 0xE0 SHL DUP2 MSTORE PUSH1 0x4 ADD PUSH2 0xE5E SWAP3 SWAP2 SWAP1 PUSH2 0x1498 JUMP JUMPDEST PUSH1 0x20 PUSH1 0x40 MLOAD DUP1 DUP4 SUB DUP2 PUSH1 0x0 DUP8 DUP1 EXTCODESIZE ISZERO DUP1 ISZERO PUSH2 0xE78 JUMPI PUSH1 0x0 DUP1 REVERT JUMPDEST POP GAS CALL ISZERO DUP1 ISZERO PUSH2 0xE8C JUMPI RETURNDATASIZE PUSH1 0x0 DUP1 RETURNDATACOPY RETURNDATASIZE PUSH1 0x0 REVERT JUMPDEST POP POP POP POP PUSH1 0x40 MLOAD RETURNDATASIZE PUSH1 0x1F NOT PUSH1 0x1F DUP3 ADD AND DUP3 ADD DUP1 PUSH1 0x40 MSTORE POP DUP2 ADD SWAP1 PUSH2 0xEB0 SWAP2 SWAP1 PUSH2 0x12F2 JUMP JUMPDEST POP PUSH1 0x0 DUP1 PUSH1 0x0 SWAP1 SLOAD SWAP1 PUSH2 0x100 EXP SWAP1 DIV PUSH20 0xFFFFFFFFFFFFFFFFFFFFFFFFFFFFFFFFFFFFFFFF AND PUSH20 0xFFFFFFFFFFFFFFFFFFFFFFFFFFFFFFFFFFFFFFFF AND PUSH4 0x23B872DD CALLER ADDRESS DUP8 PUSH1 0x40 MLOAD DUP5 PUSH4 0xFFFFFFFF AND PUSH1 0xE0 SHL DUP2 MSTORE PUSH1 0x4 ADD PUSH2 0xF11 SWAP4 SWAP3 SWAP2 SWAP1 PUSH2 0x1461 JUMP JUMPDEST PUSH1 0x20 PUSH1 0x40 MLOAD DUP1 DUP4 SUB DUP2 PUSH1 0x0 DUP8 DUP1 EXTCODESIZE ISZERO DUP1 ISZERO PUSH2 0xF2B JUMPI PUSH1 0x0 DUP1 REVERT JUMPDEST POP GAS CALL ISZERO DUP1 ISZERO PUSH2 0xF3F JUMPI RETURNDATASIZE PUSH1 0x0 DUP1 RETURNDATACOPY RETURNDATASIZE PUSH1 0x0 REVERT JUMPDEST POP POP POP POP PUSH1 0x40 MLOAD RETURNDATASIZE PUSH1 0x1F NOT PUSH1 0x1F DUP3 ADD AND DUP3 ADD DUP1 PUSH1 0x40 MSTORE POP DUP2 ADD SWAP1 PUSH2 0xF63 SWAP2 SWAP1 PUSH2 0x12F2 JUMP JUMPDEST SWAP1 POP DUP1 PUSH2 0xFA5 JUMPI PUSH1 0x40 MLOAD PUSH32 0x8C379A000000000000000000000000000000000000000000000000000000000 DUP2 MSTORE PUSH1 0x4 ADD PUSH2 0xF9C SWAP1 PUSH2 0x1501 JUMP JUMPDEST PUSH1 0x40 MLOAD DUP1 SWAP2 SUB SWAP1 REVERT JUMPDEST DUP4 PUSH1 0x1 PUSH1 0x0 DUP3 DUP3 SLOAD PUSH2 0xFB7 SWAP2 SWAP1 PUSH2 0x15AD JUMP JUMPDEST SWAP3 POP POP DUP2 SWAP1 SSTORE POP PUSH1 0x2 SLOAD DUP3 PUSH1 0x3 SLOAD PUSH2 0xFCF SWAP2 SWAP1 PUSH2 0x1634 JUMP JUMPDEST PUSH2 0xFD9 SWAP2 SWAP1 PUSH2 0x1603 JUMP JUMPDEST PUSH1 0x1 SLOAD DUP6 PUSH1 0x3 SLOAD PUSH2 0xFEA SWAP2 SWAP1 PUSH2 0x1634 JUMP JUMPDEST PUSH2 0xFF4 SWAP2 SWAP1 PUSH2 0x1603 JUMP JUMPDEST EQ PUSH2 0x1034 JUMPI PUSH1 0x40 MLOAD PUSH32 0x8C379A000000000000000000000000000000000000000000000000000000000 DUP2 MSTORE PUSH1 0x4 ADD PUSH2 0x102B SWAP1 PUSH2 0x14C1 JUMP JUMPDEST PUSH1 0x40 MLOAD DUP1 SWAP2 SUB SWAP1 REVERT JUMPDEST PUSH1 0x0 PUSH1 0x3 SLOAD EQ ISZERO PUSH2 0x10E1 JUMPI PUSH1 0x64 PUSH1 0x5 PUSH1 0x0 CALLER PUSH20 0xFFFFFFFFFFFFFFFFFFFFFFFFFFFFFFFFFFFFFFFF AND PUSH20 0xFFFFFFFFFFFFFFFFFFFFFFFFFFFFFFFFFFFFFFFF AND DUP2 MSTORE PUSH1 0x20 ADD SWAP1 DUP2 MSTORE PUSH1 0x20 ADD PUSH1 0x0 KECCAK256 DUP2 SWAP1 SSTORE POP PUSH1 0x5 PUSH1 0x0 CALLER PUSH20 0xFFFFFFFFFFFFFFFFFFFFFFFFFFFFFFFFFFFFFFFF AND PUSH20 0xFFFFFFFFFFFFFFFFFFFFFFFFFFFFFFFFFFFFFFFF AND DUP2 MSTORE PUSH1 0x20 ADD SWAP1 DUP2 MSTORE PUSH1 0x20 ADD PUSH1 0x0 KECCAK256 SLOAD PUSH1 0x3 PUSH1 0x0 DUP3 DUP3 SLOAD PUSH2 0x10D5 SWAP2 SWAP1 PUSH2 0x15AD JUMP JUMPDEST SWAP3 POP POP DUP2 SWAP1 SSTORE POP PUSH2 0x1185 JUMP JUMPDEST PUSH1 0x1 SLOAD DUP5 PUSH1 0x3 SLOAD PUSH2 0x10F2 SWAP2 SWAP1 PUSH2 0x1634 JUMP JUMPDEST PUSH2 0x10FC SWAP2 SWAP1 PUSH2 0x1603 JUMP JUMPDEST PUSH1 0x5 PUSH1 0x0 CALLER PUSH20 0xFFFFFFFFFFFFFFFFFFFFFFFFFFFFFFFFFFFFFFFF AND PUSH20 0xFFFFFFFFFFFFFFFFFFFFFFFFFFFFFFFFFFFFFFFF AND DUP2 MSTORE PUSH1 0x20 ADD SWAP1 DUP2 MSTORE PUSH1 0x20 ADD PUSH1 0x0 KECCAK256 PUSH1 0x0 DUP3 DUP3 SLOAD PUSH2 0x114A SWAP2 SWAP1 PUSH2 0x15AD JUMP JUMPDEST SWAP3 POP POP DUP2 SWAP1 SSTORE POP PUSH1 0x1 SLOAD DUP5 PUSH1 0x3 SLOAD PUSH2 0x1162 SWAP2 SWAP1 PUSH2 0x1634 JUMP JUMPDEST PUSH2 0x116C SWAP2 SWAP1 PUSH2 0x1603 JUMP JUMPDEST PUSH1 0x3 PUSH1 0x0 DUP3 DUP3 SLOAD PUSH2 0x117D SWAP2 SWAP1 PUSH2 0x15AD JUMP JUMPDEST SWAP3 POP POP DUP2 SWAP1 SSTORE POP JUMPDEST PUSH1 0x1 SLOAD PUSH1 0x2 SLOAD PUSH2 0x1195 SWAP2 SWAP1 PUSH2 0x1634 JUMP JUMPDEST PUSH1 0x4 DUP2 SWAP1 SSTORE POP PUSH32 0xAA58F006CC244B2AF6662862508BD39465F57169FF8386D1D1F7B0B903150ABC DUP5 DUP4 PUSH1 0x5 PUSH1 0x0 CALLER PUSH20 0xFFFFFFFFFFFFFFFFFFFFFFFFFFFFFFFFFFFFFFFF AND PUSH20 0xFFFFFFFFFFFFFFFFFFFFFFFFFFFFFFFFFFFFFFFF AND DUP2 MSTORE PUSH1 0x20 ADD SWAP1 DUP2 MSTORE PUSH1 0x20 ADD PUSH1 0x0 KECCAK256 SLOAD PUSH1 0x40 MLOAD PUSH2 0x120D SWAP4 SWAP3 SWAP2 SWAP1 PUSH2 0x1565 JUMP JUMPDEST PUSH1 0x40 MLOAD DUP1 SWAP2 SUB SWAP1 LOG1 PUSH1 0x5 PUSH1 0x0 CALLER PUSH20 0xFFFFFFFFFFFFFFFFFFFFFFFFFFFFFFFFFFFFFFFF AND PUSH20 0xFFFFFFFFFFFFFFFFFFFFFFFFFFFFFFFFFFFFFFFF AND DUP2 MSTORE PUSH1 0x20 ADD SWAP1 DUP2 MSTORE PUSH1 0x20 ADD PUSH1 0x0 KECCAK256 SLOAD SWAP3 POP POP POP PUSH1 0x0 PUSH1 0x6 PUSH1 0x0 PUSH2 0x100 EXP DUP2 SLOAD DUP2 PUSH1 0xFF MUL NOT AND SWAP1 DUP4 ISZERO ISZERO MUL OR SWAP1 SSTORE POP SWAP2 SWAP1 POP JUMP JUMPDEST PUSH1 0x0 PUSH1 0x2 SLOAD DUP3 PUSH1 0x1 SLOAD PUSH2 0x128C SWAP2 SWAP1 PUSH2 0x1634 JUMP JUMPDEST PUSH2 0x1296 SWAP2 SWAP1 PUSH2 0x1603 JUMP JUMPDEST SWAP1 POP PUSH8 0xDE0B6B3A7640000 DUP2 PUSH2 0x12AC SWAP2 SWAP1 PUSH2 0x1603 JUMP JUMPDEST SWAP1 POP SWAP2 SWAP1 POP JUMP JUMPDEST PUSH1 0x0 DUP2 MLOAD SWAP1 POP PUSH2 0x12C2 DUP2 PUSH2 0x181E JUMP JUMPDEST SWAP3 SWAP2 POP POP JUMP JUMPDEST PUSH1 0x0 DUP2 CALLDATALOAD SWAP1 POP PUSH2 0x12D7 DUP2 PUSH2 0x1835 JUMP JUMPDEST SWAP3 SWAP2 POP POP JUMP JUMPDEST PUSH1 0x0 DUP2 MLOAD SWAP1 POP PUSH2 0x12EC DUP2 PUSH2 0x1835 JUMP JUMPDEST SWAP3 SWAP2 POP POP JUMP JUMPDEST PUSH1 0x0 PUSH1 0x20 DUP3 DUP5 SUB SLT ISZERO PUSH2 0x1308 JUMPI PUSH2 0x1307 PUSH2 0x179E JUMP JUMPDEST JUMPDEST PUSH1 0x0 PUSH2 0x1316 DUP5 DUP3 DUP6 ADD PUSH2 0x12B3 JUMP JUMPDEST SWAP2 POP POP SWAP3 SWAP2 POP POP JUMP JUMPDEST PUSH1 0x0 PUSH1 0x20 DUP3 DUP5 SUB SLT ISZERO PUSH2 0x1335 JUMPI PUSH2 0x1334 PUSH2 0x179E JUMP JUMPDEST JUMPDEST PUSH1 0x0 PUSH2 0x1343 DUP5 DUP3 DUP6 ADD PUSH2 0x12C8 JUMP JUMPDEST SWAP2 POP POP SWAP3 SWAP2 POP POP JUMP JUMPDEST PUSH1 0x0 PUSH1 0x20 DUP3 DUP5 SUB SLT ISZERO PUSH2 0x1362 JUMPI PUSH2 0x1361 PUSH2 0x179E JUMP JUMPDEST JUMPDEST PUSH1 0x0 PUSH2 0x1370 DUP5 DUP3 DUP6 ADD PUSH2 0x12DD JUMP JUMPDEST SWAP2 POP POP SWAP3 SWAP2 POP POP JUMP JUMPDEST PUSH2 0x1382 DUP2 PUSH2 0x170A JUMP JUMPDEST DUP3 MSTORE POP POP JUMP JUMPDEST PUSH2 0x1391 DUP2 PUSH2 0x16C2 JUMP JUMPDEST DUP3 MSTORE POP POP JUMP JUMPDEST PUSH1 0x0 PUSH2 0x13A4 PUSH1 0x13 DUP4 PUSH2 0x159C JUMP JUMPDEST SWAP2 POP PUSH2 0x13AF DUP3 PUSH2 0x17A3 JUMP JUMPDEST PUSH1 0x20 DUP3 ADD SWAP1 POP SWAP2 SWAP1 POP JUMP JUMPDEST PUSH1 0x0 PUSH2 0x13C7 PUSH1 0xB DUP4 PUSH2 0x159C JUMP JUMPDEST SWAP2 POP PUSH2 0x13D2 DUP3 PUSH2 0x17CC JUMP JUMPDEST PUSH1 0x20 DUP3 ADD SWAP1 POP SWAP2 SWAP1 POP JUMP JUMPDEST PUSH1 0x0 PUSH2 0x13EA PUSH1 0x13 DUP4 PUSH2 0x159C JUMP JUMPDEST SWAP2 POP PUSH2 0x13F5 DUP3 PUSH2 0x17F5 JUMP JUMPDEST PUSH1 0x20 DUP3 ADD SWAP1 POP SWAP2 SWAP1 POP JUMP JUMPDEST PUSH2 0x1409 DUP2 PUSH2 0x1700 JUMP JUMPDEST DUP3 MSTORE POP POP JUMP JUMPDEST PUSH1 0x0 PUSH1 0x20 DUP3 ADD SWAP1 POP PUSH2 0x1424 PUSH1 0x0 DUP4 ADD DUP5 PUSH2 0x1388 JUMP JUMPDEST SWAP3 SWAP2 POP POP JUMP JUMPDEST PUSH1 0x0 PUSH1 0x60 DUP3 ADD SWAP1 POP PUSH2 0x143F PUSH1 0x0 DUP4 ADD DUP7 PUSH2 0x1388 JUMP JUMPDEST PUSH2 0x144C PUSH1 0x20 DUP4 ADD DUP6 PUSH2 0x1379 JUMP JUMPDEST PUSH2 0x1459 PUSH1 0x40 DUP4 ADD DUP5 PUSH2 0x1400 JUMP JUMPDEST SWAP5 SWAP4 POP POP POP POP JUMP JUMPDEST PUSH1 0x0 PUSH1 0x60 DUP3 ADD SWAP1 POP PUSH2 0x1476 PUSH1 0x0 DUP4 ADD DUP7 PUSH2 0x1388 JUMP JUMPDEST PUSH2 0x1483 PUSH1 0x20 DUP4 ADD DUP6 PUSH2 0x1388 JUMP JUMPDEST PUSH2 0x1490 PUSH1 0x40 DUP4 ADD DUP5 PUSH2 0x1400 JUMP JUMPDEST SWAP5 SWAP4 POP POP POP POP JUMP JUMPDEST PUSH1 0x0 PUSH1 0x40 DUP3 ADD SWAP1 POP PUSH2 0x14AD PUSH1 0x0 DUP4 ADD DUP6 PUSH2 0x1388 JUMP JUMPDEST PUSH2 0x14BA PUSH1 0x20 DUP4 ADD DUP5 PUSH2 0x1400 JUMP JUMPDEST SWAP4 SWAP3 POP POP POP JUMP JUMPDEST PUSH1 0x0 PUSH1 0x20 DUP3 ADD SWAP1 POP DUP2 DUP2 SUB PUSH1 0x0 DUP4 ADD MSTORE PUSH2 0x14DA DUP2 PUSH2 0x1397 JUMP JUMPDEST SWAP1 POP SWAP2 SWAP1 POP JUMP JUMPDEST PUSH1 0x0 PUSH1 0x20 DUP3 ADD SWAP1 POP DUP2 DUP2 SUB PUSH1 0x0 DUP4 ADD MSTORE PUSH2 0x14FA DUP2 PUSH2 0x13BA JUMP JUMPDEST SWAP1 POP SWAP2 SWAP1 POP JUMP JUMPDEST PUSH1 0x0 PUSH1 0x20 DUP3 ADD SWAP1 POP DUP2 DUP2 SUB PUSH1 0x0 DUP4 ADD MSTORE PUSH2 0x151A DUP2 PUSH2 0x13DD JUMP JUMPDEST SWAP1 POP SWAP2 SWAP1 POP JUMP JUMPDEST PUSH1 0x0 PUSH1 0x20 DUP3 ADD SWAP1 POP PUSH2 0x1536 PUSH1 0x0 DUP4 ADD DUP5 PUSH2 0x1400 JUMP JUMPDEST SWAP3 SWAP2 POP POP JUMP JUMPDEST PUSH1 0x0 PUSH1 0x40 DUP3 ADD SWAP1 POP PUSH2 0x1551 PUSH1 0x0 DUP4 ADD DUP6 PUSH2 0x1400 JUMP JUMPDEST PUSH2 0x155E PUSH1 0x20 DUP4 ADD DUP5 PUSH2 0x1400 JUMP JUMPDEST SWAP4 SWAP3 POP POP POP JUMP JUMPDEST PUSH1 0x0 PUSH1 0x60 DUP3 ADD SWAP1 POP PUSH2 0x157A PUSH1 0x0 DUP4 ADD DUP7 PUSH2 0x1400 JUMP JUMPDEST PUSH2 0x1587 PUSH1 0x20 DUP4 ADD DUP6 PUSH2 0x1400 JUMP JUMPDEST PUSH2 0x1594 PUSH1 0x40 DUP4 ADD DUP5 PUSH2 0x1400 JUMP JUMPDEST SWAP5 SWAP4 POP POP POP POP JUMP JUMPDEST PUSH1 0x0 DUP3 DUP3 MSTORE PUSH1 0x20 DUP3 ADD SWAP1 POP SWAP3 SWAP2 POP POP JUMP JUMPDEST PUSH1 0x0 PUSH2 0x15B8 DUP3 PUSH2 0x1700 JUMP JUMPDEST SWAP2 POP PUSH2 0x15C3 DUP4 PUSH2 0x1700 JUMP JUMPDEST SWAP3 POP DUP3 PUSH32 0xFFFFFFFFFFFFFFFFFFFFFFFFFFFFFFFFFFFFFFFFFFFFFFFFFFFFFFFFFFFFFFFF SUB DUP3 GT ISZERO PUSH2 0x15F8 JUMPI PUSH2 0x15F7 PUSH2 0x1740 JUMP JUMPDEST JUMPDEST DUP3 DUP3 ADD SWAP1 POP SWAP3 SWAP2 POP POP JUMP JUMPDEST PUSH1 0x0 PUSH2 0x160E DUP3 PUSH2 0x1700 JUMP JUMPDEST SWAP2 POP PUSH2 0x1619 DUP4 PUSH2 0x1700 JUMP JUMPDEST SWAP3 POP DUP3 PUSH2 0x1629 JUMPI PUSH2 0x1628 PUSH2 0x176F JUMP JUMPDEST JUMPDEST DUP3 DUP3 DIV SWAP1 POP SWAP3 SWAP2 POP POP JUMP JUMPDEST PUSH1 0x0 PUSH2 0x163F DUP3 PUSH2 0x1700 JUMP JUMPDEST SWAP2 POP PUSH2 0x164A DUP4 PUSH2 0x1700 JUMP JUMPDEST SWAP3 POP DUP2 PUSH32 0xFFFFFFFFFFFFFFFFFFFFFFFFFFFFFFFFFFFFFFFFFFFFFFFFFFFFFFFFFFFFFFFF DIV DUP4 GT DUP3 ISZERO ISZERO AND ISZERO PUSH2 0x1683 JUMPI PUSH2 0x1682 PUSH2 0x1740 JUMP JUMPDEST JUMPDEST DUP3 DUP3 MUL SWAP1 POP SWAP3 SWAP2 POP POP JUMP JUMPDEST PUSH1 0x0 PUSH2 0x1699 DUP3 PUSH2 0x1700 JUMP JUMPDEST SWAP2 POP PUSH2 0x16A4 DUP4 PUSH2 0x1700 JUMP JUMPDEST SWAP3 POP DUP3 DUP3 LT ISZERO PUSH2 0x16B7 JUMPI PUSH2 0x16B6 PUSH2 0x1740 JUMP JUMPDEST JUMPDEST DUP3 DUP3 SUB SWAP1 POP SWAP3 SWAP2 POP POP JUMP JUMPDEST PUSH1 0x0 PUSH2 0x16CD DUP3 PUSH2 0x16E0 JUMP JUMPDEST SWAP1 POP SWAP2 SWAP1 POP JUMP JUMPDEST PUSH1 0x0 DUP2 ISZERO ISZERO SWAP1 POP SWAP2 SWAP1 POP JUMP JUMPDEST PUSH1 0x0 PUSH20 0xFFFFFFFFFFFFFFFFFFFFFFFFFFFFFFFFFFFFFFFF DUP3 AND SWAP1 POP SWAP2 SWAP1 POP JUMP JUMPDEST PUSH1 0x0 DUP2 SWAP1 POP SWAP2 SWAP1 POP JUMP JUMPDEST PUSH1 0x0 PUSH2 0x1715 DUP3 PUSH2 0x171C JUMP JUMPDEST SWAP1 POP SWAP2 SWAP1 POP JUMP JUMPDEST PUSH1 0x0 PUSH2 0x1727 DUP3 PUSH2 0x172E JUMP JUMPDEST SWAP1 POP SWAP2 SWAP1 POP JUMP JUMPDEST PUSH1 0x0 PUSH2 0x1739 DUP3 PUSH2 0x16E0 JUMP JUMPDEST SWAP1 POP SWAP2 SWAP1 POP JUMP JUMPDEST PUSH32 0x4E487B7100000000000000000000000000000000000000000000000000000000 PUSH1 0x0 MSTORE PUSH1 0x11 PUSH1 0x4 MSTORE PUSH1 0x24 PUSH1 0x0 REVERT JUMPDEST PUSH32 0x4E487B7100000000000000000000000000000000000000000000000000000000 PUSH1 0x0 MSTORE PUSH1 0x12 PUSH1 0x4 MSTORE PUSH1 0x24 PUSH1 0x0 REVERT JUMPDEST PUSH1 0x0 DUP1 REVERT JUMPDEST PUSH32 0x6C697175696469747920696E62616C616E636500000000000000000000000000 PUSH1 0x0 DUP3 ADD MSTORE POP JUMP JUMPDEST PUSH32 0x4E6F2072652D656E747279000000000000000000000000000000000000000000 PUSH1 0x0 DUP3 ADD MSTORE POP JUMP JUMPDEST PUSH32 0x7472616E73666572206661696C65642E203A2800000000000000000000000000 PUSH1 0x0 DUP3 ADD MSTORE POP JUMP JUMPDEST PUSH2 0x1827 DUP2 PUSH2 0x16D4 JUMP JUMPDEST DUP2 EQ PUSH2 0x1832 JUMPI PUSH1 0x0 DUP1 REVERT JUMPDEST POP JUMP JUMPDEST PUSH2 0x183E DUP2 PUSH2 0x1700 JUMP JUMPDEST DUP2 EQ PUSH2 0x1849 JUMPI PUSH1 0x0 DUP1 REVERT JUMPDEST POP JUMP INVALID LOG2 PUSH5 0x6970667358 0x22 SLT KECCAK256 SWAP3 SIGNEXTEND DUP11 MSTORE STATICCALL 0xCF MSIZE 0xED PUSH21 0xBA9F72EEB4EF53F52925A1D4E5C0AE6B3EF65F25FB TIMESTAMP 0xCC PUSH5 0x736F6C6343 STOP ADDMOD SMOD STOP CALLER "
		},
		"gasEstimates": {
			"creation": {
				"codeDepositCost": "1254800",
				"executionCost": "infinite",
				"totalCost": "infinite"
			},
			"external": {
				"K()": "2429",
				"_ERC20TokenBalance()": "infinite",
				"contractEthBalance()": "2496",
				"estimateERC20TokenToProvide(uint256)": "infinite",
				"estimateEthToProvide(uint256)": "infinite",
				"estimateSwapForERC20Token(uint256)": "infinite",
				"estimateSwapForEth(uint256)": "infinite",
				"getMyLiquidityPositions()": "2592",
				"provideLiquidity(uint256)": "infinite",
				"swapForERC20Token()": "infinite",
				"swapForEth(uint256)": "infinite",
				"withdrawLiquidity(uint256)": "infinite"
			}
		},
		"methodIdentifiers": {
			"K()": "a932492f",
			"_ERC20TokenBalance()": "bc23ae5e",
			"contractEthBalance()": "5d58ce36",
			"estimateERC20TokenToProvide(uint256)": "ed7bf868",
			"estimateEthToProvide(uint256)": "240f3dea",
			"estimateSwapForERC20Token(uint256)": "79ed3562",
			"estimateSwapForEth(uint256)": "903875f7",
			"getMyLiquidityPositions()": "e0ba2000",
			"provideLiquidity(uint256)": "eb521a4c",
			"swapForERC20Token()": "29cbab3e",
			"swapForEth(uint256)": "c8ab8325",
			"withdrawLiquidity(uint256)": "0a861f2a"
		}
	},
	"abi": [
		{
			"inputs": [
				{
					"internalType": "address",
					"name": "adr",
					"type": "address"
				}
			],
			"stateMutability": "nonpayable",
			"type": "constructor"
		},
		{
			"anonymous": false,
			"inputs": [
				{
					"indexed": false,
					"internalType": "uint256",
					"name": "amountERC20TokenDeposited",
					"type": "uint256"
				},
				{
					"indexed": false,
					"internalType": "uint256",
					"name": "amountEthDeposited",
					"type": "uint256"
				},
				{
					"indexed": false,
					"internalType": "uint256",
					"name": "liquidityPositionsIssued",
					"type": "uint256"
				}
			],
			"name": "LiquidityProvided",
			"type": "event"
		},
		{
			"anonymous": false,
			"inputs": [
				{
					"indexed": false,
					"internalType": "uint256",
					"name": "amountERC20TokenWithdrew",
					"type": "uint256"
				},
				{
					"indexed": false,
					"internalType": "uint256",
					"name": "amountEthWithdrew",
					"type": "uint256"
				},
				{
					"indexed": false,
					"internalType": "uint256",
					"name": "liquidityPositionsBurned",
					"type": "uint256"
				}
			],
			"name": "LiquidityWithdrew",
			"type": "event"
		},
		{
			"anonymous": false,
			"inputs": [
				{
					"indexed": false,
					"internalType": "uint256",
					"name": "amountERC20TokenWithdrew",
					"type": "uint256"
				},
				{
					"indexed": false,
					"internalType": "uint256",
					"name": "amountEthDeposited",
					"type": "uint256"
				}
			],
			"name": "SwapForERC20Token",
			"type": "event"
		},
		{
			"anonymous": false,
			"inputs": [
				{
					"indexed": false,
					"internalType": "uint256",
					"name": "amountERC20TokenDeposited",
					"type": "uint256"
				},
				{
					"indexed": false,
					"internalType": "uint256",
					"name": "amountEthWithdrew",
					"type": "uint256"
				}
			],
			"name": "SwapForEth",
			"type": "event"
		},
		{
			"inputs": [],
			"name": "K",
			"outputs": [
				{
					"internalType": "uint256",
					"name": "",
					"type": "uint256"
				}
			],
			"stateMutability": "view",
			"type": "function"
		},
		{
			"inputs": [],
			"name": "_ERC20TokenBalance",
			"outputs": [
				{
					"internalType": "uint256",
					"name": "",
					"type": "uint256"
				}
			],
			"stateMutability": "view",
			"type": "function"
		},
		{
			"inputs": [],
			"name": "contractEthBalance",
			"outputs": [
				{
					"internalType": "uint256",
					"name": "",
					"type": "uint256"
				}
			],
			"stateMutability": "view",
			"type": "function"
		},
		{
			"inputs": [
				{
					"internalType": "uint256",
					"name": "_amountEth",
					"type": "uint256"
				}
			],
			"name": "estimateERC20TokenToProvide",
			"outputs": [
				{
					"internalType": "uint256",
					"name": "_amountERC20",
					"type": "uint256"
				}
			],
			"stateMutability": "view",
			"type": "function"
		},
		{
			"inputs": [
				{
					"internalType": "uint256",
					"name": "_amountERC20Token",
					"type": "uint256"
				}
			],
			"name": "estimateEthToProvide",
			"outputs": [
				{
					"internalType": "uint256",
					"name": "_amountEth",
					"type": "uint256"
				}
			],
			"stateMutability": "view",
			"type": "function"
		},
		{
			"inputs": [
				{
					"internalType": "uint256",
					"name": "_amountEth",
					"type": "uint256"
				}
			],
			"name": "estimateSwapForERC20Token",
			"outputs": [
				{
					"internalType": "uint256",
					"name": "ERC20TokenToSend",
					"type": "uint256"
				}
			],
			"stateMutability": "view",
			"type": "function"
		},
		{
			"inputs": [
				{
					"internalType": "uint256",
					"name": "_amountERC20Token",
					"type": "uint256"
				}
			],
			"name": "estimateSwapForEth",
			"outputs": [
				{
					"internalType": "uint256",
					"name": "ethToSend",
					"type": "uint256"
				}
			],
			"stateMutability": "view",
			"type": "function"
		},
		{
			"inputs": [],
			"name": "getMyLiquidityPositions",
			"outputs": [
				{
					"internalType": "uint256",
					"name": "_liquidity",
					"type": "uint256"
				}
			],
			"stateMutability": "view",
			"type": "function"
		},
		{
			"inputs": [
				{
					"internalType": "uint256",
					"name": "_amountERC20Token",
					"type": "uint256"
				}
			],
			"name": "provideLiquidity",
			"outputs": [
				{
					"internalType": "uint256",
					"name": "_liquidity",
					"type": "uint256"
				}
			],
			"stateMutability": "payable",
			"type": "function"
		},
		{
			"inputs": [],
			"name": "swapForERC20Token",
			"outputs": [
				{
					"internalType": "uint256",
					"name": "ERC20TokenToSend",
					"type": "uint256"
				}
			],
			"stateMutability": "payable",
			"type": "function"
		},
		{
			"inputs": [
				{
					"internalType": "uint256",
					"name": "_amountERC20Token",
					"type": "uint256"
				}
			],
			"name": "swapForEth",
			"outputs": [
				{
					"internalType": "uint256",
					"name": "ethToSend",
					"type": "uint256"
				}
			],
			"stateMutability": "payable",
			"type": "function"
		},
		{
			"inputs": [
				{
					"internalType": "uint256",
					"name": "_liquidityPositionsToBurn",
					"type": "uint256"
				}
			],
			"name": "withdrawLiquidity",
			"outputs": [
				{
					"internalType": "uint256",
					"name": "amountEthToSend",
					"type": "uint256"
				},
				{
					"internalType": "uint256",
					"name": "amountERC20ToSend",
					"type": "uint256"
				}
			],
			"stateMutability": "payable",
			"type": "function"
		}
	]
}